{
  "address": "0x589Df8F0170Ef9f57A8Aebf5F63aD99Fc0e79309",
  "abi": [
    {
      "inputs": [
        {
          "internalType": "uint32",
          "name": "_galleryEid",
          "type": "uint32"
        },
        {
          "internalType": "address",
          "name": "_galleryAddress",
          "type": "address"
        },
        {
          "internalType": "address",
          "name": "_curator",
          "type": "address"
        },
        {
          "internalType": "address",
          "name": "_token",
          "type": "address"
        },
        {
          "internalType": "address",
          "name": "_lzEndpoint",
          "type": "address"
        },
        {
          "internalType": "address",
          "name": "_delegate",
          "type": "address"
        }
      ],
      "stateMutability": "nonpayable",
      "type": "constructor"
    },
    {
      "inputs": [],
      "name": "InvalidDelegate",
      "type": "error"
    },
    {
      "inputs": [],
      "name": "InvalidEndpointCall",
      "type": "error"
    },
    {
      "inputs": [
        {
          "internalType": "uint16",
          "name": "optionType",
          "type": "uint16"
        }
      ],
      "name": "InvalidOptionType",
      "type": "error"
    },
    {
      "inputs": [
        {
          "internalType": "bytes",
          "name": "options",
          "type": "bytes"
        }
      ],
      "name": "InvalidOptions",
      "type": "error"
    },
    {
      "inputs": [],
      "name": "InvalidReceiver",
      "type": "error"
    },
    {
      "inputs": [],
      "name": "LzTokenUnavailable",
      "type": "error"
    },
    {
      "inputs": [
        {
          "internalType": "uint32",
          "name": "eid",
          "type": "uint32"
        }
      ],
      "name": "NoPeer",
      "type": "error"
    },
    {
      "inputs": [
        {
          "internalType": "uint256",
          "name": "msgValue",
          "type": "uint256"
        }
      ],
      "name": "NotEnoughNative",
      "type": "error"
    },
    {
      "inputs": [
        {
          "internalType": "address",
          "name": "addr",
          "type": "address"
        }
      ],
      "name": "OnlyEndpoint",
      "type": "error"
    },
    {
      "inputs": [
        {
          "internalType": "address",
          "name": "caller",
          "type": "address"
        },
        {
          "internalType": "address",
          "name": "owner",
          "type": "address"
        }
      ],
      "name": "OnlyNFTOwner",
      "type": "error"
    },
    {
      "inputs": [
        {
          "internalType": "uint32",
          "name": "eid",
          "type": "uint32"
        },
        {
          "internalType": "bytes32",
          "name": "sender",
          "type": "bytes32"
        }
      ],
      "name": "OnlyPeer",
      "type": "error"
    },
    {
      "inputs": [],
      "name": "OnlySelf",
      "type": "error"
    },
    {
      "inputs": [
        {
          "internalType": "address",
          "name": "owner",
          "type": "address"
        }
      ],
      "name": "OwnableInvalidOwner",
      "type": "error"
    },
    {
      "inputs": [
        {
          "internalType": "address",
          "name": "account",
          "type": "address"
        }
      ],
      "name": "OwnableUnauthorizedAccount",
      "type": "error"
    },
    {
      "inputs": [
        {
          "internalType": "uint8",
          "name": "bits",
          "type": "uint8"
        },
        {
          "internalType": "uint256",
          "name": "value",
          "type": "uint256"
        }
      ],
      "name": "SafeCastOverflowedUintDowncast",
      "type": "error"
    },
    {
      "inputs": [
        {
          "internalType": "address",
          "name": "token",
          "type": "address"
        }
      ],
      "name": "SafeERC20FailedOperation",
      "type": "error"
    },
    {
      "inputs": [
        {
          "internalType": "bytes",
          "name": "result",
          "type": "bytes"
        }
      ],
      "name": "SimulationResult",
      "type": "error"
    },
    {
      "anonymous": false,
      "inputs": [
        {
          "components": [
            {
              "internalType": "uint32",
              "name": "eid",
              "type": "uint32"
            },
            {
              "internalType": "uint16",
              "name": "msgType",
              "type": "uint16"
            },
            {
              "internalType": "bytes",
              "name": "options",
              "type": "bytes"
            }
          ],
          "indexed": false,
          "internalType": "struct EnforcedOptionParam[]",
          "name": "_enforcedOptions",
          "type": "tuple[]"
        }
      ],
      "name": "EnforcedOptionSet",
      "type": "event"
    },
    {
      "anonymous": false,
      "inputs": [
        {
          "indexed": false,
          "internalType": "address",
          "name": "inspector",
          "type": "address"
        }
      ],
      "name": "MsgInspectorSet",
      "type": "event"
    },
    {
      "anonymous": false,
      "inputs": [
        {
          "indexed": true,
          "internalType": "bytes32",
          "name": "guid",
          "type": "bytes32"
        },
        {
          "indexed": false,
          "internalType": "uint32",
          "name": "srcEid",
          "type": "uint32"
        },
        {
          "indexed": true,
          "internalType": "address",
          "name": "toAddress",
          "type": "address"
        },
        {
          "indexed": false,
          "internalType": "uint256",
          "name": "tokenId",
          "type": "uint256"
        }
      ],
      "name": "ONFTReceived",
      "type": "event"
    },
    {
      "anonymous": false,
      "inputs": [
        {
          "indexed": true,
          "internalType": "bytes32",
          "name": "guid",
          "type": "bytes32"
        },
        {
          "indexed": false,
          "internalType": "uint32",
          "name": "dstEid",
          "type": "uint32"
        },
        {
          "indexed": true,
          "internalType": "address",
          "name": "fromAddress",
          "type": "address"
        },
        {
          "indexed": false,
          "internalType": "uint256",
          "name": "tokenId",
          "type": "uint256"
        }
      ],
      "name": "ONFTSent",
      "type": "event"
    },
    {
      "anonymous": false,
      "inputs": [
        {
          "indexed": true,
          "internalType": "address",
          "name": "previousOwner",
          "type": "address"
        },
        {
          "indexed": true,
          "internalType": "address",
          "name": "newOwner",
          "type": "address"
        }
      ],
      "name": "OwnershipTransferred",
      "type": "event"
    },
    {
      "anonymous": false,
      "inputs": [
        {
          "indexed": false,
          "internalType": "uint32",
          "name": "eid",
          "type": "uint32"
        },
        {
          "indexed": false,
          "internalType": "bytes32",
          "name": "peer",
          "type": "bytes32"
        }
      ],
      "name": "PeerSet",
      "type": "event"
    },
    {
      "anonymous": false,
      "inputs": [
        {
          "indexed": false,
          "internalType": "address",
          "name": "preCrimeAddress",
          "type": "address"
        }
      ],
      "name": "PreCrimeSet",
      "type": "event"
    },
    {
      "inputs": [],
      "name": "SEND",
      "outputs": [
        {
          "internalType": "uint16",
          "name": "",
          "type": "uint16"
        }
      ],
      "stateMutability": "view",
      "type": "function"
    },
    {
      "inputs": [],
      "name": "SEND_AND_COMPOSE",
      "outputs": [
        {
          "internalType": "uint16",
          "name": "",
          "type": "uint16"
        }
      ],
      "stateMutability": "view",
      "type": "function"
    },
    {
      "inputs": [
        {
          "components": [
            {
              "internalType": "uint32",
              "name": "srcEid",
              "type": "uint32"
            },
            {
              "internalType": "bytes32",
              "name": "sender",
              "type": "bytes32"
            },
            {
              "internalType": "uint64",
              "name": "nonce",
              "type": "uint64"
            }
          ],
          "internalType": "struct Origin",
          "name": "origin",
          "type": "tuple"
        }
      ],
      "name": "allowInitializePath",
      "outputs": [
        {
          "internalType": "bool",
          "name": "",
          "type": "bool"
        }
      ],
      "stateMutability": "view",
      "type": "function"
    },
    {
      "inputs": [],
      "name": "approvalRequired",
      "outputs": [
        {
          "internalType": "bool",
          "name": "",
          "type": "bool"
        }
      ],
      "stateMutability": "pure",
      "type": "function"
    },
    {
      "inputs": [
        {
          "internalType": "uint32",
          "name": "_eid",
          "type": "uint32"
        },
        {
          "internalType": "uint16",
          "name": "_msgType",
          "type": "uint16"
        },
        {
          "internalType": "bytes",
          "name": "_extraOptions",
          "type": "bytes"
        }
      ],
      "name": "combineOptions",
      "outputs": [
        {
          "internalType": "bytes",
          "name": "",
          "type": "bytes"
        }
      ],
      "stateMutability": "view",
      "type": "function"
    },
    {
      "inputs": [],
      "name": "endpoint",
      "outputs": [
        {
          "internalType": "contract ILayerZeroEndpointV2",
          "name": "",
          "type": "address"
        }
      ],
      "stateMutability": "view",
      "type": "function"
    },
    {
      "inputs": [
        {
          "internalType": "uint32",
          "name": "eid",
          "type": "uint32"
        },
        {
          "internalType": "uint16",
          "name": "msgType",
          "type": "uint16"
        }
      ],
      "name": "enforcedOptions",
      "outputs": [
        {
          "internalType": "bytes",
          "name": "enforcedOption",
          "type": "bytes"
        }
      ],
      "stateMutability": "view",
      "type": "function"
    },
    {
      "inputs": [
        {
          "components": [
            {
              "internalType": "uint32",
              "name": "srcEid",
              "type": "uint32"
            },
            {
              "internalType": "bytes32",
              "name": "sender",
              "type": "bytes32"
            },
            {
              "internalType": "uint64",
              "name": "nonce",
              "type": "uint64"
            }
          ],
          "internalType": "struct Origin",
          "name": "",
          "type": "tuple"
        },
        {
          "internalType": "bytes",
          "name": "",
          "type": "bytes"
        },
        {
          "internalType": "address",
          "name": "_sender",
          "type": "address"
        }
      ],
      "name": "isComposeMsgSender",
      "outputs": [
        {
          "internalType": "bool",
          "name": "",
          "type": "bool"
        }
      ],
      "stateMutability": "view",
      "type": "function"
    },
    {
      "inputs": [
        {
          "internalType": "uint32",
          "name": "_eid",
          "type": "uint32"
        },
        {
          "internalType": "bytes32",
          "name": "_peer",
          "type": "bytes32"
        }
      ],
      "name": "isPeer",
      "outputs": [
        {
          "internalType": "bool",
          "name": "",
          "type": "bool"
        }
      ],
      "stateMutability": "view",
      "type": "function"
    },
    {
      "inputs": [
        {
          "components": [
            {
              "internalType": "uint32",
              "name": "srcEid",
              "type": "uint32"
            },
            {
              "internalType": "bytes32",
              "name": "sender",
              "type": "bytes32"
            },
            {
              "internalType": "uint64",
              "name": "nonce",
              "type": "uint64"
            }
          ],
          "internalType": "struct Origin",
          "name": "_origin",
          "type": "tuple"
        },
        {
          "internalType": "bytes32",
          "name": "_guid",
          "type": "bytes32"
        },
        {
          "internalType": "bytes",
          "name": "_message",
          "type": "bytes"
        },
        {
          "internalType": "address",
          "name": "_executor",
          "type": "address"
        },
        {
          "internalType": "bytes",
          "name": "_extraData",
          "type": "bytes"
        }
      ],
      "name": "lzReceive",
      "outputs": [],
      "stateMutability": "payable",
      "type": "function"
    },
    {
      "inputs": [
        {
          "components": [
            {
              "components": [
                {
                  "internalType": "uint32",
                  "name": "srcEid",
                  "type": "uint32"
                },
                {
                  "internalType": "bytes32",
                  "name": "sender",
                  "type": "bytes32"
                },
                {
                  "internalType": "uint64",
                  "name": "nonce",
                  "type": "uint64"
                }
              ],
              "internalType": "struct Origin",
              "name": "origin",
              "type": "tuple"
            },
            {
              "internalType": "uint32",
              "name": "dstEid",
              "type": "uint32"
            },
            {
              "internalType": "address",
              "name": "receiver",
              "type": "address"
            },
            {
              "internalType": "bytes32",
              "name": "guid",
              "type": "bytes32"
            },
            {
              "internalType": "uint256",
              "name": "value",
              "type": "uint256"
            },
            {
              "internalType": "address",
              "name": "executor",
              "type": "address"
            },
            {
              "internalType": "bytes",
              "name": "message",
              "type": "bytes"
            },
            {
              "internalType": "bytes",
              "name": "extraData",
              "type": "bytes"
            }
          ],
          "internalType": "struct InboundPacket[]",
          "name": "_packets",
          "type": "tuple[]"
        }
      ],
      "name": "lzReceiveAndRevert",
      "outputs": [],
      "stateMutability": "payable",
      "type": "function"
    },
    {
      "inputs": [
        {
          "components": [
            {
              "internalType": "uint32",
              "name": "srcEid",
              "type": "uint32"
            },
            {
              "internalType": "bytes32",
              "name": "sender",
              "type": "bytes32"
            },
            {
              "internalType": "uint64",
              "name": "nonce",
              "type": "uint64"
            }
          ],
          "internalType": "struct Origin",
          "name": "_origin",
          "type": "tuple"
        },
        {
          "internalType": "bytes32",
          "name": "_guid",
          "type": "bytes32"
        },
        {
          "internalType": "bytes",
          "name": "_message",
          "type": "bytes"
        },
        {
          "internalType": "address",
          "name": "_executor",
          "type": "address"
        },
        {
          "internalType": "bytes",
          "name": "_extraData",
          "type": "bytes"
        }
      ],
      "name": "lzReceiveSimulate",
      "outputs": [],
      "stateMutability": "payable",
      "type": "function"
    },
    {
      "inputs": [],
      "name": "msgInspector",
      "outputs": [
        {
          "internalType": "address",
          "name": "",
          "type": "address"
        }
      ],
      "stateMutability": "view",
      "type": "function"
    },
    {
      "inputs": [
        {
          "internalType": "uint32",
          "name": "",
          "type": "uint32"
        },
        {
          "internalType": "bytes32",
          "name": "",
          "type": "bytes32"
        }
      ],
      "name": "nextNonce",
      "outputs": [
        {
          "internalType": "uint64",
          "name": "nonce",
          "type": "uint64"
        }
      ],
      "stateMutability": "view",
      "type": "function"
    },
    {
      "inputs": [
        {
          "internalType": "uint256",
          "name": "tokenId",
          "type": "uint256"
        }
      ],
      "name": "notifyEnrollment",
      "outputs": [],
      "stateMutability": "nonpayable",
      "type": "function"
    },
    {
      "inputs": [],
      "name": "oApp",
      "outputs": [
        {
          "internalType": "address",
          "name": "",
          "type": "address"
        }
      ],
      "stateMutability": "view",
      "type": "function"
    },
    {
      "inputs": [],
      "name": "oAppVersion",
      "outputs": [
        {
          "internalType": "uint64",
          "name": "senderVersion",
          "type": "uint64"
        },
        {
          "internalType": "uint64",
          "name": "receiverVersion",
          "type": "uint64"
        }
      ],
      "stateMutability": "pure",
      "type": "function"
    },
    {
      "inputs": [],
      "name": "onftVersion",
      "outputs": [
        {
          "internalType": "bytes4",
          "name": "interfaceId",
          "type": "bytes4"
        },
        {
          "internalType": "uint64",
          "name": "version",
          "type": "uint64"
        }
      ],
      "stateMutability": "pure",
      "type": "function"
    },
    {
      "inputs": [],
      "name": "owner",
      "outputs": [
        {
          "internalType": "address",
          "name": "",
          "type": "address"
        }
      ],
      "stateMutability": "view",
      "type": "function"
    },
    {
      "inputs": [
        {
          "internalType": "uint32",
          "name": "eid",
          "type": "uint32"
        }
      ],
      "name": "peers",
      "outputs": [
        {
          "internalType": "bytes32",
          "name": "peer",
          "type": "bytes32"
        }
      ],
      "stateMutability": "view",
      "type": "function"
    },
    {
      "inputs": [],
      "name": "preCrime",
      "outputs": [
        {
          "internalType": "address",
          "name": "",
          "type": "address"
        }
      ],
      "stateMutability": "view",
      "type": "function"
    },
    {
      "inputs": [
        {
          "components": [
            {
              "internalType": "uint32",
              "name": "dstEid",
              "type": "uint32"
            },
            {
              "internalType": "bytes32",
              "name": "to",
              "type": "bytes32"
            },
            {
              "internalType": "uint256",
              "name": "tokenId",
              "type": "uint256"
            },
            {
              "internalType": "bytes",
              "name": "extraOptions",
              "type": "bytes"
            },
            {
              "internalType": "bytes",
              "name": "composeMsg",
              "type": "bytes"
            },
            {
              "internalType": "bytes",
              "name": "onftCmd",
              "type": "bytes"
            }
          ],
          "internalType": "struct SendParam",
          "name": "_sendParam",
          "type": "tuple"
        },
        {
          "internalType": "bool",
          "name": "_payInLzToken",
          "type": "bool"
        }
      ],
      "name": "quoteSend",
      "outputs": [
        {
          "components": [
            {
              "internalType": "uint256",
              "name": "nativeFee",
              "type": "uint256"
            },
            {
              "internalType": "uint256",
              "name": "lzTokenFee",
              "type": "uint256"
            }
          ],
          "internalType": "struct MessagingFee",
          "name": "msgFee",
          "type": "tuple"
        }
      ],
      "stateMutability": "view",
      "type": "function"
    },
    {
      "inputs": [],
      "name": "renounceOwnership",
      "outputs": [],
      "stateMutability": "nonpayable",
      "type": "function"
    },
    {
      "inputs": [
        {
          "internalType": "uint256",
          "name": "tokenId",
          "type": "uint256"
        },
        {
          "internalType": "address",
          "name": "owner",
          "type": "address"
        }
      ],
      "name": "revokeRoyaltyRights",
      "outputs": [],
      "stateMutability": "nonpayable",
      "type": "function"
    },
    {
      "inputs": [
        {
          "internalType": "uint256",
          "name": "tokenId",
          "type": "uint256"
        }
      ],
      "name": "revokeRoyaltyRights",
      "outputs": [],
      "stateMutability": "nonpayable",
      "type": "function"
    },
    {
      "inputs": [
        {
          "internalType": "uint256",
          "name": "",
          "type": "uint256"
        }
      ],
      "name": "rights",
      "outputs": [
        {
          "internalType": "uint256",
          "name": "tokenId",
          "type": "uint256"
        },
        {
          "internalType": "address",
          "name": "owner",
          "type": "address"
        },
        {
          "internalType": "string",
          "name": "signature",
          "type": "string"
        }
      ],
      "stateMutability": "view",
      "type": "function"
    },
    {
      "inputs": [
        {
          "components": [
            {
              "internalType": "uint32",
              "name": "dstEid",
              "type": "uint32"
            },
            {
              "internalType": "bytes32",
              "name": "to",
              "type": "bytes32"
            },
            {
              "internalType": "uint256",
              "name": "tokenId",
              "type": "uint256"
            },
            {
              "internalType": "bytes",
              "name": "extraOptions",
              "type": "bytes"
            },
            {
              "internalType": "bytes",
              "name": "composeMsg",
              "type": "bytes"
            },
            {
              "internalType": "bytes",
              "name": "onftCmd",
              "type": "bytes"
            }
          ],
          "internalType": "struct SendParam",
          "name": "_sendParam",
          "type": "tuple"
        },
        {
          "components": [
            {
              "internalType": "uint256",
              "name": "nativeFee",
              "type": "uint256"
            },
            {
              "internalType": "uint256",
              "name": "lzTokenFee",
              "type": "uint256"
            }
          ],
          "internalType": "struct MessagingFee",
          "name": "_fee",
          "type": "tuple"
        },
        {
          "internalType": "address",
          "name": "_refundAddress",
          "type": "address"
        }
      ],
      "name": "send",
      "outputs": [
        {
          "components": [
            {
              "internalType": "bytes32",
              "name": "guid",
              "type": "bytes32"
            },
            {
              "internalType": "uint64",
              "name": "nonce",
              "type": "uint64"
            },
            {
              "components": [
                {
                  "internalType": "uint256",
                  "name": "nativeFee",
                  "type": "uint256"
                },
                {
                  "internalType": "uint256",
                  "name": "lzTokenFee",
                  "type": "uint256"
                }
              ],
              "internalType": "struct MessagingFee",
              "name": "fee",
              "type": "tuple"
            }
          ],
          "internalType": "struct MessagingReceipt",
          "name": "msgReceipt",
          "type": "tuple"
        }
      ],
      "stateMutability": "payable",
      "type": "function"
    },
    {
      "inputs": [
        {
          "internalType": "address",
          "name": "_delegate",
          "type": "address"
        }
      ],
      "name": "setDelegate",
      "outputs": [],
      "stateMutability": "nonpayable",
      "type": "function"
    },
    {
      "inputs": [
        {
          "components": [
            {
              "internalType": "uint32",
              "name": "eid",
              "type": "uint32"
            },
            {
              "internalType": "uint16",
              "name": "msgType",
              "type": "uint16"
            },
            {
              "internalType": "bytes",
              "name": "options",
              "type": "bytes"
            }
          ],
          "internalType": "struct EnforcedOptionParam[]",
          "name": "_enforcedOptions",
          "type": "tuple[]"
        }
      ],
      "name": "setEnforcedOptions",
      "outputs": [],
      "stateMutability": "nonpayable",
      "type": "function"
    },
    {
      "inputs": [
        {
          "internalType": "address",
          "name": "_msgInspector",
          "type": "address"
        }
      ],
      "name": "setMsgInspector",
      "outputs": [],
      "stateMutability": "nonpayable",
      "type": "function"
    },
    {
      "inputs": [
        {
          "internalType": "uint32",
          "name": "_eid",
          "type": "uint32"
        },
        {
          "internalType": "bytes32",
          "name": "_peer",
          "type": "bytes32"
        }
      ],
      "name": "setPeer",
      "outputs": [],
      "stateMutability": "nonpayable",
      "type": "function"
    },
    {
      "inputs": [
        {
          "internalType": "address",
          "name": "_preCrime",
          "type": "address"
        }
      ],
      "name": "setPreCrime",
      "outputs": [],
      "stateMutability": "nonpayable",
      "type": "function"
    },
    {
      "inputs": [
        {
          "internalType": "uint256",
          "name": "tokenId",
          "type": "uint256"
        },
        {
          "components": [
            {
              "internalType": "uint256",
              "name": "tokenId",
              "type": "uint256"
            },
            {
              "internalType": "address",
              "name": "owner",
              "type": "address"
            },
            {
              "internalType": "string",
              "name": "signature",
              "type": "string"
            }
          ],
          "internalType": "struct Collection.RoyaltyRights",
          "name": "_rights",
          "type": "tuple"
        }
      ],
      "name": "setRoyaltyRights",
      "outputs": [],
      "stateMutability": "nonpayable",
      "type": "function"
    },
    {
      "inputs": [
        {
          "internalType": "uint256",
          "name": "tokenId",
          "type": "uint256"
        },
        {
          "internalType": "address",
          "name": "owner",
          "type": "address"
        },
        {
          "internalType": "string",
          "name": "signature",
          "type": "string"
        }
      ],
      "name": "setRoyaltyRights",
      "outputs": [],
      "stateMutability": "nonpayable",
      "type": "function"
    },
    {
      "inputs": [
        {
          "internalType": "uint256",
          "name": "tokenId",
          "type": "uint256"
        }
      ],
      "name": "stake",
      "outputs": [],
      "stateMutability": "nonpayable",
      "type": "function"
    },
    {
      "inputs": [],
      "name": "token",
      "outputs": [
        {
          "internalType": "address",
          "name": "",
          "type": "address"
        }
      ],
      "stateMutability": "view",
      "type": "function"
    },
    {
      "inputs": [
        {
          "internalType": "address",
          "name": "newOwner",
          "type": "address"
        }
      ],
      "name": "transferOwnership",
      "outputs": [],
      "stateMutability": "nonpayable",
      "type": "function"
    },
    {
      "inputs": [
        {
          "internalType": "uint256",
          "name": "tokenId",
          "type": "uint256"
        }
      ],
      "name": "unstake",
      "outputs": [],
      "stateMutability": "nonpayable",
      "type": "function"
    }
  ],
  "transactionHash": "0xc938a2a1a5618623e93fd758b15df1487735bf2c5c87592427ed35a2964b5c68",
  "args": [
    40161,
    "0xE3eE56B8102457D43beb87fbcC54eeE732E5a3Fc",
    "0x3c649A7A063c067555a089967FCB16CC1dC44Ad4",
    "0x9e1F2c3432ddCe2AAe0f605f38e3234EE6fbC91a",
    "0x6EDCE65403992e310A62460808c4b910D972f10f",
    "0xaaB63b70Ad1fcFf67EB26963EB352C91945B01e2"
  ],
  "numDeployments": 4,
  "solcInputHash": "264aed0d0dd4967bbd5f8623ba4be37e",
  "bytecode": "0x60c06040523480156200001157600080fd5b50604051620034bd380380620034bd8339810160408190526200003491620002c8565b828282818181818181806001600160a01b0381166200006e57604051631e4fbdf760e01b8152600060048201526024015b60405180910390fd5b6200007981620001af565b506001600160a01b038083166080528116620000a857604051632d618d8160e21b815260040160405180910390fd5b60805160405163ca5eb5e160e01b81526001600160a01b0383811660048301529091169063ca5eb5e190602401600060405180830381600087803b158015620000f057600080fd5b505af115801562000105573d6000803e3d6000fd5b5050506001600160a01b0390991660a052506200013a97508d96506200013495508c945050620001ff92505050565b6200020b565b600580546001600160a01b03199081166001600160a01b03958616179091556008805460068054841697871697909717909655600780548316948616949094179093556001600160c01b0319909416600160a01b63ffffffff9790971696909602909316949094179116179091555062000353565b600080546001600160a01b038381166001600160a01b0319831681178455604051919092169283917f8be0079c531659141344cd1fd0a4f28419497f9722a3daafe3b4186f6b6457e09190a35050565b6001600160a01b031690565b6200021562000225565b62000221828262000256565b5050565b6000546001600160a01b03163314620002545760405163118cdaa760e01b815233600482015260240162000065565b565b63ffffffff8216600081815260016020908152604091829020849055815192835282018390527f238399d427b947898edb290f5ff0f9109849b1c3ba196a42e35f00c50a54b98b910160405180910390a15050565b80516001600160a01b0381168114620002c357600080fd5b919050565b60008060008060008060c08789031215620002e257600080fd5b865163ffffffff81168114620002f757600080fd5b95506200030760208801620002ab565b94506200031760408801620002ab565b93506200032760608801620002ab565b92506200033760808801620002ab565b91506200034760a08801620002ab565b90509295509295509295565b60805160a0516130f7620003c66000396000818161071501528181610a55015281816111de0152818161159501526118910152600081816103a80152818161075b01528181611040015281816114970152818161176001528181611a2201528181611d510152611e0a01526130f76000f3fe6080604052600436106102255760003560e01c8063a72f5dd811610123578063c6414e7b116100ab578063ef64ba591161006f578063ef64ba59146106a6578063f2fde38b146106c6578063f58409b9146106e6578063fc0c546a14610706578063ff7bd03d1461073957600080fd5b8063c6414e7b146105f7578063ca5eb5e114610624578063d045a0dc14610644578063d424388514610657578063e9ef21131461067757600080fd5b8063b731ea0a116100f2578063b731ea0a14610549578063b98bd07014610569578063bb0b6a5314610589578063bc70b354146105c4578063bd815db0146105e457600080fd5b8063a72f5dd8146104cc578063abab6b99146104f4578063b21a33e414610514578063b50ecb741461052957600080fd5b80635a0dfe4d116101b157806382413eac1161017557806382413eac1461043a578063850729601461045a5780638da5cb5b1461047a5780639f68b96414610498578063a694fc3a146104ac57600080fd5b80635a0dfe4d146103665780635e280f11146103965780636fc1b31e146103ca578063715018a6146103ea5780637d25a05e146103ff57600080fd5b806321eb730b116101f857806321eb730b146102c65780632e17de78146102e65780633400288b1461030657806352ae2879146103265780635535d4611461033957600080fd5b8063111ecdad1461022a57806313137d651461026757806317442b701461027c5780631f5e13341461029e575b600080fd5b34801561023657600080fd5b5060045461024a906001600160a01b031681565b6040516001600160a01b0390911681526020015b60405180910390f35b61027a610275366004612200565b610759565b005b34801561028857600080fd5b506040805160018152600260208201520161025e565b3480156102aa57600080fd5b506102b3600181565b60405161ffff909116815260200161025e565b6102d96102d43660046122b1565b610819565b60405161025e919061231e565b3480156102f257600080fd5b5061027a610301366004612360565b6108d2565b34801561031257600080fd5b5061027a610321366004612392565b6108e9565b34801561033257600080fd5b503061024a565b34801561034557600080fd5b506103596103543660046123ce565b6108ff565b60405161025e9190612451565b34801561037257600080fd5b50610386610381366004612392565b6109a4565b604051901515815260200161025e565b3480156103a257600080fd5b5061024a7f000000000000000000000000000000000000000000000000000000000000000081565b3480156103d657600080fd5b5061027a6103e5366004612464565b6109c3565b3480156103f657600080fd5b5061027a610a20565b34801561040b57600080fd5b5061042261041a366004612392565b600092915050565b6040516001600160401b03909116815260200161025e565b34801561044657600080fd5b50610386610455366004612481565b610a34565b34801561046657600080fd5b5061027a6104753660046124e7565b610a49565b34801561048657600080fd5b506000546001600160a01b031661024a565b3480156104a457600080fd5b506001610386565b3480156104b857600080fd5b5061027a6104c7366004612360565b610b68565b3480156104d857600080fd5b50604080516311f0c6d360e11b8152600160208201520161025e565b34801561050057600080fd5b5061027a61050f366004612360565b610b7c565b34801561052057600080fd5b506102b3600281565b34801561053557600080fd5b5061027a61054436600461262c565b610c4d565b34801561055557600080fd5b5060025461024a906001600160a01b031681565b34801561057557600080fd5b5061027a610584366004612705565b610c9e565b34801561059557600080fd5b506105b66105a4366004612746565b60016020526000908152604090205481565b60405190815260200161025e565b3480156105d057600080fd5b506103596105df366004612761565b610cb8565b61027a6105f2366004612705565b610e60565b34801561060357600080fd5b506106176106123660046127cf565b610fd3565b60405161025e9190612815565b34801561063057600080fd5b5061027a61063f366004612464565b611019565b61027a610652366004612200565b611098565b34801561066357600080fd5b5061027a610672366004612464565b6110c7565b34801561068357600080fd5b50610697610692366004612360565b61111d565b60405161025e9392919061282c565b3480156106b257600080fd5b5061027a6106c1366004612856565b6111d2565b3480156106d257600080fd5b5061027a6106e1366004612464565b611327565b3480156106f257600080fd5b5061027a610701366004612360565b611362565b34801561071257600080fd5b507f000000000000000000000000000000000000000000000000000000000000000061024a565b34801561074557600080fd5b506103866107543660046128ae565b611398565b7f00000000000000000000000000000000000000000000000000000000000000006001600160a01b031633146107a9576040516391ac5e4f60e01b81523360048201526024015b60405180910390fd5b602087018035906107c3906107be908a612746565b6113ce565b14610801576107d56020880188612746565b60405163309afaf360e21b815263ffffffff9091166004820152602088013560248201526044016107a0565b6108108787878787878761140a565b50505050505050565b6108216120fa565b61083c3360408601356108376020880188612746565b611569565b600080610848866115ee565b909250905061087461085d6020880188612746565b838361086e368a90038a018a6128ca565b8861172d565b805190935033907f986156872b2ee0022b9585231dbbfde457f87f8a16b6c45e1a81c54c4ad8351f6108a960208a018a612746565b6040805163ffffffff9092168252808b013560208301520160405180910390a350509392505050565b6108da611838565b6108e633826000611865565b50565b6108f1611838565b6108fb82826118c0565b5050565b600360209081526000928352604080842090915290825290208054610923906128fc565b80601f016020809104026020016040519081016040528092919081815260200182805461094f906128fc565b801561099c5780601f106109715761010080835404028352916020019161099c565b820191906000526020600020905b81548152906001019060200180831161097f57829003601f168201915b505050505081565b63ffffffff821660009081526001602052604090205481145b92915050565b6109cb611838565b600480546001600160a01b0319166001600160a01b0383169081179091556040519081527ff0be4f1e87349231d80c36b33f9e8639658eeaf474014dee15a3e6a4d4414197906020015b60405180910390a150565b610a28611838565b610a326000611915565b565b6001600160a01b03811630145b949350505050565b806001600160a01b03167f00000000000000000000000000000000000000000000000000000000000000006001600160a01b0316636352211e846040518263ffffffff1660e01b8152600401610aa191815260200190565b602060405180830381865afa158015610abe573d6000803e3d6000fd5b505050506040513d601f19601f82011682018060405250810190610ae29190612930565b6001600160a01b031614610b315760405162461bcd60e51b8152602060048201526016602482015275165bdd48191bdb89dd081bdddb881d1a1a5cc813919560521b60448201526064016107a0565b60008281526009602052604081208181556001810180546001600160a01b031916905590610b626002830182612141565b50505050565b610b70611838565b6108e633826000611569565b6040805180820182526005546001600160a01b03168082526020918201848152835192830191909152518183015281518082038301815260609091019091526000610c03816207a12081610bfb62030d4082610bf460408051600360f01b602082015281516002818303018152602290910190915290565b9190611965565b9291906119cd565b90506000610c26600860149054906101000a900463ffffffff1684846000611a0c565b600854909150610c4690600160a01b900463ffffffff168484843361172d565b5050505050565b60008281526009602090815260409182902083518155908301516001820180546001600160a01b0319166001600160a01b03909216919091179055908201518291906002820190610c469082612995565b610ca6611838565b6108fb610cb38284612a54565b611ae4565b63ffffffff8416600090815260036020908152604080832061ffff87168452909152812080546060929190610cec906128fc565b80601f0160208091040260200160405190810160405280929190818152602001828054610d18906128fc565b8015610d655780601f10610d3a57610100808354040283529160200191610d65565b820191906000526020600020905b815481529060010190602001808311610d4857829003601f168201915b505050505090508051600003610db55783838080601f016020809104026020016040519081016040528093929190818152602001838380828437600092019190915250929450610a419350505050565b6000839003610dc5579050610a41565b60028310610e4357610e0c84848080601f016020809104026020016040519081016040528093929190818152602001838380828437600092019190915250611beb92505050565b80610e1a8460028188612b3c565b604051602001610e2c93929190612b66565b604051602081830303815290604052915050610a41565b8383604051639a6d49cd60e01b81526004016107a0929190612bb7565b60005b81811015610f525736838383818110610e7e57610e7e612bcb565b9050602002810190610e909190612be1565b9050610eac610ea26020830183612746565b60208301356109a4565b610eb65750610f4a565b3063d045a0dc60c08301358360a0810135610ed5610100830183612c02565b610ee6610100890160e08a01612464565b610ef46101208a018a612c02565b6040518963ffffffff1660e01b8152600401610f169796959493929190612c5d565b6000604051808303818588803b158015610f2f57600080fd5b505af1158015610f43573d6000803e3d6000fd5b5050505050505b600101610e63565b50336001600160a01b0316638e9e70996040518163ffffffff1660e01b8152600401600060405180830381865afa158015610f91573d6000803e3d6000fd5b505050506040513d6000823e601f3d908101601f19168201604052610fb99190810190612ce3565b604051638351eea760e01b81526004016107a09190612451565b6040805180820190915260008082526020820152600080610ff3856115ee565b90925090506110106110086020870187612746565b838387611a0c565b95945050505050565b611021611838565b60405163ca5eb5e160e01b81526001600160a01b0382811660048301527f0000000000000000000000000000000000000000000000000000000000000000169063ca5eb5e190602401600060405180830381600087803b15801561108457600080fd5b505af1158015610c46573d6000803e3d6000fd5b3330146110b85760405163029a949d60e31b815260040160405180910390fd5b61081087878787878787610801565b6110cf611838565b600280546001600160a01b0319166001600160a01b0383169081179091556040519081527fd48d879cef83a1c0bdda516f27b13ddb1b3f8bbac1c9e1511bb2a659c242776090602001610a15565b60096020526000908152604090208054600182015460028301805492936001600160a01b039092169261114f906128fc565b80601f016020809104026020016040519081016040528092919081815260200182805461117b906128fc565b80156111c85780601f1061119d576101008083540402835291602001916111c8565b820191906000526020600020905b8154815290600101906020018083116111ab57829003601f168201915b5050505050905083565b816001600160a01b03167f00000000000000000000000000000000000000000000000000000000000000006001600160a01b0316636352211e856040518263ffffffff1660e01b815260040161122a91815260200190565b602060405180830381865afa158015611247573d6000803e3d6000fd5b505050506040513d601f19601f8201168201806040525081019061126b9190612930565b6001600160a01b0316146112ba5760405162461bcd60e51b8152602060048201526016602482015275165bdd48191bdb89dd081bdddb881d1a1a5cc813919560521b60448201526064016107a0565b604080516060810182528481526001600160a01b038481166020808401918252838501868152600089815260099092529490208351815590516001820180546001600160a01b03191691909316179091559151909190600282019061131f9082612995565b505050505050565b61132f611838565b6001600160a01b03811661135957604051631e4fbdf760e01b8152600060048201526024016107a0565b6108e681611915565b60008181526009602052604081208181556001810180546001600160a01b0319169055906113936002830182612141565b505050565b60006020820180359060019083906113b09086612746565b63ffffffff1681526020810191909152604001600020541492915050565b63ffffffff8116600090815260016020526040812054806109bd5760405163f6ff4fb760e01b815263ffffffff841660048201526024016107a0565b600061141c6114198787611c17565b90565b9050600061142a8787611c36565b9050611443828261143e60208d018d612746565b611865565b604086111561150757600061147d61146160608c0160408d01612d50565b61146e60208d018d612746565b6114788b8b611c46565b611c91565b604051633e5ac80960e11b81529091506001600160a01b037f00000000000000000000000000000000000000000000000000000000000000001690637cb59012906114d39086908d906000908790600401612d6d565b600060405180830381600087803b1580156114ed57600080fd5b505af1158015611501573d6000803e3d6000fd5b50505050505b6001600160a01b038216887f7883fa30ea56937810e36990b0bbb8d629d0cf59f68baf8431ff657cebe7eef561154060208d018d612746565b6040805163ffffffff9092168252602082018690520160405180910390a3505050505050505050565b6040516323b872dd60e01b81526001600160a01b038481166004830152306024830152604482018490527f000000000000000000000000000000000000000000000000000000000000000016906323b872dd906064015b600060405180830381600087803b1580156115da57600080fd5b505af1158015610810573d6000803e3d6000fd5b606080602083013561161357604051631e4ec46b60e01b815260040160405180910390fd5b60006116696020850135604086013561162f6080880188612c02565b8080601f016020809104026020016040519081016040528093929190818152602001838380828437600092019190915250611cc092505050565b909350905060008161167c57600161167f565b60025b905061169f6116916020870187612746565b826105df6060890189612c02565b6004549093506001600160a01b031680156117255760405163043a78eb60e01b81526001600160a01b0382169063043a78eb906116e29088908890600401612d9e565b602060405180830381865afa1580156116ff573d6000803e3d6000fd5b505050506040513d601f19601f820116820180604052508101906117239190612dc3565b505b505050915091565b6117356120fa565b60006117448460000151611d25565b60208501519091501561175e5761175e8460200151611d4d565b7f00000000000000000000000000000000000000000000000000000000000000006001600160a01b0316632637a450826040518060a001604052808b63ffffffff1681526020016117ae8c6113ce565b81526020018a815260200189815260200160008960200151111515815250866040518463ffffffff1660e01b81526004016117ea929190612de0565b60806040518083038185885af1158015611808573d6000803e3d6000fd5b50505050506040513d601f19601f8201168201806040525081019061182d9190612e89565b979650505050505050565b6000546001600160a01b03163314610a325760405163118cdaa760e01b81523360048201526024016107a0565b6040516323b872dd60e01b81523060048201526001600160a01b038481166024830152604482018490527f000000000000000000000000000000000000000000000000000000000000000016906323b872dd906064016115c0565b63ffffffff8216600081815260016020908152604091829020849055815192835282018390527f238399d427b947898edb290f5ff0f9109849b1c3ba196a42e35f00c50a54b98b910160405180910390a15050565b600080546001600160a01b038381166001600160a01b0319831681178455604051919092169283917f8be0079c531659141344cd1fd0a4f28419497f9722a3daafe3b4186f6b6457e09190a35050565b6060836003611975826000611e2f565b61ffff16146119a957611989816000611e2f565b604051633a51740d60e01b815261ffff90911660048201526024016107a0565b60006119b58585611e8c565b90506119c386600183611f05565b9695505050505050565b60608460036119dd826000611e2f565b61ffff16146119f157611989816000611e2f565b60006119fe868686611f70565b905061182d87600383611f05565b60408051808201909152600080825260208201527f00000000000000000000000000000000000000000000000000000000000000006001600160a01b031663ddc28c586040518060a001604052808863ffffffff168152602001611a6f896113ce565b8152602001878152602001868152602001851515815250306040518363ffffffff1660e01b8152600401611aa4929190612de0565b6040805180830381865afa158015611ac0573d6000803e3d6000fd5b505050506040513d601f19601f820116820180604052508101906110109190612ed3565b60005b8151811015611bbb57611b16828281518110611b0557611b05612bcb565b602002602001015160400151611beb565b818181518110611b2857611b28612bcb565b60200260200101516040015160036000848481518110611b4a57611b4a612bcb565b60200260200101516000015163ffffffff1663ffffffff1681526020019081526020016000206000848481518110611b8457611b84612bcb565b60200260200101516020015161ffff1661ffff1681526020019081526020016000209081611bb29190612995565b50600101611ae7565b507fbe4864a8e820971c0247f5992e2da559595f7bf076a21cb5928d443d2a13b67481604051610a159190612eef565b600281015161ffff81166003146108fb5781604051639a6d49cd60e01b81526004016107a09190612451565b6000611c266020828486612b3c565b611c2f91612f7a565b9392505050565b6000611c26604060208486612b3c565b6060611c558260408186612b3c565b8080601f016020809104026020016040519081016040528093929190818152602001838380828437600092019190915250929695505050505050565b6060838383604051602001611ca893929190612f98565b60405160208183030381529060405290509392505050565b8051606090151580611cf4576040805160208101879052908101859052606001604051602081830303815290604052611d1b565b84843385604051602001611d0b9493929190612fe2565b6040516020818303038152906040525b9150935093915050565b6000813414611d49576040516304fb820960e51b81523460048201526024016107a0565b5090565b60007f00000000000000000000000000000000000000000000000000000000000000006001600160a01b031663e4fe1d946040518163ffffffff1660e01b8152600401602060405180830381865afa158015611dad573d6000803e3d6000fd5b505050506040513d601f19601f82011682018060405250810190611dd19190612930565b90506001600160a01b038116611dfa576040516329b99a9560e11b815260040160405180910390fd5b6108fb6001600160a01b038216337f000000000000000000000000000000000000000000000000000000000000000085612000565b6000611e3c82600261302c565b83511015611e835760405162461bcd60e51b8152602060048201526014602482015273746f55696e7431365f6f75744f66426f756e647360601b60448201526064016107a0565b50016002015190565b60606001600160801b03821615611ed457604080516001600160801b0319608086811b8216602084015285901b16603082015201604051602081830303815290604052611c2f565b6040516001600160801b0319608085901b166020820152603001604051602081830303815290604052905092915050565b6060836003611f15826000611e2f565b61ffff1614611f2957611989816000611e2f565b846001611f36855161205a565b611f4190600161303f565b8686604051602001611f5795949392919061305a565b6040516020818303038152906040529150509392505050565b60606001600160801b03821615611fcd576040516001600160f01b031960f086901b1660208201526001600160801b0319608085811b8216602284015284901b166032820152604201604051602081830303815290604052610a41565b6040516001600160f01b031960f086901b1660208201526001600160801b0319608085901b166022820152603201611ca8565b604080516001600160a01b0385811660248301528416604482015260648082018490528251808303909101815260849091019091526020810180516001600160e01b03166323b872dd60e01b179052610b62908590612089565b600061ffff821115611d49576040516306dfcc6560e41b815260106004820152602481018390526044016107a0565b600080602060008451602086016000885af1806120ac576040513d6000823e3d81fd5b50506000513d915081156120c45780600114156120d1565b6001600160a01b0384163b155b15610b6257604051635274afe760e01b81526001600160a01b03851660048201526024016107a0565b60405180606001604052806000801916815260200160006001600160401b0316815260200161213c604051806040016040528060008152602001600081525090565b905290565b50805461214d906128fc565b6000825580601f1061215d575050565b601f0160209004906000526020600020908101906108e691905b80821115611d495760008155600101612177565b60006060828403121561219d57600080fd5b50919050565b60008083601f8401126121b557600080fd5b5081356001600160401b038111156121cc57600080fd5b6020830191508360208285010111156121e457600080fd5b9250929050565b6001600160a01b03811681146108e657600080fd5b600080600080600080600060e0888a03121561221b57600080fd5b612225898961218b565b96506060880135955060808801356001600160401b038082111561224857600080fd5b6122548b838c016121a3565b909750955060a08a01359150612269826121eb565b90935060c0890135908082111561227f57600080fd5b5061228c8a828b016121a3565b989b979a50959850939692959293505050565b600060c0828403121561219d57600080fd5b600080600083850360808112156122c757600080fd5b84356001600160401b038111156122dd57600080fd5b6122e98782880161229f565b9450506040601f19820112156122fe57600080fd5b506020840191506060840135612313816121eb565b809150509250925092565b6000608082019050825182526001600160401b0360208401511660208301526040830151612359604084018280518252602090810151910152565b5092915050565b60006020828403121561237257600080fd5b5035919050565b803563ffffffff8116811461238d57600080fd5b919050565b600080604083850312156123a557600080fd5b6123ae83612379565b946020939093013593505050565b803561ffff8116811461238d57600080fd5b600080604083850312156123e157600080fd5b6123ea83612379565b91506123f8602084016123bc565b90509250929050565b60005b8381101561241c578181015183820152602001612404565b50506000910152565b6000815180845261243d816020860160208601612401565b601f01601f19169290920160200192915050565b602081526000611c2f6020830184612425565b60006020828403121561247657600080fd5b8135611c2f816121eb565b60008060008060a0858703121561249757600080fd5b6124a1868661218b565b935060608501356001600160401b038111156124bc57600080fd5b6124c8878288016121a3565b90945092505060808501356124dc816121eb565b939692955090935050565b600080604083850312156124fa57600080fd5b82359150602083013561250c816121eb565b809150509250929050565b634e487b7160e01b600052604160045260246000fd5b604051606081016001600160401b038111828210171561254f5761254f612517565b60405290565b604080519081016001600160401b038111828210171561254f5761254f612517565b604051601f8201601f191681016001600160401b038111828210171561259f5761259f612517565b604052919050565b60006001600160401b038211156125c0576125c0612517565b50601f01601f191660200190565b60006125e16125dc846125a7565b612577565b90508281528383830111156125f557600080fd5b828260208301376000602084830101529392505050565b600082601f83011261261d57600080fd5b611c2f838335602085016125ce565b6000806040838503121561263f57600080fd5b8235915060208301356001600160401b038082111561265d57600080fd5b908401906060828703121561267157600080fd5b61267961252d565b82358152602083013561268b816121eb565b60208201526040830135828111156126a257600080fd5b6126ae8882860161260c565b6040830152508093505050509250929050565b60008083601f8401126126d357600080fd5b5081356001600160401b038111156126ea57600080fd5b6020830191508360208260051b85010111156121e457600080fd5b6000806020838503121561271857600080fd5b82356001600160401b0381111561272e57600080fd5b61273a858286016126c1565b90969095509350505050565b60006020828403121561275857600080fd5b611c2f82612379565b6000806000806060858703121561277757600080fd5b61278085612379565b935061278e602086016123bc565b925060408501356001600160401b038111156127a957600080fd5b6127b5878288016121a3565b95989497509550505050565b80151581146108e657600080fd5b600080604083850312156127e257600080fd5b82356001600160401b038111156127f857600080fd5b6128048582860161229f565b925050602083013561250c816127c1565b8151815260208083015190820152604081016109bd565b8381526001600160a01b038316602082015260606040820181905260009061101090830184612425565b60008060006060848603121561286b57600080fd5b83359250602084013561287d816121eb565b915060408401356001600160401b0381111561289857600080fd5b6128a48682870161260c565b9150509250925092565b6000606082840312156128c057600080fd5b611c2f838361218b565b6000604082840312156128dc57600080fd5b6128e4612555565b82358152602083013560208201528091505092915050565b600181811c9082168061291057607f821691505b60208210810361219d57634e487b7160e01b600052602260045260246000fd5b60006020828403121561294257600080fd5b8151611c2f816121eb565b601f821115611393576000816000526020600020601f850160051c810160208610156129765750805b601f850160051c820191505b8181101561131f57828155600101612982565b81516001600160401b038111156129ae576129ae612517565b6129c2816129bc84546128fc565b8461294d565b602080601f8311600181146129f757600084156129df5750858301515b600019600386901b1c1916600185901b17855561131f565b600085815260208120601f198616915b82811015612a2657888601518255948401946001909101908401612a07565b5085821015612a445787850151600019600388901b60f8161c191681555b5050505050600190811b01905550565b60006001600160401b0380841115612a6e57612a6e612517565b8360051b6020612a7f818301612577565b868152918501918181019036841115612a9757600080fd5b865b84811015612b3057803586811115612ab15760008081fd5b88016060368290031215612ac55760008081fd5b612acd61252d565b612ad682612379565b8152612ae38683016123bc565b8682015260408083013589811115612afb5760008081fd5b929092019136601f840112612b105760008081fd5b612b1e3684358986016125ce565b90820152845250918301918301612a99565b50979650505050505050565b60008085851115612b4c57600080fd5b83861115612b5957600080fd5b5050820193919092039150565b60008451612b78818460208901612401565b8201838582376000930192835250909392505050565b81835281816020850137506000828201602090810191909152601f909101601f19169091010190565b602081526000610a41602083018486612b8e565b634e487b7160e01b600052603260045260246000fd5b6000823561013e19833603018112612bf857600080fd5b9190910192915050565b6000808335601e19843603018112612c1957600080fd5b8301803591506001600160401b03821115612c3357600080fd5b6020019150368190038213156121e457600080fd5b6001600160401b03811681146108e657600080fd5b63ffffffff612c6b89612379565b1681526020880135602082015260006040890135612c8881612c48565b6001600160401b03811660408401525087606083015260e06080830152612cb360e083018789612b8e565b6001600160a01b03861660a084015282810360c0840152612cd5818587612b8e565b9a9950505050505050505050565b600060208284031215612cf557600080fd5b81516001600160401b03811115612d0b57600080fd5b8201601f81018413612d1c57600080fd5b8051612d2a6125dc826125a7565b818152856020838501011115612d3f57600080fd5b611010826020830160208601612401565b600060208284031215612d6257600080fd5b8135611c2f81612c48565b60018060a01b038516815283602082015261ffff831660408201526080606082015260006119c36080830184612425565b604081526000612db16040830185612425565b82810360208401526110108185612425565b600060208284031215612dd557600080fd5b8151611c2f816127c1565b6040815263ffffffff8351166040820152602083015160608201526000604084015160a06080840152612e1660e0840182612425565b90506060850151603f198483030160a0850152612e338282612425565b60809690960151151560c08501525050506001600160a01b039190911660209091015290565b600060408284031215612e6b57600080fd5b612e73612555565b9050815181526020820151602082015292915050565b600060808284031215612e9b57600080fd5b612ea361252d565b825181526020830151612eb581612c48565b6020820152612ec78460408501612e59565b60408201529392505050565b600060408284031215612ee557600080fd5b611c2f8383612e59565b600060208083018184528085518083526040925060408601915060408160051b87010184880160005b83811015612f6c57888303603f190185528151805163ffffffff1684528781015161ffff16888501528601516060878501819052612f5881860183612425565b968901969450505090860190600101612f18565b509098975050505050505050565b803560208310156109bd57600019602084900360031b1b1692915050565b60c084901b6001600160c01b031916815260e083901b6001600160e01b03191660088201528151600090612fd381600c850160208701612401565b91909101600c01949350505050565b84815283602082015282604082015260008251613006816060850160208701612401565b9190910160600195945050505050565b634e487b7160e01b600052601160045260246000fd5b808201808211156109bd576109bd613016565b61ffff81811683821601908082111561235957612359613016565b6000865161306c818460208b01612401565b6001600160f81b031960f888811b82169285019283526001600160f01b031960f089901b16600184015286901b16600382015283516130b2816004840160208801612401565b0160040197965050505050505056fea26469706673582212207ee0be39607abcb97004150e772f51d0da55d816ef5da3fbe3475ebd7d0646f164736f6c63430008160033",
  "devdoc": {
    "errors": {
      "OwnableInvalidOwner(address)": [
        {
          "details": "The owner is not a valid owner account. (eg. `address(0)`)"
        }
      ],
      "OwnableUnauthorizedAccount(address)": [
        {
          "details": "The caller account is not authorized to perform an operation."
        }
      ],
      "SafeCastOverflowedUintDowncast(uint8,uint256)": [
        {
          "details": "Value doesn't fit in an uint of `bits` size."
        }
      ],
      "SafeERC20FailedOperation(address)": [
        {
          "details": "An operation with an ERC-20 token failed."
        }
      ]
    },
    "events": {
      "PreCrimeSet(address)": {
        "details": "Emitted when the preCrime contract address is set.",
        "params": {
          "preCrimeAddress": "The address of the preCrime contract."
        }
      }
    },
    "kind": "dev",
    "methods": {
      "allowInitializePath((uint32,bytes32,uint64))": {
        "details": "This indicates to the endpoint that the OApp has enabled msgs for this particular path to be received.This defaults to assuming if a peer has been set, its initialized. Can be overridden by the OApp if there is other logic to determine this.",
        "params": {
          "origin": "The origin information containing the source endpoint and sender address."
        },
        "returns": {
          "_0": "Whether the path has been initialized."
        }
      },
      "approvalRequired()": {
        "details": "In the case of ONFT where the contract IS the token, approval is NOT required.",
        "returns": {
          "_0": "requiresApproval Needs approval of the underlying token implementation."
        }
      },
      "combineOptions(uint32,uint16,bytes)": {
        "details": "If there is an enforced lzReceive option: - {gasLimit: 200k, msg.value: 1 ether} AND a caller supplies a lzReceive option: {gasLimit: 100k, msg.value: 0.5 ether} - The resulting options will be {gasLimit: 300k, msg.value: 1.5 ether} when the message is executed on the remote lzReceive() function.This presence of duplicated options is handled off-chain in the verifier/executor.",
        "params": {
          "_eid": "The endpoint ID.",
          "_extraOptions": "Additional options passed by the caller.",
          "_msgType": "The OAPP message type."
        },
        "returns": {
          "_0": "options The combination of caller specified options AND enforced options."
        }
      },
      "isComposeMsgSender((uint32,bytes32,uint64),bytes,address)": {
        "details": "_origin The origin information containing the source endpoint and sender address.  - srcEid: The source chain endpoint ID.  - sender: The sender address on the src chain.  - nonce: The nonce of the message._message The lzReceive payload.Applications can optionally choose to implement separate composeMsg senders that are NOT the bridging layer.The default sender IS the OAppReceiver implementer.",
        "params": {
          "_sender": "The sender address."
        },
        "returns": {
          "_0": "isSender Is a valid sender."
        }
      },
      "isPeer(uint32,bytes32)": {
        "details": "Check if the peer is considered 'trusted' by the OApp.Enables OAppPreCrimeSimulator to check whether a potential Inbound Packet is from a trusted source.",
        "params": {
          "_eid": "The endpoint ID to check.",
          "_peer": "The peer to check."
        },
        "returns": {
          "_0": "Whether the peer passed is considered 'trusted' by the OApp."
        }
      },
      "lzReceive((uint32,bytes32,uint64),bytes32,bytes,address,bytes)": {
        "details": "Entry point for receiving messages or packets from the endpoint.Entry point for receiving msg/packet from the LayerZero endpoint.",
        "params": {
          "_executor": "The address of the executor for the received message.",
          "_extraData": "Additional arbitrary data provided by the corresponding executor.",
          "_guid": "The unique identifier for the received LayerZero message.",
          "_message": "The payload of the received message.",
          "_origin": "The origin information containing the source endpoint and sender address.  - srcEid: The source chain endpoint ID.  - sender: The sender address on the src chain.  - nonce: The nonce of the message."
        }
      },
      "lzReceiveAndRevert(((uint32,bytes32,uint64),uint32,address,bytes32,uint256,address,bytes,bytes)[])": {
        "details": "Interface for pre-crime simulations. Always reverts at the end with the simulation results.WARNING: MUST revert at the end with the simulation results.Gives the preCrime implementation the ability to mock sending packets to the lzReceive function, WITHOUT actually executing them.",
        "params": {
          "_packets": "An array of InboundPacket objects representing received packets to be delivered."
        }
      },
      "lzReceiveSimulate((uint32,bytes32,uint64),bytes32,bytes,address,bytes)": {
        "details": "Is effectively an internal function because msg.sender must be address(this). Allows resetting the call stack for 'internal' calls.",
        "params": {
          "_executor": "The executor address for the packet.",
          "_extraData": "Additional data for the packet.",
          "_guid": "The unique identifier of the packet.",
          "_message": "The message payload of the packet.",
          "_origin": "The origin information containing the source endpoint and sender address.  - srcEid: The source chain endpoint ID.  - sender: The sender address on the src chain.  - nonce: The nonce of the message."
        }
      },
      "nextNonce(uint32,bytes32)": {
        "details": "_srcEid The source endpoint ID._sender The sender address.The path nonce starts from 1. If 0 is returned it means that there is NO nonce ordered enforcement.Is required by the off-chain executor to determine the OApp expects msg execution is ordered.This is also enforced by the OApp.By default this is NOT enabled. ie. nextNonce is hardcoded to return 0.",
        "returns": {
          "nonce": "The next nonce."
        }
      },
      "oApp()": {
        "details": "Retrieves the address of the OApp contract.The simulator contract is the base contract for the OApp by default.If the simulator is a separate contract, override this function.",
        "returns": {
          "_0": "The address of the OApp contract."
        }
      },
      "oAppVersion()": {
        "returns": {
          "receiverVersion": "The version of the OAppReceiver.sol implementation.",
          "senderVersion": "The version of the OAppSender.sol implementation."
        }
      },
      "onftVersion()": {
        "details": "version: Indicates a cross-chain compatible msg encoding with other ONFTs.If a new feature is added to the ONFT cross-chain msg encoding, the version will be incremented.ie. localONFT version(x,1) CAN send messages to remoteONFT version(x,1)",
        "returns": {
          "interfaceId": "The interface ID (0x23e18da6).",
          "version": "The version."
        }
      },
      "owner()": {
        "details": "Returns the address of the current owner."
      },
      "quoteSend((uint32,bytes32,uint256,bytes,bytes,bytes),bool)": {
        "details": "MessagingFee: LayerZero msg fee  - nativeFee: The native fee.  - lzTokenFee: The lzToken fee.",
        "params": {
          "_payInLzToken": "Flag indicating whether the caller is paying in the LZ token.",
          "_sendParam": "The parameters for the send() operation."
        },
        "returns": {
          "msgFee": "fee The calculated LayerZero messaging fee from the send() operation."
        }
      },
      "renounceOwnership()": {
        "details": "Leaves the contract without owner. It will not be possible to call `onlyOwner` functions. Can only be called by the current owner. NOTE: Renouncing ownership will leave the contract without an owner, thereby disabling any functionality that is only available to the owner."
      },
      "send((uint32,bytes32,uint256,bytes,bytes,bytes),(uint256,uint256),address)": {
        "details": "MessagingReceipt: LayerZero msg receipt  - guid: The unique identifier for the sent message.  - nonce: The nonce of the sent message.  - fee: The LayerZero fee incurred for the message.",
        "params": {
          "_fee": "The fee information supplied by the caller.      - nativeFee: The native fee.      - lzTokenFee: The lzToken fee.",
          "_refundAddress": "The address to receive any excess funds from fees etc. on the src.",
          "_sendParam": "The parameters for the send operation."
        },
        "returns": {
          "msgReceipt": "receipt The LayerZero messaging receipt from the send() operation."
        }
      },
      "setDelegate(address)": {
        "details": "Only the owner/admin of the OApp can call this function.Provides the ability for a delegate to set configs, on behalf of the OApp, directly on the Endpoint contract.",
        "params": {
          "_delegate": "The address of the delegate to be set."
        }
      },
      "setEnforcedOptions((uint32,uint16,bytes)[])": {
        "details": "Sets the enforced options for specific endpoint and message type combinations.Only the owner/admin of the OApp can call this function.Provides a way for the OApp to enforce things like paying for PreCrime, AND/OR minimum dst lzReceive gas amounts etc.These enforced options can vary as the potential options/execution on the remote may differ as per the msgType. eg. Amount of lzReceive() gas necessary to deliver a lzCompose() message adds overhead you dont want to pay if you are only making a standard LayerZero message ie. lzReceive() WITHOUT sendCompose().",
        "params": {
          "_enforcedOptions": "An array of EnforcedOptionParam structures specifying enforced options."
        }
      },
      "setMsgInspector(address)": {
        "details": "This is an optional contract that can be used to inspect both 'message' and 'options'.Set it to address(0) to disable it, or set it to a contract address to enable it.",
        "params": {
          "_msgInspector": "The address of the message inspector."
        }
      },
      "setPeer(uint32,bytes32)": {
        "details": "Only the owner/admin of the OApp can call this function.Indicates that the peer is trusted to send LayerZero messages to this OApp.Set this to bytes32(0) to remove the peer address.Peer is a bytes32 to accommodate non-evm chains.",
        "params": {
          "_eid": "The endpoint ID.",
          "_peer": "The address of the peer to be associated with the corresponding endpoint."
        }
      },
      "setPreCrime(address)": {
        "details": "Sets the preCrime contract address.",
        "params": {
          "_preCrime": "The address of the preCrime contract."
        }
      },
      "transferOwnership(address)": {
        "details": "Transfers ownership of the contract to a new account (`newOwner`). Can only be called by the current owner."
      }
    },
    "version": 1
  },
  "userdoc": {
    "kind": "user",
    "methods": {
      "allowInitializePath((uint32,bytes32,uint64))": {
        "notice": "Checks if the path initialization is allowed based on the provided origin."
      },
      "approvalRequired()": {
        "notice": "Indicates whether the ONFT721 contract requires approval of the 'token()' to send."
      },
      "combineOptions(uint32,uint16,bytes)": {
        "notice": "Combines options for a given endpoint and message type."
      },
      "endpoint()": {
        "notice": "Retrieves the LayerZero endpoint associated with the OApp."
      },
      "isComposeMsgSender((uint32,bytes32,uint64),bytes,address)": {
        "notice": "Indicates whether an address is an approved composeMsg sender to the Endpoint."
      },
      "nextNonce(uint32,bytes32)": {
        "notice": "Retrieves the next nonce for a given source endpoint and sender address."
      },
      "oAppVersion()": {
        "notice": "Retrieves the OApp version information."
      },
      "onftVersion()": {
        "notice": "Retrieves interfaceID and the version of the ONFT."
      },
      "peers(uint32)": {
        "notice": "Retrieves the peer (OApp) associated with a corresponding endpoint."
      },
      "quoteSend((uint32,bytes32,uint256,bytes,bytes,bytes),bool)": {
        "notice": "Provides a quote for the send() operation."
      },
      "send((uint32,bytes32,uint256,bytes,bytes,bytes),(uint256,uint256),address)": {
        "notice": "Executes the send() operation."
      },
      "setDelegate(address)": {
        "notice": "Sets the delegate address for the OApp."
      },
      "setMsgInspector(address)": {
        "notice": "Sets the message inspector address for the OFT."
      },
      "setPeer(uint32,bytes32)": {
        "notice": "Sets the peer address (OApp instance) for a corresponding endpoint."
      },
      "token()": {
        "notice": "Retrieves the address of the underlying ERC721 implementation (ie. external contract)."
      }
    },
    "version": 1
  },
  "storageLayout": {
    "storage": [
      {
        "astId": 6888,
        "contract": "contracts/Collection.sol:Collection",
        "label": "_owner",
        "offset": 0,
        "slot": "0",
        "type": "t_address"
      },
      {
        "astId": 3145,
        "contract": "contracts/Collection.sol:Collection",
        "label": "peers",
        "offset": 0,
        "slot": "1",
        "type": "t_mapping(t_uint32,t_bytes32)"
      },
      {
        "astId": 4329,
        "contract": "contracts/Collection.sol:Collection",
        "label": "preCrime",
        "offset": 0,
        "slot": "2",
        "type": "t_address"
      },
      {
        "astId": 3761,
        "contract": "contracts/Collection.sol:Collection",
        "label": "enforcedOptions",
        "offset": 0,
        "slot": "3",
        "type": "t_mapping(t_uint32,t_mapping(t_uint16,t_bytes_storage))"
      },
      {
        "astId": 6283,
        "contract": "contracts/Collection.sol:Collection",
        "label": "msgInspector",
        "offset": 0,
        "slot": "4",
        "type": "t_address"
      },
      {
        "astId": 13192,
        "contract": "contracts/Collection.sol:Collection",
        "label": "tokenAddress",
        "offset": 0,
        "slot": "5",
        "type": "t_address"
      },
      {
        "astId": 13194,
        "contract": "contracts/Collection.sol:Collection",
        "label": "curator",
        "offset": 0,
        "slot": "6",
        "type": "t_address"
      },
      {
        "astId": 13196,
        "contract": "contracts/Collection.sol:Collection",
        "label": "lzEndpoint",
        "offset": 0,
        "slot": "7",
        "type": "t_address"
      },
      {
        "astId": 13198,
        "contract": "contracts/Collection.sol:Collection",
        "label": "delegate",
        "offset": 0,
        "slot": "8",
        "type": "t_address"
      },
      {
        "astId": 13200,
        "contract": "contracts/Collection.sol:Collection",
        "label": "galleryEid",
        "offset": 20,
        "slot": "8",
        "type": "t_uint32"
      },
      {
        "astId": 13212,
        "contract": "contracts/Collection.sol:Collection",
        "label": "rights",
        "offset": 0,
        "slot": "9",
        "type": "t_mapping(t_uint256,t_struct(RoyaltyRights)13207_storage)"
      }
    ],
    "types": {
      "t_address": {
        "encoding": "inplace",
        "label": "address",
        "numberOfBytes": "20"
      },
      "t_bytes32": {
        "encoding": "inplace",
        "label": "bytes32",
        "numberOfBytes": "32"
      },
      "t_bytes_storage": {
        "encoding": "bytes",
        "label": "bytes",
        "numberOfBytes": "32"
      },
      "t_mapping(t_uint16,t_bytes_storage)": {
        "encoding": "mapping",
        "key": "t_uint16",
        "label": "mapping(uint16 => bytes)",
        "numberOfBytes": "32",
        "value": "t_bytes_storage"
      },
      "t_mapping(t_uint256,t_struct(RoyaltyRights)13207_storage)": {
        "encoding": "mapping",
        "key": "t_uint256",
        "label": "mapping(uint256 => struct Collection.RoyaltyRights)",
        "numberOfBytes": "32",
        "value": "t_struct(RoyaltyRights)13207_storage"
      },
      "t_mapping(t_uint32,t_bytes32)": {
        "encoding": "mapping",
        "key": "t_uint32",
        "label": "mapping(uint32 => bytes32)",
        "numberOfBytes": "32",
        "value": "t_bytes32"
      },
      "t_mapping(t_uint32,t_mapping(t_uint16,t_bytes_storage))": {
        "encoding": "mapping",
        "key": "t_uint32",
        "label": "mapping(uint32 => mapping(uint16 => bytes))",
        "numberOfBytes": "32",
        "value": "t_mapping(t_uint16,t_bytes_storage)"
      },
      "t_string_storage": {
        "encoding": "bytes",
        "label": "string",
        "numberOfBytes": "32"
      },
      "t_struct(RoyaltyRights)13207_storage": {
        "encoding": "inplace",
        "label": "struct Collection.RoyaltyRights",
        "members": [
          {
            "astId": 13202,
            "contract": "contracts/Collection.sol:Collection",
            "label": "tokenId",
            "offset": 0,
            "slot": "0",
            "type": "t_uint256"
          },
          {
            "astId": 13204,
            "contract": "contracts/Collection.sol:Collection",
            "label": "owner",
            "offset": 0,
            "slot": "1",
            "type": "t_address"
          },
          {
            "astId": 13206,
            "contract": "contracts/Collection.sol:Collection",
            "label": "signature",
            "offset": 0,
            "slot": "2",
            "type": "t_string_storage"
          }
        ],
        "numberOfBytes": "96"
      },
      "t_uint16": {
        "encoding": "inplace",
        "label": "uint16",
        "numberOfBytes": "2"
      },
      "t_uint256": {
        "encoding": "inplace",
        "label": "uint256",
        "numberOfBytes": "32"
      },
      "t_uint32": {
        "encoding": "inplace",
        "label": "uint32",
        "numberOfBytes": "4"
      }
    }
  }
}