{
  "address": "0xb7Ea46D1BDF00a7aa244010e66387b936BBE17f5",
  "abi": [
    {
      "inputs": [
        {
          "internalType": "address",
          "name": "_curator",
          "type": "address"
        },
        {
          "internalType": "address",
          "name": "_token",
          "type": "address"
        },
        {
          "internalType": "address",
          "name": "_lzEndpoint",
          "type": "address"
        },
        {
          "internalType": "address",
          "name": "_delegate",
          "type": "address"
        }
      ],
      "stateMutability": "nonpayable",
      "type": "constructor"
    },
    {
      "inputs": [],
      "name": "InvalidDelegate",
      "type": "error"
    },
    {
      "inputs": [],
      "name": "InvalidEndpointCall",
      "type": "error"
    },
    {
      "inputs": [
        {
          "internalType": "bytes",
          "name": "options",
          "type": "bytes"
        }
      ],
      "name": "InvalidOptions",
      "type": "error"
    },
    {
      "inputs": [],
      "name": "InvalidReceiver",
      "type": "error"
    },
    {
      "inputs": [],
      "name": "LzTokenUnavailable",
      "type": "error"
    },
    {
      "inputs": [
        {
          "internalType": "uint32",
          "name": "eid",
          "type": "uint32"
        }
      ],
      "name": "NoPeer",
      "type": "error"
    },
    {
      "inputs": [
        {
          "internalType": "uint256",
          "name": "msgValue",
          "type": "uint256"
        }
      ],
      "name": "NotEnoughNative",
      "type": "error"
    },
    {
      "inputs": [
        {
          "internalType": "address",
          "name": "addr",
          "type": "address"
        }
      ],
      "name": "OnlyEndpoint",
      "type": "error"
    },
    {
      "inputs": [
        {
          "internalType": "address",
          "name": "caller",
          "type": "address"
        },
        {
          "internalType": "address",
          "name": "owner",
          "type": "address"
        }
      ],
      "name": "OnlyNFTOwner",
      "type": "error"
    },
    {
      "inputs": [
        {
          "internalType": "uint32",
          "name": "eid",
          "type": "uint32"
        },
        {
          "internalType": "bytes32",
          "name": "sender",
          "type": "bytes32"
        }
      ],
      "name": "OnlyPeer",
      "type": "error"
    },
    {
      "inputs": [],
      "name": "OnlySelf",
      "type": "error"
    },
    {
      "inputs": [
        {
          "internalType": "address",
          "name": "owner",
          "type": "address"
        }
      ],
      "name": "OwnableInvalidOwner",
      "type": "error"
    },
    {
      "inputs": [
        {
          "internalType": "address",
          "name": "account",
          "type": "address"
        }
      ],
      "name": "OwnableUnauthorizedAccount",
      "type": "error"
    },
    {
      "inputs": [
        {
          "internalType": "address",
          "name": "token",
          "type": "address"
        }
      ],
      "name": "SafeERC20FailedOperation",
      "type": "error"
    },
    {
      "inputs": [
        {
          "internalType": "bytes",
          "name": "result",
          "type": "bytes"
        }
      ],
      "name": "SimulationResult",
      "type": "error"
    },
    {
      "anonymous": false,
      "inputs": [
        {
          "components": [
            {
              "internalType": "uint32",
              "name": "eid",
              "type": "uint32"
            },
            {
              "internalType": "uint16",
              "name": "msgType",
              "type": "uint16"
            },
            {
              "internalType": "bytes",
              "name": "options",
              "type": "bytes"
            }
          ],
          "indexed": false,
          "internalType": "struct EnforcedOptionParam[]",
          "name": "_enforcedOptions",
          "type": "tuple[]"
        }
      ],
      "name": "EnforcedOptionSet",
      "type": "event"
    },
    {
      "anonymous": false,
      "inputs": [
        {
          "indexed": false,
          "internalType": "address",
          "name": "inspector",
          "type": "address"
        }
      ],
      "name": "MsgInspectorSet",
      "type": "event"
    },
    {
      "anonymous": false,
      "inputs": [
        {
          "indexed": true,
          "internalType": "bytes32",
          "name": "guid",
          "type": "bytes32"
        },
        {
          "indexed": false,
          "internalType": "uint32",
          "name": "srcEid",
          "type": "uint32"
        },
        {
          "indexed": true,
          "internalType": "address",
          "name": "toAddress",
          "type": "address"
        },
        {
          "indexed": false,
          "internalType": "uint256",
          "name": "tokenId",
          "type": "uint256"
        }
      ],
      "name": "ONFTReceived",
      "type": "event"
    },
    {
      "anonymous": false,
      "inputs": [
        {
          "indexed": true,
          "internalType": "bytes32",
          "name": "guid",
          "type": "bytes32"
        },
        {
          "indexed": false,
          "internalType": "uint32",
          "name": "dstEid",
          "type": "uint32"
        },
        {
          "indexed": true,
          "internalType": "address",
          "name": "fromAddress",
          "type": "address"
        },
        {
          "indexed": false,
          "internalType": "uint256",
          "name": "tokenId",
          "type": "uint256"
        }
      ],
      "name": "ONFTSent",
      "type": "event"
    },
    {
      "anonymous": false,
      "inputs": [
        {
          "indexed": true,
          "internalType": "address",
          "name": "previousOwner",
          "type": "address"
        },
        {
          "indexed": true,
          "internalType": "address",
          "name": "newOwner",
          "type": "address"
        }
      ],
      "name": "OwnershipTransferred",
      "type": "event"
    },
    {
      "anonymous": false,
      "inputs": [
        {
          "indexed": false,
          "internalType": "uint32",
          "name": "eid",
          "type": "uint32"
        },
        {
          "indexed": false,
          "internalType": "bytes32",
          "name": "peer",
          "type": "bytes32"
        }
      ],
      "name": "PeerSet",
      "type": "event"
    },
    {
      "anonymous": false,
      "inputs": [
        {
          "indexed": false,
          "internalType": "address",
          "name": "preCrimeAddress",
          "type": "address"
        }
      ],
      "name": "PreCrimeSet",
      "type": "event"
    },
    {
      "inputs": [],
      "name": "SEND",
      "outputs": [
        {
          "internalType": "uint16",
          "name": "",
          "type": "uint16"
        }
      ],
      "stateMutability": "view",
      "type": "function"
    },
    {
      "inputs": [],
      "name": "SEND_AND_COMPOSE",
      "outputs": [
        {
          "internalType": "uint16",
          "name": "",
          "type": "uint16"
        }
      ],
      "stateMutability": "view",
      "type": "function"
    },
    {
      "inputs": [
        {
          "components": [
            {
              "internalType": "uint32",
              "name": "srcEid",
              "type": "uint32"
            },
            {
              "internalType": "bytes32",
              "name": "sender",
              "type": "bytes32"
            },
            {
              "internalType": "uint64",
              "name": "nonce",
              "type": "uint64"
            }
          ],
          "internalType": "struct Origin",
          "name": "origin",
          "type": "tuple"
        }
      ],
      "name": "allowInitializePath",
      "outputs": [
        {
          "internalType": "bool",
          "name": "",
          "type": "bool"
        }
      ],
      "stateMutability": "view",
      "type": "function"
    },
    {
      "inputs": [],
      "name": "approvalRequired",
      "outputs": [
        {
          "internalType": "bool",
          "name": "",
          "type": "bool"
        }
      ],
      "stateMutability": "pure",
      "type": "function"
    },
    {
      "inputs": [
        {
          "internalType": "uint32",
          "name": "_eid",
          "type": "uint32"
        },
        {
          "internalType": "uint16",
          "name": "_msgType",
          "type": "uint16"
        },
        {
          "internalType": "bytes",
          "name": "_extraOptions",
          "type": "bytes"
        }
      ],
      "name": "combineOptions",
      "outputs": [
        {
          "internalType": "bytes",
          "name": "",
          "type": "bytes"
        }
      ],
      "stateMutability": "view",
      "type": "function"
    },
    {
      "inputs": [],
      "name": "endpoint",
      "outputs": [
        {
          "internalType": "contract ILayerZeroEndpointV2",
          "name": "",
          "type": "address"
        }
      ],
      "stateMutability": "view",
      "type": "function"
    },
    {
      "inputs": [
        {
          "internalType": "uint32",
          "name": "eid",
          "type": "uint32"
        },
        {
          "internalType": "uint16",
          "name": "msgType",
          "type": "uint16"
        }
      ],
      "name": "enforcedOptions",
      "outputs": [
        {
          "internalType": "bytes",
          "name": "enforcedOption",
          "type": "bytes"
        }
      ],
      "stateMutability": "view",
      "type": "function"
    },
    {
      "inputs": [
        {
          "components": [
            {
              "internalType": "uint32",
              "name": "srcEid",
              "type": "uint32"
            },
            {
              "internalType": "bytes32",
              "name": "sender",
              "type": "bytes32"
            },
            {
              "internalType": "uint64",
              "name": "nonce",
              "type": "uint64"
            }
          ],
          "internalType": "struct Origin",
          "name": "",
          "type": "tuple"
        },
        {
          "internalType": "bytes",
          "name": "",
          "type": "bytes"
        },
        {
          "internalType": "address",
          "name": "_sender",
          "type": "address"
        }
      ],
      "name": "isComposeMsgSender",
      "outputs": [
        {
          "internalType": "bool",
          "name": "",
          "type": "bool"
        }
      ],
      "stateMutability": "view",
      "type": "function"
    },
    {
      "inputs": [
        {
          "internalType": "uint32",
          "name": "_eid",
          "type": "uint32"
        },
        {
          "internalType": "bytes32",
          "name": "_peer",
          "type": "bytes32"
        }
      ],
      "name": "isPeer",
      "outputs": [
        {
          "internalType": "bool",
          "name": "",
          "type": "bool"
        }
      ],
      "stateMutability": "view",
      "type": "function"
    },
    {
      "inputs": [
        {
          "components": [
            {
              "internalType": "uint32",
              "name": "srcEid",
              "type": "uint32"
            },
            {
              "internalType": "bytes32",
              "name": "sender",
              "type": "bytes32"
            },
            {
              "internalType": "uint64",
              "name": "nonce",
              "type": "uint64"
            }
          ],
          "internalType": "struct Origin",
          "name": "_origin",
          "type": "tuple"
        },
        {
          "internalType": "bytes32",
          "name": "_guid",
          "type": "bytes32"
        },
        {
          "internalType": "bytes",
          "name": "_message",
          "type": "bytes"
        },
        {
          "internalType": "address",
          "name": "_executor",
          "type": "address"
        },
        {
          "internalType": "bytes",
          "name": "_extraData",
          "type": "bytes"
        }
      ],
      "name": "lzReceive",
      "outputs": [],
      "stateMutability": "payable",
      "type": "function"
    },
    {
      "inputs": [
        {
          "components": [
            {
              "components": [
                {
                  "internalType": "uint32",
                  "name": "srcEid",
                  "type": "uint32"
                },
                {
                  "internalType": "bytes32",
                  "name": "sender",
                  "type": "bytes32"
                },
                {
                  "internalType": "uint64",
                  "name": "nonce",
                  "type": "uint64"
                }
              ],
              "internalType": "struct Origin",
              "name": "origin",
              "type": "tuple"
            },
            {
              "internalType": "uint32",
              "name": "dstEid",
              "type": "uint32"
            },
            {
              "internalType": "address",
              "name": "receiver",
              "type": "address"
            },
            {
              "internalType": "bytes32",
              "name": "guid",
              "type": "bytes32"
            },
            {
              "internalType": "uint256",
              "name": "value",
              "type": "uint256"
            },
            {
              "internalType": "address",
              "name": "executor",
              "type": "address"
            },
            {
              "internalType": "bytes",
              "name": "message",
              "type": "bytes"
            },
            {
              "internalType": "bytes",
              "name": "extraData",
              "type": "bytes"
            }
          ],
          "internalType": "struct InboundPacket[]",
          "name": "_packets",
          "type": "tuple[]"
        }
      ],
      "name": "lzReceiveAndRevert",
      "outputs": [],
      "stateMutability": "payable",
      "type": "function"
    },
    {
      "inputs": [
        {
          "components": [
            {
              "internalType": "uint32",
              "name": "srcEid",
              "type": "uint32"
            },
            {
              "internalType": "bytes32",
              "name": "sender",
              "type": "bytes32"
            },
            {
              "internalType": "uint64",
              "name": "nonce",
              "type": "uint64"
            }
          ],
          "internalType": "struct Origin",
          "name": "_origin",
          "type": "tuple"
        },
        {
          "internalType": "bytes32",
          "name": "_guid",
          "type": "bytes32"
        },
        {
          "internalType": "bytes",
          "name": "_message",
          "type": "bytes"
        },
        {
          "internalType": "address",
          "name": "_executor",
          "type": "address"
        },
        {
          "internalType": "bytes",
          "name": "_extraData",
          "type": "bytes"
        }
      ],
      "name": "lzReceiveSimulate",
      "outputs": [],
      "stateMutability": "payable",
      "type": "function"
    },
    {
      "inputs": [],
      "name": "msgInspector",
      "outputs": [
        {
          "internalType": "address",
          "name": "",
          "type": "address"
        }
      ],
      "stateMutability": "view",
      "type": "function"
    },
    {
      "inputs": [
        {
          "internalType": "uint32",
          "name": "",
          "type": "uint32"
        },
        {
          "internalType": "bytes32",
          "name": "",
          "type": "bytes32"
        }
      ],
      "name": "nextNonce",
      "outputs": [
        {
          "internalType": "uint64",
          "name": "nonce",
          "type": "uint64"
        }
      ],
      "stateMutability": "view",
      "type": "function"
    },
    {
      "inputs": [],
      "name": "oApp",
      "outputs": [
        {
          "internalType": "address",
          "name": "",
          "type": "address"
        }
      ],
      "stateMutability": "view",
      "type": "function"
    },
    {
      "inputs": [],
      "name": "oAppVersion",
      "outputs": [
        {
          "internalType": "uint64",
          "name": "senderVersion",
          "type": "uint64"
        },
        {
          "internalType": "uint64",
          "name": "receiverVersion",
          "type": "uint64"
        }
      ],
      "stateMutability": "pure",
      "type": "function"
    },
    {
      "inputs": [],
      "name": "onftVersion",
      "outputs": [
        {
          "internalType": "bytes4",
          "name": "interfaceId",
          "type": "bytes4"
        },
        {
          "internalType": "uint64",
          "name": "version",
          "type": "uint64"
        }
      ],
      "stateMutability": "pure",
      "type": "function"
    },
    {
      "inputs": [],
      "name": "owner",
      "outputs": [
        {
          "internalType": "address",
          "name": "",
          "type": "address"
        }
      ],
      "stateMutability": "view",
      "type": "function"
    },
    {
      "inputs": [
        {
          "internalType": "uint32",
          "name": "eid",
          "type": "uint32"
        }
      ],
      "name": "peers",
      "outputs": [
        {
          "internalType": "bytes32",
          "name": "peer",
          "type": "bytes32"
        }
      ],
      "stateMutability": "view",
      "type": "function"
    },
    {
      "inputs": [],
      "name": "preCrime",
      "outputs": [
        {
          "internalType": "address",
          "name": "",
          "type": "address"
        }
      ],
      "stateMutability": "view",
      "type": "function"
    },
    {
      "inputs": [
        {
          "components": [
            {
              "internalType": "uint32",
              "name": "dstEid",
              "type": "uint32"
            },
            {
              "internalType": "bytes32",
              "name": "to",
              "type": "bytes32"
            },
            {
              "internalType": "uint256",
              "name": "tokenId",
              "type": "uint256"
            },
            {
              "internalType": "bytes",
              "name": "extraOptions",
              "type": "bytes"
            },
            {
              "internalType": "bytes",
              "name": "composeMsg",
              "type": "bytes"
            },
            {
              "internalType": "bytes",
              "name": "onftCmd",
              "type": "bytes"
            }
          ],
          "internalType": "struct SendParam",
          "name": "_sendParam",
          "type": "tuple"
        },
        {
          "internalType": "bool",
          "name": "_payInLzToken",
          "type": "bool"
        }
      ],
      "name": "quoteSend",
      "outputs": [
        {
          "components": [
            {
              "internalType": "uint256",
              "name": "nativeFee",
              "type": "uint256"
            },
            {
              "internalType": "uint256",
              "name": "lzTokenFee",
              "type": "uint256"
            }
          ],
          "internalType": "struct MessagingFee",
          "name": "msgFee",
          "type": "tuple"
        }
      ],
      "stateMutability": "view",
      "type": "function"
    },
    {
      "inputs": [],
      "name": "renounceOwnership",
      "outputs": [],
      "stateMutability": "nonpayable",
      "type": "function"
    },
    {
      "inputs": [
        {
          "internalType": "uint256",
          "name": "tokenId",
          "type": "uint256"
        },
        {
          "internalType": "address",
          "name": "owner",
          "type": "address"
        }
      ],
      "name": "revokeRoyaltyRights",
      "outputs": [],
      "stateMutability": "nonpayable",
      "type": "function"
    },
    {
      "inputs": [
        {
          "internalType": "uint256",
          "name": "tokenId",
          "type": "uint256"
        }
      ],
      "name": "revokeRoyaltyRights",
      "outputs": [],
      "stateMutability": "nonpayable",
      "type": "function"
    },
    {
      "inputs": [
        {
          "internalType": "uint256",
          "name": "",
          "type": "uint256"
        }
      ],
      "name": "rights",
      "outputs": [
        {
          "internalType": "uint256",
          "name": "tokenId",
          "type": "uint256"
        },
        {
          "internalType": "address",
          "name": "owner",
          "type": "address"
        },
        {
          "internalType": "string",
          "name": "signature",
          "type": "string"
        }
      ],
      "stateMutability": "view",
      "type": "function"
    },
    {
      "inputs": [
        {
          "components": [
            {
              "internalType": "uint32",
              "name": "dstEid",
              "type": "uint32"
            },
            {
              "internalType": "bytes32",
              "name": "to",
              "type": "bytes32"
            },
            {
              "internalType": "uint256",
              "name": "tokenId",
              "type": "uint256"
            },
            {
              "internalType": "bytes",
              "name": "extraOptions",
              "type": "bytes"
            },
            {
              "internalType": "bytes",
              "name": "composeMsg",
              "type": "bytes"
            },
            {
              "internalType": "bytes",
              "name": "onftCmd",
              "type": "bytes"
            }
          ],
          "internalType": "struct SendParam",
          "name": "_sendParam",
          "type": "tuple"
        },
        {
          "components": [
            {
              "internalType": "uint256",
              "name": "nativeFee",
              "type": "uint256"
            },
            {
              "internalType": "uint256",
              "name": "lzTokenFee",
              "type": "uint256"
            }
          ],
          "internalType": "struct MessagingFee",
          "name": "_fee",
          "type": "tuple"
        },
        {
          "internalType": "address",
          "name": "_refundAddress",
          "type": "address"
        }
      ],
      "name": "send",
      "outputs": [
        {
          "components": [
            {
              "internalType": "bytes32",
              "name": "guid",
              "type": "bytes32"
            },
            {
              "internalType": "uint64",
              "name": "nonce",
              "type": "uint64"
            },
            {
              "components": [
                {
                  "internalType": "uint256",
                  "name": "nativeFee",
                  "type": "uint256"
                },
                {
                  "internalType": "uint256",
                  "name": "lzTokenFee",
                  "type": "uint256"
                }
              ],
              "internalType": "struct MessagingFee",
              "name": "fee",
              "type": "tuple"
            }
          ],
          "internalType": "struct MessagingReceipt",
          "name": "msgReceipt",
          "type": "tuple"
        }
      ],
      "stateMutability": "payable",
      "type": "function"
    },
    {
      "inputs": [
        {
          "internalType": "address",
          "name": "_delegate",
          "type": "address"
        }
      ],
      "name": "setDelegate",
      "outputs": [],
      "stateMutability": "nonpayable",
      "type": "function"
    },
    {
      "inputs": [
        {
          "components": [
            {
              "internalType": "uint32",
              "name": "eid",
              "type": "uint32"
            },
            {
              "internalType": "uint16",
              "name": "msgType",
              "type": "uint16"
            },
            {
              "internalType": "bytes",
              "name": "options",
              "type": "bytes"
            }
          ],
          "internalType": "struct EnforcedOptionParam[]",
          "name": "_enforcedOptions",
          "type": "tuple[]"
        }
      ],
      "name": "setEnforcedOptions",
      "outputs": [],
      "stateMutability": "nonpayable",
      "type": "function"
    },
    {
      "inputs": [
        {
          "internalType": "address",
          "name": "_msgInspector",
          "type": "address"
        }
      ],
      "name": "setMsgInspector",
      "outputs": [],
      "stateMutability": "nonpayable",
      "type": "function"
    },
    {
      "inputs": [
        {
          "internalType": "uint32",
          "name": "_eid",
          "type": "uint32"
        },
        {
          "internalType": "bytes32",
          "name": "_peer",
          "type": "bytes32"
        }
      ],
      "name": "setPeer",
      "outputs": [],
      "stateMutability": "nonpayable",
      "type": "function"
    },
    {
      "inputs": [
        {
          "internalType": "address",
          "name": "_preCrime",
          "type": "address"
        }
      ],
      "name": "setPreCrime",
      "outputs": [],
      "stateMutability": "nonpayable",
      "type": "function"
    },
    {
      "inputs": [
        {
          "internalType": "uint256",
          "name": "tokenId",
          "type": "uint256"
        },
        {
          "components": [
            {
              "internalType": "uint256",
              "name": "tokenId",
              "type": "uint256"
            },
            {
              "internalType": "address",
              "name": "owner",
              "type": "address"
            },
            {
              "internalType": "string",
              "name": "signature",
              "type": "string"
            }
          ],
          "internalType": "struct Collection.RoyaltyRights",
          "name": "_rights",
          "type": "tuple"
        }
      ],
      "name": "setRoyaltyRights",
      "outputs": [],
      "stateMutability": "nonpayable",
      "type": "function"
    },
    {
      "inputs": [
        {
          "internalType": "uint256",
          "name": "tokenId",
          "type": "uint256"
        },
        {
          "internalType": "address",
          "name": "owner",
          "type": "address"
        },
        {
          "internalType": "string",
          "name": "signature",
          "type": "string"
        }
      ],
      "name": "setRoyaltyRights",
      "outputs": [],
      "stateMutability": "nonpayable",
      "type": "function"
    },
    {
      "inputs": [
        {
          "internalType": "uint256",
          "name": "tokenId",
          "type": "uint256"
        }
      ],
      "name": "stake",
      "outputs": [],
      "stateMutability": "nonpayable",
      "type": "function"
    },
    {
      "inputs": [],
      "name": "token",
      "outputs": [
        {
          "internalType": "address",
          "name": "",
          "type": "address"
        }
      ],
      "stateMutability": "view",
      "type": "function"
    },
    {
      "inputs": [
        {
          "internalType": "address",
          "name": "newOwner",
          "type": "address"
        }
      ],
      "name": "transferOwnership",
      "outputs": [],
      "stateMutability": "nonpayable",
      "type": "function"
    },
    {
      "inputs": [
        {
          "internalType": "uint256",
          "name": "tokenId",
          "type": "uint256"
        }
      ],
      "name": "unstake",
      "outputs": [],
      "stateMutability": "nonpayable",
      "type": "function"
    }
  ],
  "transactionHash": "0x28b139b31f037678fd44e9ef703c32b6f76967c57a1c91d7479019de661e71ed",
  "args": [
    "0x3c649A7A063c067555a089967FCB16CC1dC44Ad4",
    "0x9e1F2c3432ddCe2AAe0f605f38e3234EE6fbC91a",
    "0x145C041566B21Bec558B2A37F1a5Ff261aB55998",
    "0xaaB63b70Ad1fcFf67EB26963EB352C91945B01e2"
  ],
  "numDeployments": 1,
  "solcInputHash": "f1092bf6b113ce2b0beedcd30504d7e4",
  "bytecode": "0x60c06040523480156200001157600080fd5b5060405162002f4538038062002f458339810160408190526200003491620001cc565b828282818181818181806001600160a01b0381166200006d57604051631e4fbdf760e01b81526000600482015260240160405180910390fd5b62000078816200015f565b506001600160a01b038083166080528116620000a757604051632d618d8160e21b815260040160405180910390fd5b60805160405163ca5eb5e160e01b81526001600160a01b0383811660048301529091169063ca5eb5e190602401600060405180830381600087803b158015620000ef57600080fd5b505af115801562000104573d6000803e3d6000fd5b5050506001600160a01b03998a1660a0525050600580549c89166001600160a01b03199d8e16179055505060068054988716988b16989098179097555050600780549490931693909616929092179055506200022992505050565b600080546001600160a01b038381166001600160a01b0319831681178455604051919092169283917f8be0079c531659141344cd1fd0a4f28419497f9722a3daafe3b4186f6b6457e09190a35050565b80516001600160a01b0381168114620001c757600080fd5b919050565b60008060008060808587031215620001e357600080fd5b620001ee85620001af565b9350620001fe60208601620001af565b92506200020e60408601620001af565b91506200021e60608601620001af565b905092959194509250565b60805160a051612ca96200029c600039600081816106ea01528181610a2a015281816110e9015281816114a0015261179c01526000818161039d0152818161073001528181610f4b015281816113a20152818161166b015281816119b901528181611bb50152611c6c0152612ca96000f3fe60806040526004361061021a5760003560e01c8063a694fc3a11610123578063c6414e7b116100ab578063ef64ba591161006f578063ef64ba591461067b578063f2fde38b1461069b578063f58409b9146106bb578063fc0c546a146106db578063ff7bd03d1461070e57600080fd5b8063c6414e7b146105cc578063ca5eb5e1146105f9578063d045a0dc14610619578063d42438851461062c578063e9ef21131461064c57600080fd5b8063b731ea0a116100f2578063b731ea0a1461051e578063b98bd0701461053e578063bb0b6a531461055e578063bc70b35414610599578063bd815db0146105b957600080fd5b8063a694fc3a146104a1578063a72f5dd8146104c1578063b21a33e4146104e9578063b50ecb74146104fe57600080fd5b80635a0dfe4d116101a65780637d25a05e116101755780637d25a05e146103f457806382413eac1461042f578063850729601461044f5780638da5cb5b1461046f5780639f68b9641461048d57600080fd5b80635a0dfe4d1461035b5780635e280f111461038b5780636fc1b31e146103bf578063715018a6146103df57600080fd5b806321eb730b116101ed57806321eb730b146102bb5780632e17de78146102db5780633400288b146102fb57806352ae28791461031b5780635535d4611461032e57600080fd5b8063111ecdad1461021f57806313137d651461025c57806317442b70146102715780631f5e133414610293575b600080fd5b34801561022b57600080fd5b5060045461023f906001600160a01b031681565b6040516001600160a01b0390911681526020015b60405180910390f35b61026f61026a366004611e53565b61072e565b005b34801561027d57600080fd5b5060408051600181526002602082015201610253565b34801561029f57600080fd5b506102a8600181565b60405161ffff9091168152602001610253565b6102ce6102c9366004611f04565b6107ee565b6040516102539190611f71565b3480156102e757600080fd5b5061026f6102f6366004611fb3565b6108a7565b34801561030757600080fd5b5061026f610316366004611fe5565b6108be565b34801561032757600080fd5b503061023f565b34801561033a57600080fd5b5061034e610349366004612021565b6108d4565b60405161025391906120a4565b34801561036757600080fd5b5061037b610376366004611fe5565b610979565b6040519015158152602001610253565b34801561039757600080fd5b5061023f7f000000000000000000000000000000000000000000000000000000000000000081565b3480156103cb57600080fd5b5061026f6103da3660046120b7565b610998565b3480156103eb57600080fd5b5061026f6109f5565b34801561040057600080fd5b5061041761040f366004611fe5565b600092915050565b6040516001600160401b039091168152602001610253565b34801561043b57600080fd5b5061037b61044a3660046120d4565b610a09565b34801561045b57600080fd5b5061026f61046a36600461213a565b610a1e565b34801561047b57600080fd5b506000546001600160a01b031661023f565b34801561049957600080fd5b50600161037b565b3480156104ad57600080fd5b5061026f6104bc366004611fb3565b610b3d565b3480156104cd57600080fd5b50604080516311f0c6d360e11b81526001602082015201610253565b3480156104f557600080fd5b506102a8600281565b34801561050a57600080fd5b5061026f61051936600461227f565b610b51565b34801561052a57600080fd5b5060025461023f906001600160a01b031681565b34801561054a57600080fd5b5061026f610559366004612358565b610ba9565b34801561056a57600080fd5b5061058b610579366004612399565b60016020526000908152604090205481565b604051908152602001610253565b3480156105a557600080fd5b5061034e6105b43660046123b4565b610bc3565b61026f6105c7366004612358565b610d6b565b3480156105d857600080fd5b506105ec6105e7366004612422565b610ede565b6040516102539190612468565b34801561060557600080fd5b5061026f6106143660046120b7565b610f24565b61026f610627366004611e53565b610fa3565b34801561063857600080fd5b5061026f6106473660046120b7565b610fd2565b34801561065857600080fd5b5061066c610667366004611fb3565b611028565b6040516102539392919061247f565b34801561068757600080fd5b5061026f6106963660046124a9565b6110dd565b3480156106a757600080fd5b5061026f6106b63660046120b7565b611232565b3480156106c757600080fd5b5061026f6106d6366004611fb3565b61126d565b3480156106e757600080fd5b507f000000000000000000000000000000000000000000000000000000000000000061023f565b34801561071a57600080fd5b5061037b610729366004612501565b6112a3565b7f00000000000000000000000000000000000000000000000000000000000000006001600160a01b0316331461077e576040516391ac5e4f60e01b81523360048201526024015b60405180910390fd5b6020870180359061079890610793908a612399565b6112d9565b146107d6576107aa6020880188612399565b60405163309afaf360e21b815263ffffffff909116600482015260208801356024820152604401610775565b6107e587878787878787611315565b50505050505050565b6107f6611d4d565b61081133604086013561080c6020880188612399565b611474565b60008061081d866114f9565b90925090506108496108326020880188612399565b8383610843368a90038a018a61251d565b88611638565b805190935033907f986156872b2ee0022b9585231dbbfde457f87f8a16b6c45e1a81c54c4ad8351f61087e60208a018a612399565b6040805163ffffffff9092168252808b013560208301520160405180910390a350509392505050565b6108af611743565b6108bb33826000611770565b50565b6108c6611743565b6108d082826117cb565b5050565b6003602090815260009283526040808420909152908252902080546108f89061254f565b80601f01602080910402602001604051908101604052809291908181526020018280546109249061254f565b80156109715780601f1061094657610100808354040283529160200191610971565b820191906000526020600020905b81548152906001019060200180831161095457829003601f168201915b505050505081565b63ffffffff821660009081526001602052604090205481145b92915050565b6109a0611743565b600480546001600160a01b0319166001600160a01b0383169081179091556040519081527ff0be4f1e87349231d80c36b33f9e8639658eeaf474014dee15a3e6a4d4414197906020015b60405180910390a150565b6109fd611743565b610a076000611820565b565b6001600160a01b03811630145b949350505050565b806001600160a01b03167f00000000000000000000000000000000000000000000000000000000000000006001600160a01b0316636352211e846040518263ffffffff1660e01b8152600401610a7691815260200190565b602060405180830381865afa158015610a93573d6000803e3d6000fd5b505050506040513d601f19601f82011682018060405250810190610ab79190612583565b6001600160a01b031614610b065760405162461bcd60e51b8152602060048201526016602482015275165bdd48191bdb89dd081bdddb881d1a1a5cc813919560521b6044820152606401610775565b60008281526008602052604081208181556001810180546001600160a01b031916905590610b376002830182611d94565b50505050565b610b45611743565b6108bb33826000611474565b60008281526008602090815260409182902083518155908301516001820180546001600160a01b0319166001600160a01b03909216919091179055908201518291906002820190610ba290826125e8565b5050505050565b610bb1611743565b6108d0610bbe82846126a7565b611870565b63ffffffff8416600090815260036020908152604080832061ffff87168452909152812080546060929190610bf79061254f565b80601f0160208091040260200160405190810160405280929190818152602001828054610c239061254f565b8015610c705780601f10610c4557610100808354040283529160200191610c70565b820191906000526020600020905b815481529060010190602001808311610c5357829003601f168201915b505050505090508051600003610cc05783838080601f016020809104026020016040519081016040528093929190818152602001838380828437600092019190915250929450610a169350505050565b6000839003610cd0579050610a16565b60028310610d4e57610d1784848080601f01602080910402602001604051908101604052809392919081815260200183838082843760009201919091525061197792505050565b80610d25846002818861278f565b604051602001610d37939291906127b9565b604051602081830303815290604052915050610a16565b8383604051639a6d49cd60e01b815260040161077592919061280a565b60005b81811015610e5d5736838383818110610d8957610d8961281e565b9050602002810190610d9b9190612834565b9050610db7610dad6020830183612399565b6020830135610979565b610dc15750610e55565b3063d045a0dc60c08301358360a0810135610de0610100830183612855565b610df1610100890160e08a016120b7565b610dff6101208a018a612855565b6040518963ffffffff1660e01b8152600401610e2197969594939291906128b0565b6000604051808303818588803b158015610e3a57600080fd5b505af1158015610e4e573d6000803e3d6000fd5b5050505050505b600101610d6e565b50336001600160a01b0316638e9e70996040518163ffffffff1660e01b8152600401600060405180830381865afa158015610e9c573d6000803e3d6000fd5b505050506040513d6000823e601f3d908101601f19168201604052610ec49190810190612936565b604051638351eea760e01b815260040161077591906120a4565b6040805180820190915260008082526020820152600080610efe856114f9565b9092509050610f1b610f136020870187612399565b8383876119a3565b95945050505050565b610f2c611743565b60405163ca5eb5e160e01b81526001600160a01b0382811660048301527f0000000000000000000000000000000000000000000000000000000000000000169063ca5eb5e190602401600060405180830381600087803b158015610f8f57600080fd5b505af1158015610ba2573d6000803e3d6000fd5b333014610fc35760405163029a949d60e31b815260040160405180910390fd5b6107e5878787878787876107d6565b610fda611743565b600280546001600160a01b0319166001600160a01b0383169081179091556040519081527fd48d879cef83a1c0bdda516f27b13ddb1b3f8bbac1c9e1511bb2a659c2427760906020016109ea565b60086020526000908152604090208054600182015460028301805492936001600160a01b039092169261105a9061254f565b80601f01602080910402602001604051908101604052809291908181526020018280546110869061254f565b80156110d35780601f106110a8576101008083540402835291602001916110d3565b820191906000526020600020905b8154815290600101906020018083116110b657829003601f168201915b5050505050905083565b816001600160a01b03167f00000000000000000000000000000000000000000000000000000000000000006001600160a01b0316636352211e856040518263ffffffff1660e01b815260040161113591815260200190565b602060405180830381865afa158015611152573d6000803e3d6000fd5b505050506040513d601f19601f820116820180604052508101906111769190612583565b6001600160a01b0316146111c55760405162461bcd60e51b8152602060048201526016602482015275165bdd48191bdb89dd081bdddb881d1a1a5cc813919560521b6044820152606401610775565b604080516060810182528481526001600160a01b038481166020808401918252838501868152600089815260089092529490208351815590516001820180546001600160a01b03191691909316179091559151909190600282019061122a90826125e8565b505050505050565b61123a611743565b6001600160a01b03811661126457604051631e4fbdf760e01b815260006004820152602401610775565b6108bb81611820565b60008181526008602052604081208181556001810180546001600160a01b03191690559061129e6002830182611d94565b505050565b60006020820180359060019083906112bb9086612399565b63ffffffff1681526020810191909152604001600020541492915050565b63ffffffff8116600090815260016020526040812054806109925760405163f6ff4fb760e01b815263ffffffff84166004820152602401610775565b60006113276113248787611a7b565b90565b905060006113358787611a9a565b905061134e828261134960208d018d612399565b611770565b604086111561141257600061138861136c60608c0160408d016129a3565b61137960208d018d612399565b6113838b8b611aaa565b611af5565b604051633e5ac80960e11b81529091506001600160a01b037f00000000000000000000000000000000000000000000000000000000000000001690637cb59012906113de9086908d9060009087906004016129c0565b600060405180830381600087803b1580156113f857600080fd5b505af115801561140c573d6000803e3d6000fd5b50505050505b6001600160a01b038216887f7883fa30ea56937810e36990b0bbb8d629d0cf59f68baf8431ff657cebe7eef561144b60208d018d612399565b6040805163ffffffff9092168252602082018690520160405180910390a3505050505050505050565b6040516323b872dd60e01b81526001600160a01b038481166004830152306024830152604482018490527f000000000000000000000000000000000000000000000000000000000000000016906323b872dd906064015b600060405180830381600087803b1580156114e557600080fd5b505af11580156107e5573d6000803e3d6000fd5b606080602083013561151e57604051631e4ec46b60e01b815260040160405180910390fd5b60006115746020850135604086013561153a6080880188612855565b8080601f016020809104026020016040519081016040528093929190818152602001838380828437600092019190915250611b2492505050565b909350905060008161158757600161158a565b60025b90506115aa61159c6020870187612399565b826105b46060890189612855565b6004549093506001600160a01b031680156116305760405163043a78eb60e01b81526001600160a01b0382169063043a78eb906115ed90889088906004016129fb565b602060405180830381865afa15801561160a573d6000803e3d6000fd5b505050506040513d601f19601f8201168201806040525081019061162e9190612a20565b505b505050915091565b611640611d4d565b600061164f8460000151611b89565b602085015190915015611669576116698460200151611bb1565b7f00000000000000000000000000000000000000000000000000000000000000006001600160a01b0316632637a450826040518060a001604052808b63ffffffff1681526020016116b98c6112d9565b81526020018a815260200189815260200160008960200151111515815250866040518463ffffffff1660e01b81526004016116f5929190612a3d565b60806040518083038185885af1158015611713573d6000803e3d6000fd5b50505050506040513d601f19601f820116820180604052508101906117389190612ae6565b979650505050505050565b6000546001600160a01b03163314610a075760405163118cdaa760e01b8152336004820152602401610775565b6040516323b872dd60e01b81523060048201526001600160a01b038481166024830152604482018490527f000000000000000000000000000000000000000000000000000000000000000016906323b872dd906064016114cb565b63ffffffff8216600081815260016020908152604091829020849055815192835282018390527f238399d427b947898edb290f5ff0f9109849b1c3ba196a42e35f00c50a54b98b910160405180910390a15050565b600080546001600160a01b038381166001600160a01b0319831681178455604051919092169283917f8be0079c531659141344cd1fd0a4f28419497f9722a3daafe3b4186f6b6457e09190a35050565b60005b8151811015611947576118a28282815181106118915761189161281e565b602002602001015160400151611977565b8181815181106118b4576118b461281e565b602002602001015160400151600360008484815181106118d6576118d661281e565b60200260200101516000015163ffffffff1663ffffffff16815260200190815260200160002060008484815181106119105761191061281e565b60200260200101516020015161ffff1661ffff168152602001908152602001600020908161193e91906125e8565b50600101611873565b507fbe4864a8e820971c0247f5992e2da559595f7bf076a21cb5928d443d2a13b674816040516109ea9190612b30565b600281015161ffff81166003146108d05781604051639a6d49cd60e01b815260040161077591906120a4565b60408051808201909152600080825260208201527f00000000000000000000000000000000000000000000000000000000000000006001600160a01b031663ddc28c586040518060a001604052808863ffffffff168152602001611a06896112d9565b8152602001878152602001868152602001851515815250306040518363ffffffff1660e01b8152600401611a3b929190612a3d565b6040805180830381865afa158015611a57573d6000803e3d6000fd5b505050506040513d601f19601f82011682018060405250810190610f1b9190612bbb565b6000611a8a602082848661278f565b611a9391612bd7565b9392505050565b6000611a8a60406020848661278f565b6060611ab9826040818661278f565b8080601f016020809104026020016040519081016040528093929190818152602001838380828437600092019190915250929695505050505050565b6060838383604051602001611b0c93929190612bf5565b60405160208183030381529060405290509392505050565b8051606090151580611b58576040805160208101879052908101859052606001604051602081830303815290604052611b7f565b84843385604051602001611b6f9493929190612c3f565b6040516020818303038152906040525b9150935093915050565b6000813414611bad576040516304fb820960e51b8152346004820152602401610775565b5090565b60007f00000000000000000000000000000000000000000000000000000000000000006001600160a01b031663e4fe1d946040518163ffffffff1660e01b8152600401602060405180830381865afa158015611c11573d6000803e3d6000fd5b505050506040513d601f19601f82011682018060405250810190611c359190612583565b90506001600160a01b038116611c5e576040516329b99a9560e11b815260040160405180910390fd5b6040805133602482018190527f00000000000000000000000000000000000000000000000000000000000000006001600160a01b0381811660448501526064808501889052855180860390910181526084909401909452602080840180516001600160e01b03166323b872dd60e01b17815284516108d0968816958993610b3793889360009283929091839182885af180611cff576040513d6000823e3d81fd5b50506000513d91508115611d17578060011415611d24565b6001600160a01b0384163b155b15610b3757604051635274afe760e01b81526001600160a01b0385166004820152602401610775565b60405180606001604052806000801916815260200160006001600160401b03168152602001611d8f604051806040016040528060008152602001600081525090565b905290565b508054611da09061254f565b6000825580601f10611db0575050565b601f0160209004906000526020600020908101906108bb91905b80821115611bad5760008155600101611dca565b600060608284031215611df057600080fd5b50919050565b60008083601f840112611e0857600080fd5b5081356001600160401b03811115611e1f57600080fd5b602083019150836020828501011115611e3757600080fd5b9250929050565b6001600160a01b03811681146108bb57600080fd5b600080600080600080600060e0888a031215611e6e57600080fd5b611e788989611dde565b96506060880135955060808801356001600160401b0380821115611e9b57600080fd5b611ea78b838c01611df6565b909750955060a08a01359150611ebc82611e3e565b90935060c08901359080821115611ed257600080fd5b50611edf8a828b01611df6565b989b979a50959850939692959293505050565b600060c08284031215611df057600080fd5b60008060008385036080811215611f1a57600080fd5b84356001600160401b03811115611f3057600080fd5b611f3c87828801611ef2565b9450506040601f1982011215611f5157600080fd5b506020840191506060840135611f6681611e3e565b809150509250925092565b6000608082019050825182526001600160401b0360208401511660208301526040830151611fac604084018280518252602090810151910152565b5092915050565b600060208284031215611fc557600080fd5b5035919050565b803563ffffffff81168114611fe057600080fd5b919050565b60008060408385031215611ff857600080fd5b61200183611fcc565b946020939093013593505050565b803561ffff81168114611fe057600080fd5b6000806040838503121561203457600080fd5b61203d83611fcc565b915061204b6020840161200f565b90509250929050565b60005b8381101561206f578181015183820152602001612057565b50506000910152565b60008151808452612090816020860160208601612054565b601f01601f19169290920160200192915050565b602081526000611a936020830184612078565b6000602082840312156120c957600080fd5b8135611a9381611e3e565b60008060008060a085870312156120ea57600080fd5b6120f48686611dde565b935060608501356001600160401b0381111561210f57600080fd5b61211b87828801611df6565b909450925050608085013561212f81611e3e565b939692955090935050565b6000806040838503121561214d57600080fd5b82359150602083013561215f81611e3e565b809150509250929050565b634e487b7160e01b600052604160045260246000fd5b604051606081016001600160401b03811182821017156121a2576121a261216a565b60405290565b604080519081016001600160401b03811182821017156121a2576121a261216a565b604051601f8201601f191681016001600160401b03811182821017156121f2576121f261216a565b604052919050565b60006001600160401b038211156122135761221361216a565b50601f01601f191660200190565b600061223461222f846121fa565b6121ca565b905082815283838301111561224857600080fd5b828260208301376000602084830101529392505050565b600082601f83011261227057600080fd5b611a9383833560208501612221565b6000806040838503121561229257600080fd5b8235915060208301356001600160401b03808211156122b057600080fd5b90840190606082870312156122c457600080fd5b6122cc612180565b8235815260208301356122de81611e3e565b60208201526040830135828111156122f557600080fd5b6123018882860161225f565b6040830152508093505050509250929050565b60008083601f84011261232657600080fd5b5081356001600160401b0381111561233d57600080fd5b6020830191508360208260051b8501011115611e3757600080fd5b6000806020838503121561236b57600080fd5b82356001600160401b0381111561238157600080fd5b61238d85828601612314565b90969095509350505050565b6000602082840312156123ab57600080fd5b611a9382611fcc565b600080600080606085870312156123ca57600080fd5b6123d385611fcc565b93506123e16020860161200f565b925060408501356001600160401b038111156123fc57600080fd5b61240887828801611df6565b95989497509550505050565b80151581146108bb57600080fd5b6000806040838503121561243557600080fd5b82356001600160401b0381111561244b57600080fd5b61245785828601611ef2565b925050602083013561215f81612414565b815181526020808301519082015260408101610992565b8381526001600160a01b0383166020820152606060408201819052600090610f1b90830184612078565b6000806000606084860312156124be57600080fd5b8335925060208401356124d081611e3e565b915060408401356001600160401b038111156124eb57600080fd5b6124f78682870161225f565b9150509250925092565b60006060828403121561251357600080fd5b611a938383611dde565b60006040828403121561252f57600080fd5b6125376121a8565b82358152602083013560208201528091505092915050565b600181811c9082168061256357607f821691505b602082108103611df057634e487b7160e01b600052602260045260246000fd5b60006020828403121561259557600080fd5b8151611a9381611e3e565b601f82111561129e576000816000526020600020601f850160051c810160208610156125c95750805b601f850160051c820191505b8181101561122a578281556001016125d5565b81516001600160401b038111156126015761260161216a565b6126158161260f845461254f565b846125a0565b602080601f83116001811461264a57600084156126325750858301515b600019600386901b1c1916600185901b17855561122a565b600085815260208120601f198616915b828110156126795788860151825594840194600190910190840161265a565b50858210156126975787850151600019600388901b60f8161c191681555b5050505050600190811b01905550565b60006001600160401b03808411156126c1576126c161216a565b8360051b60206126d28183016121ca565b8681529185019181810190368411156126ea57600080fd5b865b84811015612783578035868111156127045760008081fd5b880160603682900312156127185760008081fd5b612720612180565b61272982611fcc565b815261273686830161200f565b868201526040808301358981111561274e5760008081fd5b929092019136601f8401126127635760008081fd5b612771368435898601612221565b908201528452509183019183016126ec565b50979650505050505050565b6000808585111561279f57600080fd5b838611156127ac57600080fd5b5050820193919092039150565b600084516127cb818460208901612054565b8201838582376000930192835250909392505050565b81835281816020850137506000828201602090810191909152601f909101601f19169091010190565b602081526000610a166020830184866127e1565b634e487b7160e01b600052603260045260246000fd5b6000823561013e1983360301811261284b57600080fd5b9190910192915050565b6000808335601e1984360301811261286c57600080fd5b8301803591506001600160401b0382111561288657600080fd5b602001915036819003821315611e3757600080fd5b6001600160401b03811681146108bb57600080fd5b63ffffffff6128be89611fcc565b16815260208801356020820152600060408901356128db8161289b565b6001600160401b03811660408401525087606083015260e0608083015261290660e0830187896127e1565b6001600160a01b03861660a084015282810360c08401526129288185876127e1565b9a9950505050505050505050565b60006020828403121561294857600080fd5b81516001600160401b0381111561295e57600080fd5b8201601f8101841361296f57600080fd5b805161297d61222f826121fa565b81815285602083850101111561299257600080fd5b610f1b826020830160208601612054565b6000602082840312156129b557600080fd5b8135611a938161289b565b60018060a01b038516815283602082015261ffff831660408201526080606082015260006129f16080830184612078565b9695505050505050565b604081526000612a0e6040830185612078565b8281036020840152610f1b8185612078565b600060208284031215612a3257600080fd5b8151611a9381612414565b6040815263ffffffff8351166040820152602083015160608201526000604084015160a06080840152612a7360e0840182612078565b90506060850151603f198483030160a0850152612a908282612078565b60809690960151151560c08501525050506001600160a01b039190911660209091015290565b600060408284031215612ac857600080fd5b612ad06121a8565b9050815181526020820151602082015292915050565b600060808284031215612af857600080fd5b612b00612180565b825181526020830151612b128161289b565b6020820152612b248460408501612ab6565b60408201529392505050565b600060208083018184528085518083526040925060408601915060408160051b87010184880160005b83811015612bad57888303603f190185528151805163ffffffff1684528781015161ffff16888501528601516060878501819052612b9981860183612078565b968901969450505090860190600101612b59565b509098975050505050505050565b600060408284031215612bcd57600080fd5b611a938383612ab6565b8035602083101561099257600019602084900360031b1b1692915050565b60c084901b6001600160c01b031916815260e083901b6001600160e01b03191660088201528151600090612c3081600c850160208701612054565b91909101600c01949350505050565b84815283602082015282604082015260008251612c63816060850160208701612054565b919091016060019594505050505056fea264697066735822122074ea903279871012f8aea8cff80a9179d742bfa6718df502fc49faf7dc9c1fef64736f6c63430008160033",
  "devdoc": {
    "errors": {
      "OwnableInvalidOwner(address)": [
        {
          "details": "The owner is not a valid owner account. (eg. `address(0)`)"
        }
      ],
      "OwnableUnauthorizedAccount(address)": [
        {
          "details": "The caller account is not authorized to perform an operation."
        }
      ],
      "SafeERC20FailedOperation(address)": [
        {
          "details": "An operation with an ERC-20 token failed."
        }
      ]
    },
    "events": {
      "PreCrimeSet(address)": {
        "details": "Emitted when the preCrime contract address is set.",
        "params": {
          "preCrimeAddress": "The address of the preCrime contract."
        }
      }
    },
    "kind": "dev",
    "methods": {
      "allowInitializePath((uint32,bytes32,uint64))": {
        "details": "This indicates to the endpoint that the OApp has enabled msgs for this particular path to be received.This defaults to assuming if a peer has been set, its initialized. Can be overridden by the OApp if there is other logic to determine this.",
        "params": {
          "origin": "The origin information containing the source endpoint and sender address."
        },
        "returns": {
          "_0": "Whether the path has been initialized."
        }
      },
      "approvalRequired()": {
        "details": "In the case of ONFT where the contract IS the token, approval is NOT required.",
        "returns": {
          "_0": "requiresApproval Needs approval of the underlying token implementation."
        }
      },
      "combineOptions(uint32,uint16,bytes)": {
        "details": "If there is an enforced lzReceive option: - {gasLimit: 200k, msg.value: 1 ether} AND a caller supplies a lzReceive option: {gasLimit: 100k, msg.value: 0.5 ether} - The resulting options will be {gasLimit: 300k, msg.value: 1.5 ether} when the message is executed on the remote lzReceive() function.This presence of duplicated options is handled off-chain in the verifier/executor.",
        "params": {
          "_eid": "The endpoint ID.",
          "_extraOptions": "Additional options passed by the caller.",
          "_msgType": "The OAPP message type."
        },
        "returns": {
          "_0": "options The combination of caller specified options AND enforced options."
        }
      },
      "isComposeMsgSender((uint32,bytes32,uint64),bytes,address)": {
        "details": "_origin The origin information containing the source endpoint and sender address.  - srcEid: The source chain endpoint ID.  - sender: The sender address on the src chain.  - nonce: The nonce of the message._message The lzReceive payload.Applications can optionally choose to implement separate composeMsg senders that are NOT the bridging layer.The default sender IS the OAppReceiver implementer.",
        "params": {
          "_sender": "The sender address."
        },
        "returns": {
          "_0": "isSender Is a valid sender."
        }
      },
      "isPeer(uint32,bytes32)": {
        "details": "Check if the peer is considered 'trusted' by the OApp.Enables OAppPreCrimeSimulator to check whether a potential Inbound Packet is from a trusted source.",
        "params": {
          "_eid": "The endpoint ID to check.",
          "_peer": "The peer to check."
        },
        "returns": {
          "_0": "Whether the peer passed is considered 'trusted' by the OApp."
        }
      },
      "lzReceive((uint32,bytes32,uint64),bytes32,bytes,address,bytes)": {
        "details": "Entry point for receiving messages or packets from the endpoint.Entry point for receiving msg/packet from the LayerZero endpoint.",
        "params": {
          "_executor": "The address of the executor for the received message.",
          "_extraData": "Additional arbitrary data provided by the corresponding executor.",
          "_guid": "The unique identifier for the received LayerZero message.",
          "_message": "The payload of the received message.",
          "_origin": "The origin information containing the source endpoint and sender address.  - srcEid: The source chain endpoint ID.  - sender: The sender address on the src chain.  - nonce: The nonce of the message."
        }
      },
      "lzReceiveAndRevert(((uint32,bytes32,uint64),uint32,address,bytes32,uint256,address,bytes,bytes)[])": {
        "details": "Interface for pre-crime simulations. Always reverts at the end with the simulation results.WARNING: MUST revert at the end with the simulation results.Gives the preCrime implementation the ability to mock sending packets to the lzReceive function, WITHOUT actually executing them.",
        "params": {
          "_packets": "An array of InboundPacket objects representing received packets to be delivered."
        }
      },
      "lzReceiveSimulate((uint32,bytes32,uint64),bytes32,bytes,address,bytes)": {
        "details": "Is effectively an internal function because msg.sender must be address(this). Allows resetting the call stack for 'internal' calls.",
        "params": {
          "_executor": "The executor address for the packet.",
          "_extraData": "Additional data for the packet.",
          "_guid": "The unique identifier of the packet.",
          "_message": "The message payload of the packet.",
          "_origin": "The origin information containing the source endpoint and sender address.  - srcEid: The source chain endpoint ID.  - sender: The sender address on the src chain.  - nonce: The nonce of the message."
        }
      },
      "nextNonce(uint32,bytes32)": {
        "details": "_srcEid The source endpoint ID._sender The sender address.The path nonce starts from 1. If 0 is returned it means that there is NO nonce ordered enforcement.Is required by the off-chain executor to determine the OApp expects msg execution is ordered.This is also enforced by the OApp.By default this is NOT enabled. ie. nextNonce is hardcoded to return 0.",
        "returns": {
          "nonce": "The next nonce."
        }
      },
      "oApp()": {
        "details": "Retrieves the address of the OApp contract.The simulator contract is the base contract for the OApp by default.If the simulator is a separate contract, override this function.",
        "returns": {
          "_0": "The address of the OApp contract."
        }
      },
      "oAppVersion()": {
        "returns": {
          "receiverVersion": "The version of the OAppReceiver.sol implementation.",
          "senderVersion": "The version of the OAppSender.sol implementation."
        }
      },
      "onftVersion()": {
        "details": "version: Indicates a cross-chain compatible msg encoding with other ONFTs.If a new feature is added to the ONFT cross-chain msg encoding, the version will be incremented.ie. localONFT version(x,1) CAN send messages to remoteONFT version(x,1)",
        "returns": {
          "interfaceId": "The interface ID (0x23e18da6).",
          "version": "The version."
        }
      },
      "owner()": {
        "details": "Returns the address of the current owner."
      },
      "quoteSend((uint32,bytes32,uint256,bytes,bytes,bytes),bool)": {
        "details": "MessagingFee: LayerZero msg fee  - nativeFee: The native fee.  - lzTokenFee: The lzToken fee.",
        "params": {
          "_payInLzToken": "Flag indicating whether the caller is paying in the LZ token.",
          "_sendParam": "The parameters for the send() operation."
        },
        "returns": {
          "msgFee": "fee The calculated LayerZero messaging fee from the send() operation."
        }
      },
      "renounceOwnership()": {
        "details": "Leaves the contract without owner. It will not be possible to call `onlyOwner` functions. Can only be called by the current owner. NOTE: Renouncing ownership will leave the contract without an owner, thereby disabling any functionality that is only available to the owner."
      },
      "send((uint32,bytes32,uint256,bytes,bytes,bytes),(uint256,uint256),address)": {
        "details": "MessagingReceipt: LayerZero msg receipt  - guid: The unique identifier for the sent message.  - nonce: The nonce of the sent message.  - fee: The LayerZero fee incurred for the message.",
        "params": {
          "_fee": "The fee information supplied by the caller.      - nativeFee: The native fee.      - lzTokenFee: The lzToken fee.",
          "_refundAddress": "The address to receive any excess funds from fees etc. on the src.",
          "_sendParam": "The parameters for the send operation."
        },
        "returns": {
          "msgReceipt": "receipt The LayerZero messaging receipt from the send() operation."
        }
      },
      "setDelegate(address)": {
        "details": "Only the owner/admin of the OApp can call this function.Provides the ability for a delegate to set configs, on behalf of the OApp, directly on the Endpoint contract.",
        "params": {
          "_delegate": "The address of the delegate to be set."
        }
      },
      "setEnforcedOptions((uint32,uint16,bytes)[])": {
        "details": "Sets the enforced options for specific endpoint and message type combinations.Only the owner/admin of the OApp can call this function.Provides a way for the OApp to enforce things like paying for PreCrime, AND/OR minimum dst lzReceive gas amounts etc.These enforced options can vary as the potential options/execution on the remote may differ as per the msgType. eg. Amount of lzReceive() gas necessary to deliver a lzCompose() message adds overhead you dont want to pay if you are only making a standard LayerZero message ie. lzReceive() WITHOUT sendCompose().",
        "params": {
          "_enforcedOptions": "An array of EnforcedOptionParam structures specifying enforced options."
        }
      },
      "setMsgInspector(address)": {
        "details": "This is an optional contract that can be used to inspect both 'message' and 'options'.Set it to address(0) to disable it, or set it to a contract address to enable it.",
        "params": {
          "_msgInspector": "The address of the message inspector."
        }
      },
      "setPeer(uint32,bytes32)": {
        "details": "Only the owner/admin of the OApp can call this function.Indicates that the peer is trusted to send LayerZero messages to this OApp.Set this to bytes32(0) to remove the peer address.Peer is a bytes32 to accommodate non-evm chains.",
        "params": {
          "_eid": "The endpoint ID.",
          "_peer": "The address of the peer to be associated with the corresponding endpoint."
        }
      },
      "setPreCrime(address)": {
        "details": "Sets the preCrime contract address.",
        "params": {
          "_preCrime": "The address of the preCrime contract."
        }
      },
      "transferOwnership(address)": {
        "details": "Transfers ownership of the contract to a new account (`newOwner`). Can only be called by the current owner."
      }
    },
    "version": 1
  },
  "userdoc": {
    "kind": "user",
    "methods": {
      "allowInitializePath((uint32,bytes32,uint64))": {
        "notice": "Checks if the path initialization is allowed based on the provided origin."
      },
      "approvalRequired()": {
        "notice": "Indicates whether the ONFT721 contract requires approval of the 'token()' to send."
      },
      "combineOptions(uint32,uint16,bytes)": {
        "notice": "Combines options for a given endpoint and message type."
      },
      "endpoint()": {
        "notice": "Retrieves the LayerZero endpoint associated with the OApp."
      },
      "isComposeMsgSender((uint32,bytes32,uint64),bytes,address)": {
        "notice": "Indicates whether an address is an approved composeMsg sender to the Endpoint."
      },
      "nextNonce(uint32,bytes32)": {
        "notice": "Retrieves the next nonce for a given source endpoint and sender address."
      },
      "oAppVersion()": {
        "notice": "Retrieves the OApp version information."
      },
      "onftVersion()": {
        "notice": "Retrieves interfaceID and the version of the ONFT."
      },
      "peers(uint32)": {
        "notice": "Retrieves the peer (OApp) associated with a corresponding endpoint."
      },
      "quoteSend((uint32,bytes32,uint256,bytes,bytes,bytes),bool)": {
        "notice": "Provides a quote for the send() operation."
      },
      "send((uint32,bytes32,uint256,bytes,bytes,bytes),(uint256,uint256),address)": {
        "notice": "Executes the send() operation."
      },
      "setDelegate(address)": {
        "notice": "Sets the delegate address for the OApp."
      },
      "setMsgInspector(address)": {
        "notice": "Sets the message inspector address for the OFT."
      },
      "setPeer(uint32,bytes32)": {
        "notice": "Sets the peer address (OApp instance) for a corresponding endpoint."
      },
      "token()": {
        "notice": "Retrieves the address of the underlying ERC721 implementation (ie. external contract)."
      }
    },
    "version": 1
  },
  "storageLayout": {
    "storage": [
      {
        "astId": 4133,
        "contract": "contracts/Collection.sol:Collection",
        "label": "_owner",
        "offset": 0,
        "slot": "0",
        "type": "t_address"
      },
      {
        "astId": 2021,
        "contract": "contracts/Collection.sol:Collection",
        "label": "peers",
        "offset": 0,
        "slot": "1",
        "type": "t_mapping(t_uint32,t_bytes32)"
      },
      {
        "astId": 2797,
        "contract": "contracts/Collection.sol:Collection",
        "label": "preCrime",
        "offset": 0,
        "slot": "2",
        "type": "t_address"
      },
      {
        "astId": 2637,
        "contract": "contracts/Collection.sol:Collection",
        "label": "enforcedOptions",
        "offset": 0,
        "slot": "3",
        "type": "t_mapping(t_uint32,t_mapping(t_uint16,t_bytes_storage))"
      },
      {
        "astId": 3528,
        "contract": "contracts/Collection.sol:Collection",
        "label": "msgInspector",
        "offset": 0,
        "slot": "4",
        "type": "t_address"
      },
      {
        "astId": 5301,
        "contract": "contracts/Collection.sol:Collection",
        "label": "curator",
        "offset": 0,
        "slot": "5",
        "type": "t_address"
      },
      {
        "astId": 5303,
        "contract": "contracts/Collection.sol:Collection",
        "label": "lzEndpoint",
        "offset": 0,
        "slot": "6",
        "type": "t_address"
      },
      {
        "astId": 5305,
        "contract": "contracts/Collection.sol:Collection",
        "label": "delegate",
        "offset": 0,
        "slot": "7",
        "type": "t_address"
      },
      {
        "astId": 5317,
        "contract": "contracts/Collection.sol:Collection",
        "label": "rights",
        "offset": 0,
        "slot": "8",
        "type": "t_mapping(t_uint256,t_struct(RoyaltyRights)5312_storage)"
      }
    ],
    "types": {
      "t_address": {
        "encoding": "inplace",
        "label": "address",
        "numberOfBytes": "20"
      },
      "t_bytes32": {
        "encoding": "inplace",
        "label": "bytes32",
        "numberOfBytes": "32"
      },
      "t_bytes_storage": {
        "encoding": "bytes",
        "label": "bytes",
        "numberOfBytes": "32"
      },
      "t_mapping(t_uint16,t_bytes_storage)": {
        "encoding": "mapping",
        "key": "t_uint16",
        "label": "mapping(uint16 => bytes)",
        "numberOfBytes": "32",
        "value": "t_bytes_storage"
      },
      "t_mapping(t_uint256,t_struct(RoyaltyRights)5312_storage)": {
        "encoding": "mapping",
        "key": "t_uint256",
        "label": "mapping(uint256 => struct Collection.RoyaltyRights)",
        "numberOfBytes": "32",
        "value": "t_struct(RoyaltyRights)5312_storage"
      },
      "t_mapping(t_uint32,t_bytes32)": {
        "encoding": "mapping",
        "key": "t_uint32",
        "label": "mapping(uint32 => bytes32)",
        "numberOfBytes": "32",
        "value": "t_bytes32"
      },
      "t_mapping(t_uint32,t_mapping(t_uint16,t_bytes_storage))": {
        "encoding": "mapping",
        "key": "t_uint32",
        "label": "mapping(uint32 => mapping(uint16 => bytes))",
        "numberOfBytes": "32",
        "value": "t_mapping(t_uint16,t_bytes_storage)"
      },
      "t_string_storage": {
        "encoding": "bytes",
        "label": "string",
        "numberOfBytes": "32"
      },
      "t_struct(RoyaltyRights)5312_storage": {
        "encoding": "inplace",
        "label": "struct Collection.RoyaltyRights",
        "members": [
          {
            "astId": 5307,
            "contract": "contracts/Collection.sol:Collection",
            "label": "tokenId",
            "offset": 0,
            "slot": "0",
            "type": "t_uint256"
          },
          {
            "astId": 5309,
            "contract": "contracts/Collection.sol:Collection",
            "label": "owner",
            "offset": 0,
            "slot": "1",
            "type": "t_address"
          },
          {
            "astId": 5311,
            "contract": "contracts/Collection.sol:Collection",
            "label": "signature",
            "offset": 0,
            "slot": "2",
            "type": "t_string_storage"
          }
        ],
        "numberOfBytes": "96"
      },
      "t_uint16": {
        "encoding": "inplace",
        "label": "uint16",
        "numberOfBytes": "2"
      },
      "t_uint256": {
        "encoding": "inplace",
        "label": "uint256",
        "numberOfBytes": "32"
      },
      "t_uint32": {
        "encoding": "inplace",
        "label": "uint32",
        "numberOfBytes": "4"
      }
    }
  }
}