{
  "address": "0x73D915D9a64318714ca1D97f65475387240C06AF",
  "abi": [
    {
      "inputs": [
        {
          "internalType": "address",
          "name": "_token",
          "type": "address"
        },
        {
          "internalType": "address",
          "name": "_lzEndpoint",
          "type": "address"
        },
        {
          "internalType": "address",
          "name": "_delegate",
          "type": "address"
        }
      ],
      "stateMutability": "nonpayable",
      "type": "constructor"
    },
    {
      "inputs": [],
      "name": "InvalidDelegate",
      "type": "error"
    },
    {
      "inputs": [],
      "name": "InvalidEndpointCall",
      "type": "error"
    },
    {
      "inputs": [
        {
          "internalType": "bytes",
          "name": "options",
          "type": "bytes"
        }
      ],
      "name": "InvalidOptions",
      "type": "error"
    },
    {
      "inputs": [],
      "name": "InvalidReceiver",
      "type": "error"
    },
    {
      "inputs": [],
      "name": "LzTokenUnavailable",
      "type": "error"
    },
    {
      "inputs": [
        {
          "internalType": "uint32",
          "name": "eid",
          "type": "uint32"
        }
      ],
      "name": "NoPeer",
      "type": "error"
    },
    {
      "inputs": [
        {
          "internalType": "uint256",
          "name": "msgValue",
          "type": "uint256"
        }
      ],
      "name": "NotEnoughNative",
      "type": "error"
    },
    {
      "inputs": [
        {
          "internalType": "address",
          "name": "addr",
          "type": "address"
        }
      ],
      "name": "OnlyEndpoint",
      "type": "error"
    },
    {
      "inputs": [
        {
          "internalType": "address",
          "name": "caller",
          "type": "address"
        },
        {
          "internalType": "address",
          "name": "owner",
          "type": "address"
        }
      ],
      "name": "OnlyNFTOwner",
      "type": "error"
    },
    {
      "inputs": [
        {
          "internalType": "uint32",
          "name": "eid",
          "type": "uint32"
        },
        {
          "internalType": "bytes32",
          "name": "sender",
          "type": "bytes32"
        }
      ],
      "name": "OnlyPeer",
      "type": "error"
    },
    {
      "inputs": [],
      "name": "OnlySelf",
      "type": "error"
    },
    {
      "inputs": [
        {
          "internalType": "address",
          "name": "owner",
          "type": "address"
        }
      ],
      "name": "OwnableInvalidOwner",
      "type": "error"
    },
    {
      "inputs": [
        {
          "internalType": "address",
          "name": "account",
          "type": "address"
        }
      ],
      "name": "OwnableUnauthorizedAccount",
      "type": "error"
    },
    {
      "inputs": [
        {
          "internalType": "address",
          "name": "token",
          "type": "address"
        }
      ],
      "name": "SafeERC20FailedOperation",
      "type": "error"
    },
    {
      "inputs": [
        {
          "internalType": "bytes",
          "name": "result",
          "type": "bytes"
        }
      ],
      "name": "SimulationResult",
      "type": "error"
    },
    {
      "anonymous": false,
      "inputs": [
        {
          "components": [
            {
              "internalType": "uint32",
              "name": "eid",
              "type": "uint32"
            },
            {
              "internalType": "uint16",
              "name": "msgType",
              "type": "uint16"
            },
            {
              "internalType": "bytes",
              "name": "options",
              "type": "bytes"
            }
          ],
          "indexed": false,
          "internalType": "struct EnforcedOptionParam[]",
          "name": "_enforcedOptions",
          "type": "tuple[]"
        }
      ],
      "name": "EnforcedOptionSet",
      "type": "event"
    },
    {
      "anonymous": false,
      "inputs": [
        {
          "indexed": false,
          "internalType": "address",
          "name": "inspector",
          "type": "address"
        }
      ],
      "name": "MsgInspectorSet",
      "type": "event"
    },
    {
      "anonymous": false,
      "inputs": [
        {
          "indexed": true,
          "internalType": "bytes32",
          "name": "guid",
          "type": "bytes32"
        },
        {
          "indexed": false,
          "internalType": "uint32",
          "name": "srcEid",
          "type": "uint32"
        },
        {
          "indexed": true,
          "internalType": "address",
          "name": "toAddress",
          "type": "address"
        },
        {
          "indexed": false,
          "internalType": "uint256",
          "name": "tokenId",
          "type": "uint256"
        }
      ],
      "name": "ONFTReceived",
      "type": "event"
    },
    {
      "anonymous": false,
      "inputs": [
        {
          "indexed": true,
          "internalType": "bytes32",
          "name": "guid",
          "type": "bytes32"
        },
        {
          "indexed": false,
          "internalType": "uint32",
          "name": "dstEid",
          "type": "uint32"
        },
        {
          "indexed": true,
          "internalType": "address",
          "name": "fromAddress",
          "type": "address"
        },
        {
          "indexed": false,
          "internalType": "uint256",
          "name": "tokenId",
          "type": "uint256"
        }
      ],
      "name": "ONFTSent",
      "type": "event"
    },
    {
      "anonymous": false,
      "inputs": [
        {
          "indexed": true,
          "internalType": "address",
          "name": "previousOwner",
          "type": "address"
        },
        {
          "indexed": true,
          "internalType": "address",
          "name": "newOwner",
          "type": "address"
        }
      ],
      "name": "OwnershipTransferred",
      "type": "event"
    },
    {
      "anonymous": false,
      "inputs": [
        {
          "indexed": false,
          "internalType": "uint32",
          "name": "eid",
          "type": "uint32"
        },
        {
          "indexed": false,
          "internalType": "bytes32",
          "name": "peer",
          "type": "bytes32"
        }
      ],
      "name": "PeerSet",
      "type": "event"
    },
    {
      "anonymous": false,
      "inputs": [
        {
          "indexed": false,
          "internalType": "address",
          "name": "preCrimeAddress",
          "type": "address"
        }
      ],
      "name": "PreCrimeSet",
      "type": "event"
    },
    {
      "inputs": [],
      "name": "SEND",
      "outputs": [
        {
          "internalType": "uint16",
          "name": "",
          "type": "uint16"
        }
      ],
      "stateMutability": "view",
      "type": "function"
    },
    {
      "inputs": [],
      "name": "SEND_AND_COMPOSE",
      "outputs": [
        {
          "internalType": "uint16",
          "name": "",
          "type": "uint16"
        }
      ],
      "stateMutability": "view",
      "type": "function"
    },
    {
      "inputs": [
        {
          "components": [
            {
              "internalType": "uint32",
              "name": "srcEid",
              "type": "uint32"
            },
            {
              "internalType": "bytes32",
              "name": "sender",
              "type": "bytes32"
            },
            {
              "internalType": "uint64",
              "name": "nonce",
              "type": "uint64"
            }
          ],
          "internalType": "struct Origin",
          "name": "origin",
          "type": "tuple"
        }
      ],
      "name": "allowInitializePath",
      "outputs": [
        {
          "internalType": "bool",
          "name": "",
          "type": "bool"
        }
      ],
      "stateMutability": "view",
      "type": "function"
    },
    {
      "inputs": [],
      "name": "approvalRequired",
      "outputs": [
        {
          "internalType": "bool",
          "name": "",
          "type": "bool"
        }
      ],
      "stateMutability": "pure",
      "type": "function"
    },
    {
      "inputs": [
        {
          "internalType": "uint32",
          "name": "_eid",
          "type": "uint32"
        },
        {
          "internalType": "uint16",
          "name": "_msgType",
          "type": "uint16"
        },
        {
          "internalType": "bytes",
          "name": "_extraOptions",
          "type": "bytes"
        }
      ],
      "name": "combineOptions",
      "outputs": [
        {
          "internalType": "bytes",
          "name": "",
          "type": "bytes"
        }
      ],
      "stateMutability": "view",
      "type": "function"
    },
    {
      "inputs": [],
      "name": "endpoint",
      "outputs": [
        {
          "internalType": "contract ILayerZeroEndpointV2",
          "name": "",
          "type": "address"
        }
      ],
      "stateMutability": "view",
      "type": "function"
    },
    {
      "inputs": [
        {
          "internalType": "uint32",
          "name": "eid",
          "type": "uint32"
        },
        {
          "internalType": "uint16",
          "name": "msgType",
          "type": "uint16"
        }
      ],
      "name": "enforcedOptions",
      "outputs": [
        {
          "internalType": "bytes",
          "name": "enforcedOption",
          "type": "bytes"
        }
      ],
      "stateMutability": "view",
      "type": "function"
    },
    {
      "inputs": [
        {
          "components": [
            {
              "internalType": "uint32",
              "name": "srcEid",
              "type": "uint32"
            },
            {
              "internalType": "bytes32",
              "name": "sender",
              "type": "bytes32"
            },
            {
              "internalType": "uint64",
              "name": "nonce",
              "type": "uint64"
            }
          ],
          "internalType": "struct Origin",
          "name": "",
          "type": "tuple"
        },
        {
          "internalType": "bytes",
          "name": "",
          "type": "bytes"
        },
        {
          "internalType": "address",
          "name": "_sender",
          "type": "address"
        }
      ],
      "name": "isComposeMsgSender",
      "outputs": [
        {
          "internalType": "bool",
          "name": "",
          "type": "bool"
        }
      ],
      "stateMutability": "view",
      "type": "function"
    },
    {
      "inputs": [
        {
          "internalType": "uint32",
          "name": "_eid",
          "type": "uint32"
        },
        {
          "internalType": "bytes32",
          "name": "_peer",
          "type": "bytes32"
        }
      ],
      "name": "isPeer",
      "outputs": [
        {
          "internalType": "bool",
          "name": "",
          "type": "bool"
        }
      ],
      "stateMutability": "view",
      "type": "function"
    },
    {
      "inputs": [
        {
          "components": [
            {
              "internalType": "uint32",
              "name": "srcEid",
              "type": "uint32"
            },
            {
              "internalType": "bytes32",
              "name": "sender",
              "type": "bytes32"
            },
            {
              "internalType": "uint64",
              "name": "nonce",
              "type": "uint64"
            }
          ],
          "internalType": "struct Origin",
          "name": "_origin",
          "type": "tuple"
        },
        {
          "internalType": "bytes32",
          "name": "_guid",
          "type": "bytes32"
        },
        {
          "internalType": "bytes",
          "name": "_message",
          "type": "bytes"
        },
        {
          "internalType": "address",
          "name": "_executor",
          "type": "address"
        },
        {
          "internalType": "bytes",
          "name": "_extraData",
          "type": "bytes"
        }
      ],
      "name": "lzReceive",
      "outputs": [],
      "stateMutability": "payable",
      "type": "function"
    },
    {
      "inputs": [
        {
          "components": [
            {
              "components": [
                {
                  "internalType": "uint32",
                  "name": "srcEid",
                  "type": "uint32"
                },
                {
                  "internalType": "bytes32",
                  "name": "sender",
                  "type": "bytes32"
                },
                {
                  "internalType": "uint64",
                  "name": "nonce",
                  "type": "uint64"
                }
              ],
              "internalType": "struct Origin",
              "name": "origin",
              "type": "tuple"
            },
            {
              "internalType": "uint32",
              "name": "dstEid",
              "type": "uint32"
            },
            {
              "internalType": "address",
              "name": "receiver",
              "type": "address"
            },
            {
              "internalType": "bytes32",
              "name": "guid",
              "type": "bytes32"
            },
            {
              "internalType": "uint256",
              "name": "value",
              "type": "uint256"
            },
            {
              "internalType": "address",
              "name": "executor",
              "type": "address"
            },
            {
              "internalType": "bytes",
              "name": "message",
              "type": "bytes"
            },
            {
              "internalType": "bytes",
              "name": "extraData",
              "type": "bytes"
            }
          ],
          "internalType": "struct InboundPacket[]",
          "name": "_packets",
          "type": "tuple[]"
        }
      ],
      "name": "lzReceiveAndRevert",
      "outputs": [],
      "stateMutability": "payable",
      "type": "function"
    },
    {
      "inputs": [
        {
          "components": [
            {
              "internalType": "uint32",
              "name": "srcEid",
              "type": "uint32"
            },
            {
              "internalType": "bytes32",
              "name": "sender",
              "type": "bytes32"
            },
            {
              "internalType": "uint64",
              "name": "nonce",
              "type": "uint64"
            }
          ],
          "internalType": "struct Origin",
          "name": "_origin",
          "type": "tuple"
        },
        {
          "internalType": "bytes32",
          "name": "_guid",
          "type": "bytes32"
        },
        {
          "internalType": "bytes",
          "name": "_message",
          "type": "bytes"
        },
        {
          "internalType": "address",
          "name": "_executor",
          "type": "address"
        },
        {
          "internalType": "bytes",
          "name": "_extraData",
          "type": "bytes"
        }
      ],
      "name": "lzReceiveSimulate",
      "outputs": [],
      "stateMutability": "payable",
      "type": "function"
    },
    {
      "inputs": [],
      "name": "msgInspector",
      "outputs": [
        {
          "internalType": "address",
          "name": "",
          "type": "address"
        }
      ],
      "stateMutability": "view",
      "type": "function"
    },
    {
      "inputs": [
        {
          "internalType": "uint32",
          "name": "",
          "type": "uint32"
        },
        {
          "internalType": "bytes32",
          "name": "",
          "type": "bytes32"
        }
      ],
      "name": "nextNonce",
      "outputs": [
        {
          "internalType": "uint64",
          "name": "nonce",
          "type": "uint64"
        }
      ],
      "stateMutability": "view",
      "type": "function"
    },
    {
      "inputs": [],
      "name": "oApp",
      "outputs": [
        {
          "internalType": "address",
          "name": "",
          "type": "address"
        }
      ],
      "stateMutability": "view",
      "type": "function"
    },
    {
      "inputs": [],
      "name": "oAppVersion",
      "outputs": [
        {
          "internalType": "uint64",
          "name": "senderVersion",
          "type": "uint64"
        },
        {
          "internalType": "uint64",
          "name": "receiverVersion",
          "type": "uint64"
        }
      ],
      "stateMutability": "pure",
      "type": "function"
    },
    {
      "inputs": [],
      "name": "onftVersion",
      "outputs": [
        {
          "internalType": "bytes4",
          "name": "interfaceId",
          "type": "bytes4"
        },
        {
          "internalType": "uint64",
          "name": "version",
          "type": "uint64"
        }
      ],
      "stateMutability": "pure",
      "type": "function"
    },
    {
      "inputs": [],
      "name": "owner",
      "outputs": [
        {
          "internalType": "address",
          "name": "",
          "type": "address"
        }
      ],
      "stateMutability": "view",
      "type": "function"
    },
    {
      "inputs": [
        {
          "internalType": "uint32",
          "name": "eid",
          "type": "uint32"
        }
      ],
      "name": "peers",
      "outputs": [
        {
          "internalType": "bytes32",
          "name": "peer",
          "type": "bytes32"
        }
      ],
      "stateMutability": "view",
      "type": "function"
    },
    {
      "inputs": [],
      "name": "preCrime",
      "outputs": [
        {
          "internalType": "address",
          "name": "",
          "type": "address"
        }
      ],
      "stateMutability": "view",
      "type": "function"
    },
    {
      "inputs": [
        {
          "components": [
            {
              "internalType": "uint32",
              "name": "dstEid",
              "type": "uint32"
            },
            {
              "internalType": "bytes32",
              "name": "to",
              "type": "bytes32"
            },
            {
              "internalType": "uint256",
              "name": "tokenId",
              "type": "uint256"
            },
            {
              "internalType": "bytes",
              "name": "extraOptions",
              "type": "bytes"
            },
            {
              "internalType": "bytes",
              "name": "composeMsg",
              "type": "bytes"
            },
            {
              "internalType": "bytes",
              "name": "onftCmd",
              "type": "bytes"
            }
          ],
          "internalType": "struct SendParam",
          "name": "_sendParam",
          "type": "tuple"
        },
        {
          "internalType": "bool",
          "name": "_payInLzToken",
          "type": "bool"
        }
      ],
      "name": "quoteSend",
      "outputs": [
        {
          "components": [
            {
              "internalType": "uint256",
              "name": "nativeFee",
              "type": "uint256"
            },
            {
              "internalType": "uint256",
              "name": "lzTokenFee",
              "type": "uint256"
            }
          ],
          "internalType": "struct MessagingFee",
          "name": "msgFee",
          "type": "tuple"
        }
      ],
      "stateMutability": "view",
      "type": "function"
    },
    {
      "inputs": [],
      "name": "renounceOwnership",
      "outputs": [],
      "stateMutability": "nonpayable",
      "type": "function"
    },
    {
      "inputs": [
        {
          "components": [
            {
              "internalType": "uint32",
              "name": "dstEid",
              "type": "uint32"
            },
            {
              "internalType": "bytes32",
              "name": "to",
              "type": "bytes32"
            },
            {
              "internalType": "uint256",
              "name": "tokenId",
              "type": "uint256"
            },
            {
              "internalType": "bytes",
              "name": "extraOptions",
              "type": "bytes"
            },
            {
              "internalType": "bytes",
              "name": "composeMsg",
              "type": "bytes"
            },
            {
              "internalType": "bytes",
              "name": "onftCmd",
              "type": "bytes"
            }
          ],
          "internalType": "struct SendParam",
          "name": "_sendParam",
          "type": "tuple"
        },
        {
          "components": [
            {
              "internalType": "uint256",
              "name": "nativeFee",
              "type": "uint256"
            },
            {
              "internalType": "uint256",
              "name": "lzTokenFee",
              "type": "uint256"
            }
          ],
          "internalType": "struct MessagingFee",
          "name": "_fee",
          "type": "tuple"
        },
        {
          "internalType": "address",
          "name": "_refundAddress",
          "type": "address"
        }
      ],
      "name": "send",
      "outputs": [
        {
          "components": [
            {
              "internalType": "bytes32",
              "name": "guid",
              "type": "bytes32"
            },
            {
              "internalType": "uint64",
              "name": "nonce",
              "type": "uint64"
            },
            {
              "components": [
                {
                  "internalType": "uint256",
                  "name": "nativeFee",
                  "type": "uint256"
                },
                {
                  "internalType": "uint256",
                  "name": "lzTokenFee",
                  "type": "uint256"
                }
              ],
              "internalType": "struct MessagingFee",
              "name": "fee",
              "type": "tuple"
            }
          ],
          "internalType": "struct MessagingReceipt",
          "name": "msgReceipt",
          "type": "tuple"
        }
      ],
      "stateMutability": "payable",
      "type": "function"
    },
    {
      "inputs": [
        {
          "internalType": "address",
          "name": "_delegate",
          "type": "address"
        }
      ],
      "name": "setDelegate",
      "outputs": [],
      "stateMutability": "nonpayable",
      "type": "function"
    },
    {
      "inputs": [
        {
          "components": [
            {
              "internalType": "uint32",
              "name": "eid",
              "type": "uint32"
            },
            {
              "internalType": "uint16",
              "name": "msgType",
              "type": "uint16"
            },
            {
              "internalType": "bytes",
              "name": "options",
              "type": "bytes"
            }
          ],
          "internalType": "struct EnforcedOptionParam[]",
          "name": "_enforcedOptions",
          "type": "tuple[]"
        }
      ],
      "name": "setEnforcedOptions",
      "outputs": [],
      "stateMutability": "nonpayable",
      "type": "function"
    },
    {
      "inputs": [
        {
          "internalType": "address",
          "name": "_msgInspector",
          "type": "address"
        }
      ],
      "name": "setMsgInspector",
      "outputs": [],
      "stateMutability": "nonpayable",
      "type": "function"
    },
    {
      "inputs": [
        {
          "internalType": "uint32",
          "name": "_eid",
          "type": "uint32"
        },
        {
          "internalType": "bytes32",
          "name": "_peer",
          "type": "bytes32"
        }
      ],
      "name": "setPeer",
      "outputs": [],
      "stateMutability": "nonpayable",
      "type": "function"
    },
    {
      "inputs": [
        {
          "internalType": "address",
          "name": "_preCrime",
          "type": "address"
        }
      ],
      "name": "setPreCrime",
      "outputs": [],
      "stateMutability": "nonpayable",
      "type": "function"
    },
    {
      "inputs": [
        {
          "internalType": "uint256",
          "name": "tokenId",
          "type": "uint256"
        }
      ],
      "name": "stake",
      "outputs": [],
      "stateMutability": "nonpayable",
      "type": "function"
    },
    {
      "inputs": [],
      "name": "token",
      "outputs": [
        {
          "internalType": "address",
          "name": "",
          "type": "address"
        }
      ],
      "stateMutability": "view",
      "type": "function"
    },
    {
      "inputs": [
        {
          "internalType": "address",
          "name": "newOwner",
          "type": "address"
        }
      ],
      "name": "transferOwnership",
      "outputs": [],
      "stateMutability": "nonpayable",
      "type": "function"
    },
    {
      "inputs": [
        {
          "internalType": "uint256",
          "name": "tokenId",
          "type": "uint256"
        }
      ],
      "name": "unstake",
      "outputs": [],
      "stateMutability": "nonpayable",
      "type": "function"
    }
  ],
  "transactionHash": "0xf6d259e02b9b335a65ee5b451613de277c855b29f6b54c4f4c2ee2cb1ac61c6b",
  "args": [
    "0x9e1F2c3432ddCe2AAe0f605f38e3234EE6fbC91a",
    "0x6EDCE65403992e310A62460808c4b910D972f10f",
    "0xD69D1335Dc23a4C2A9d62AB8df6F837310510424"
  ],
  "numDeployments": 1,
  "solcInputHash": "27ef027a87a95d5f2c9dc90aee3db964",
  "bytecode": "0x60c06040523480156200001157600080fd5b50604051620028b6380380620028b6833981016040819052620000349162000195565b828282818181818181806001600160a01b0381166200006d57604051631e4fbdf760e01b81526000600482015260240160405180910390fd5b620000788162000128565b506001600160a01b038083166080528116620000a757604051632d618d8160e21b815260040160405180910390fd5b60805160405163ca5eb5e160e01b81526001600160a01b0383811660048301529091169063ca5eb5e190602401600060405180830381600087803b158015620000ef57600080fd5b505af115801562000104573d6000803e3d6000fd5b5050506001600160a01b0390991660a05250620001df9a5050505050505050505050565b600080546001600160a01b038381166001600160a01b0319831681178455604051919092169283917f8be0079c531659141344cd1fd0a4f28419497f9722a3daafe3b4186f6b6457e09190a35050565b80516001600160a01b03811681146200019057600080fd5b919050565b600080600060608486031215620001ab57600080fd5b620001b68462000178565b9250620001c66020850162000178565b9150620001d66040850162000178565b90509250925092565b60805160a05161267262000244600039600081816106040152818161100a01526113060152600081816103660152818161064a01528181610cee01528181610f0c015281816111d5015281816115230152818161171f01526117d601526126726000f3fe6080604052600436106101e35760003560e01c80639f68b96411610102578063bd815db011610095578063d424388511610064578063d4243885146105b5578063f2fde38b146105d5578063fc0c546a146105f5578063ff7bd03d1461062857600080fd5b8063bd815db014610542578063c6414e7b14610555578063ca5eb5e114610582578063d045a0dc146105a257600080fd5b8063b731ea0a116100d1578063b731ea0a146104a7578063b98bd070146104c7578063bb0b6a53146104e7578063bc70b3541461052257600080fd5b80639f68b96414610436578063a694fc3a1461044a578063a72f5dd81461046a578063b21a33e41461049257600080fd5b80635535d4611161017a578063715018a611610149578063715018a6146103a85780637d25a05e146103bd57806382413eac146103f85780638da5cb5b1461041857600080fd5b80635535d461146102f75780635a0dfe4d146103245780635e280f11146103545780636fc1b31e1461038857600080fd5b806321eb730b116101b657806321eb730b146102845780632e17de78146102a45780633400288b146102c457806352ae2879146102e457600080fd5b8063111ecdad146101e857806313137d651461022557806317442b701461023a5780631f5e13341461025c575b600080fd5b3480156101f457600080fd5b50600454610208906001600160a01b031681565b6040516001600160a01b0390911681526020015b60405180910390f35b610238610233366004611980565b610648565b005b34801561024657600080fd5b506040805160018152600260208201520161021c565b34801561026857600080fd5b50610271600181565b60405161ffff909116815260200161021c565b610297610292366004611a31565b610708565b60405161021c9190611a9e565b3480156102b057600080fd5b506102386102bf366004611ae0565b6107c1565b3480156102d057600080fd5b506102386102df366004611b12565b6107d8565b3480156102f057600080fd5b5030610208565b34801561030357600080fd5b50610317610312366004611b4e565b6107ee565b60405161021c9190611bd1565b34801561033057600080fd5b5061034461033f366004611b12565b610893565b604051901515815260200161021c565b34801561036057600080fd5b506102087f000000000000000000000000000000000000000000000000000000000000000081565b34801561039457600080fd5b506102386103a3366004611be4565b6108b2565b3480156103b457600080fd5b5061023861090f565b3480156103c957600080fd5b506103e06103d8366004611b12565b600092915050565b6040516001600160401b03909116815260200161021c565b34801561040457600080fd5b50610344610413366004611c01565b610923565b34801561042457600080fd5b506000546001600160a01b0316610208565b34801561044257600080fd5b506001610344565b34801561045657600080fd5b50610238610465366004611ae0565b610938565b34801561047657600080fd5b50604080516311f0c6d360e11b8152600160208201520161021c565b34801561049e57600080fd5b50610271600281565b3480156104b357600080fd5b50600254610208906001600160a01b031681565b3480156104d357600080fd5b506102386104e2366004611cab565b61094c565b3480156104f357600080fd5b50610514610502366004611cec565b60016020526000908152604090205481565b60405190815260200161021c565b34801561052e57600080fd5b5061031761053d366004611d07565b610966565b610238610550366004611cab565b610b0e565b34801561056157600080fd5b50610575610570366004611d75565b610c81565b60405161021c9190611dc6565b34801561058e57600080fd5b5061023861059d366004611be4565b610cc7565b6102386105b0366004611980565b610d4d565b3480156105c157600080fd5b506102386105d0366004611be4565b610d7c565b3480156105e157600080fd5b506102386105f0366004611be4565b610dd2565b34801561060157600080fd5b507f0000000000000000000000000000000000000000000000000000000000000000610208565b34801561063457600080fd5b50610344610643366004611ddd565b610e0d565b7f00000000000000000000000000000000000000000000000000000000000000006001600160a01b03163314610698576040516391ac5e4f60e01b81523360048201526024015b60405180910390fd5b602087018035906106b2906106ad908a611cec565b610e43565b146106f0576106c46020880188611cec565b60405163309afaf360e21b815263ffffffff90911660048201526020880135602482015260440161068f565b6106ff87878787878787610e7f565b50505050505050565b6107106118c4565b61072b3360408601356107266020880188611cec565b610fde565b60008061073786611063565b909250905061076361074c6020880188611cec565b838361075d368a90038a018a611e89565b886111a2565b805190935033907f986156872b2ee0022b9585231dbbfde457f87f8a16b6c45e1a81c54c4ad8351f61079860208a018a611cec565b6040805163ffffffff9092168252808b013560208301520160405180910390a350509392505050565b6107c96112ad565b6107d5338260006112da565b50565b6107e06112ad565b6107ea8282611335565b5050565b60036020908152600092835260408084209091529082529020805461081290611ebb565b80601f016020809104026020016040519081016040528092919081815260200182805461083e90611ebb565b801561088b5780601f106108605761010080835404028352916020019161088b565b820191906000526020600020905b81548152906001019060200180831161086e57829003601f168201915b505050505081565b63ffffffff821660009081526001602052604090205481145b92915050565b6108ba6112ad565b600480546001600160a01b0319166001600160a01b0383169081179091556040519081527ff0be4f1e87349231d80c36b33f9e8639658eeaf474014dee15a3e6a4d4414197906020015b60405180910390a150565b6109176112ad565b610921600061138a565b565b6001600160a01b03811630145b949350505050565b6109406112ad565b6107d533826000610fde565b6109546112ad565b6107ea6109618284611f16565b6113da565b63ffffffff8416600090815260036020908152604080832061ffff8716845290915281208054606092919061099a90611ebb565b80601f01602080910402602001604051908101604052809291908181526020018280546109c690611ebb565b8015610a135780601f106109e857610100808354040283529160200191610a13565b820191906000526020600020905b8154815290600101906020018083116109f657829003601f168201915b505050505090508051600003610a635783838080601f0160208091040260200160405190810160405280939291908181526020018383808284376000920191909152509294506109309350505050565b6000839003610a73579050610930565b60028310610af157610aba84848080601f0160208091040260200160405190810160405280939291908181526020018383808284376000920191909152506114e192505050565b80610ac8846002818861202b565b604051602001610ada93929190612055565b604051602081830303815290604052915050610930565b8383604051639a6d49cd60e01b815260040161068f9291906120a6565b60005b81811015610c005736838383818110610b2c57610b2c6120ba565b9050602002810190610b3e91906120d0565b9050610b5a610b506020830183611cec565b6020830135610893565b610b645750610bf8565b3063d045a0dc60c08301358360a0810135610b836101008301836120f1565b610b94610100890160e08a01611be4565b610ba26101208a018a6120f1565b6040518963ffffffff1660e01b8152600401610bc4979695949392919061214c565b6000604051808303818588803b158015610bdd57600080fd5b505af1158015610bf1573d6000803e3d6000fd5b5050505050505b600101610b11565b50336001600160a01b0316638e9e70996040518163ffffffff1660e01b8152600401600060405180830381865afa158015610c3f573d6000803e3d6000fd5b505050506040513d6000823e601f3d908101601f19168201604052610c6791908101906121d2565b604051638351eea760e01b815260040161068f9190611bd1565b6040805180820190915260008082526020820152600080610ca185611063565b9092509050610cbe610cb66020870187611cec565b83838761150d565b95945050505050565b610ccf6112ad565b60405163ca5eb5e160e01b81526001600160a01b0382811660048301527f0000000000000000000000000000000000000000000000000000000000000000169063ca5eb5e190602401600060405180830381600087803b158015610d3257600080fd5b505af1158015610d46573d6000803e3d6000fd5b5050505050565b333014610d6d5760405163029a949d60e31b815260040160405180910390fd5b6106ff878787878787876106f0565b610d846112ad565b600280546001600160a01b0319166001600160a01b0383169081179091556040519081527fd48d879cef83a1c0bdda516f27b13ddb1b3f8bbac1c9e1511bb2a659c242776090602001610904565b610dda6112ad565b6001600160a01b038116610e0457604051631e4fbdf760e01b81526000600482015260240161068f565b6107d58161138a565b6000602082018035906001908390610e259086611cec565b63ffffffff1681526020810191909152604001600020541492915050565b63ffffffff8116600090815260016020526040812054806108ac5760405163f6ff4fb760e01b815263ffffffff8416600482015260240161068f565b6000610e91610e8e87876115e5565b90565b90506000610e9f8787611604565b9050610eb88282610eb360208d018d611cec565b6112da565b6040861115610f7c576000610ef2610ed660608c0160408d0161223f565b610ee360208d018d611cec565b610eed8b8b611614565b61165f565b604051633e5ac80960e11b81529091506001600160a01b037f00000000000000000000000000000000000000000000000000000000000000001690637cb5901290610f489086908d90600090879060040161225c565b600060405180830381600087803b158015610f6257600080fd5b505af1158015610f76573d6000803e3d6000fd5b50505050505b6001600160a01b038216887f7883fa30ea56937810e36990b0bbb8d629d0cf59f68baf8431ff657cebe7eef5610fb560208d018d611cec565b6040805163ffffffff9092168252602082018690520160405180910390a3505050505050505050565b6040516323b872dd60e01b81526001600160a01b038481166004830152306024830152604482018490527f000000000000000000000000000000000000000000000000000000000000000016906323b872dd906064015b600060405180830381600087803b15801561104f57600080fd5b505af11580156106ff573d6000803e3d6000fd5b606080602083013561108857604051631e4ec46b60e01b815260040160405180910390fd5b60006110de602085013560408601356110a460808801886120f1565b8080601f01602080910402602001604051908101604052809392919081815260200183838082843760009201919091525061168e92505050565b90935090506000816110f15760016110f4565b60025b90506111146111066020870187611cec565b8261053d60608901896120f1565b6004549093506001600160a01b0316801561119a5760405163043a78eb60e01b81526001600160a01b0382169063043a78eb906111579088908890600401612297565b602060405180830381865afa158015611174573d6000803e3d6000fd5b505050506040513d601f19601f8201168201806040525081019061119891906122bc565b505b505050915091565b6111aa6118c4565b60006111b984600001516116f3565b6020850151909150156111d3576111d3846020015161171b565b7f00000000000000000000000000000000000000000000000000000000000000006001600160a01b0316632637a450826040518060a001604052808b63ffffffff1681526020016112238c610e43565b81526020018a815260200189815260200160008960200151111515815250866040518463ffffffff1660e01b815260040161125f9291906122d9565b60806040518083038185885af115801561127d573d6000803e3d6000fd5b50505050506040513d601f19601f820116820180604052508101906112a29190612382565b979650505050505050565b6000546001600160a01b031633146109215760405163118cdaa760e01b815233600482015260240161068f565b6040516323b872dd60e01b81523060048201526001600160a01b038481166024830152604482018490527f000000000000000000000000000000000000000000000000000000000000000016906323b872dd90606401611035565b63ffffffff8216600081815260016020908152604091829020849055815192835282018390527f238399d427b947898edb290f5ff0f9109849b1c3ba196a42e35f00c50a54b98b910160405180910390a15050565b600080546001600160a01b038381166001600160a01b0319831681178455604051919092169283917f8be0079c531659141344cd1fd0a4f28419497f9722a3daafe3b4186f6b6457e09190a35050565b60005b81518110156114b15761140c8282815181106113fb576113fb6120ba565b6020026020010151604001516114e1565b81818151811061141e5761141e6120ba565b60200260200101516040015160036000848481518110611440576114406120ba565b60200260200101516000015163ffffffff1663ffffffff168152602001908152602001600020600084848151811061147a5761147a6120ba565b60200260200101516020015161ffff1661ffff16815260200190815260200160002090816114a8919061241d565b506001016113dd565b507fbe4864a8e820971c0247f5992e2da559595f7bf076a21cb5928d443d2a13b6748160405161090491906124dc565b600281015161ffff81166003146107ea5781604051639a6d49cd60e01b815260040161068f9190611bd1565b60408051808201909152600080825260208201527f00000000000000000000000000000000000000000000000000000000000000006001600160a01b031663ddc28c586040518060a001604052808863ffffffff16815260200161157089610e43565b8152602001878152602001868152602001851515815250306040518363ffffffff1660e01b81526004016115a59291906122d9565b6040805180830381865afa1580156115c1573d6000803e3d6000fd5b505050506040513d601f19601f82011682018060405250810190610cbe9190612567565b60006115f4602082848661202b565b6115fd91612583565b9392505050565b60006115f460406020848661202b565b6060611623826040818661202b565b8080601f016020809104026020016040519081016040528093929190818152602001838380828437600092019190915250929695505050505050565b6060838383604051602001611676939291906125a1565b60405160208183030381529060405290509392505050565b80516060901515806116c25760408051602081018790529081018590526060016040516020818303038152906040526116e9565b848433856040516020016116d994939291906125eb565b6040516020818303038152906040525b9150935093915050565b6000813414611717576040516304fb820960e51b815234600482015260240161068f565b5090565b60007f00000000000000000000000000000000000000000000000000000000000000006001600160a01b031663e4fe1d946040518163ffffffff1660e01b8152600401602060405180830381865afa15801561177b573d6000803e3d6000fd5b505050506040513d601f19601f8201168201806040525081019061179f919061261f565b90506001600160a01b0381166117c8576040516329b99a9560e11b815260040160405180910390fd5b6040805133602482018190527f00000000000000000000000000000000000000000000000000000000000000006001600160a01b03818116604485015260648085018890528551808603909101815260849094019094526020830180516001600160e01b03166323b872dd60e01b1790526107ea93851692869061184d908590611853565b50505050565b600080602060008451602086016000885af180611876576040513d6000823e3d81fd5b50506000513d9150811561188e57806001141561189b565b6001600160a01b0384163b155b1561184d57604051635274afe760e01b81526001600160a01b038516600482015260240161068f565b60405180606001604052806000801916815260200160006001600160401b03168152602001611906604051806040016040528060008152602001600081525090565b905290565b60006060828403121561191d57600080fd5b50919050565b60008083601f84011261193557600080fd5b5081356001600160401b0381111561194c57600080fd5b60208301915083602082850101111561196457600080fd5b9250929050565b6001600160a01b03811681146107d557600080fd5b600080600080600080600060e0888a03121561199b57600080fd5b6119a5898961190b565b96506060880135955060808801356001600160401b03808211156119c857600080fd5b6119d48b838c01611923565b909750955060a08a013591506119e98261196b565b90935060c089013590808211156119ff57600080fd5b50611a0c8a828b01611923565b989b979a50959850939692959293505050565b600060c0828403121561191d57600080fd5b60008060008385036080811215611a4757600080fd5b84356001600160401b03811115611a5d57600080fd5b611a6987828801611a1f565b9450506040601f1982011215611a7e57600080fd5b506020840191506060840135611a938161196b565b809150509250925092565b6000608082019050825182526001600160401b0360208401511660208301526040830151611ad9604084018280518252602090810151910152565b5092915050565b600060208284031215611af257600080fd5b5035919050565b803563ffffffff81168114611b0d57600080fd5b919050565b60008060408385031215611b2557600080fd5b611b2e83611af9565b946020939093013593505050565b803561ffff81168114611b0d57600080fd5b60008060408385031215611b6157600080fd5b611b6a83611af9565b9150611b7860208401611b3c565b90509250929050565b60005b83811015611b9c578181015183820152602001611b84565b50506000910152565b60008151808452611bbd816020860160208601611b81565b601f01601f19169290920160200192915050565b6020815260006115fd6020830184611ba5565b600060208284031215611bf657600080fd5b81356115fd8161196b565b60008060008060a08587031215611c1757600080fd5b611c21868661190b565b935060608501356001600160401b03811115611c3c57600080fd5b611c4887828801611923565b9094509250506080850135611c5c8161196b565b939692955090935050565b60008083601f840112611c7957600080fd5b5081356001600160401b03811115611c9057600080fd5b6020830191508360208260051b850101111561196457600080fd5b60008060208385031215611cbe57600080fd5b82356001600160401b03811115611cd457600080fd5b611ce085828601611c67565b90969095509350505050565b600060208284031215611cfe57600080fd5b6115fd82611af9565b60008060008060608587031215611d1d57600080fd5b611d2685611af9565b9350611d3460208601611b3c565b925060408501356001600160401b03811115611d4f57600080fd5b611d5b87828801611923565b95989497509550505050565b80151581146107d557600080fd5b60008060408385031215611d8857600080fd5b82356001600160401b03811115611d9e57600080fd5b611daa85828601611a1f565b9250506020830135611dbb81611d67565b809150509250929050565b8151815260208083015190820152604081016108ac565b600060608284031215611def57600080fd5b6115fd838361190b565b634e487b7160e01b600052604160045260246000fd5b604080519081016001600160401b0381118282101715611e3157611e31611df9565b60405290565b604051606081016001600160401b0381118282101715611e3157611e31611df9565b604051601f8201601f191681016001600160401b0381118282101715611e8157611e81611df9565b604052919050565b600060408284031215611e9b57600080fd5b611ea3611e0f565b82358152602083013560208201528091505092915050565b600181811c90821680611ecf57607f821691505b60208210810361191d57634e487b7160e01b600052602260045260246000fd5b60006001600160401b03821115611f0857611f08611df9565b50601f01601f191660200190565b60006001600160401b0380841115611f3057611f30611df9565b8360051b6020611f41818301611e59565b868152918501918181019036841115611f5957600080fd5b865b8481101561201f57803586811115611f735760008081fd5b88016060368290031215611f875760008081fd5b611f8f611e37565b611f9882611af9565b8152611fa5868301611b3c565b8682015260408083013589811115611fbd5760008081fd5b929092019136601f840112611fd25760008081fd5b8235611fe5611fe082611eef565b611e59565b8181523689838701011115611ffa5760008081fd5b818986018a830137600091810189019190915290820152845250918301918301611f5b565b50979650505050505050565b6000808585111561203b57600080fd5b8386111561204857600080fd5b5050820193919092039150565b60008451612067818460208901611b81565b8201838582376000930192835250909392505050565b81835281816020850137506000828201602090810191909152601f909101601f19169091010190565b60208152600061093060208301848661207d565b634e487b7160e01b600052603260045260246000fd5b6000823561013e198336030181126120e757600080fd5b9190910192915050565b6000808335601e1984360301811261210857600080fd5b8301803591506001600160401b0382111561212257600080fd5b60200191503681900382131561196457600080fd5b6001600160401b03811681146107d557600080fd5b63ffffffff61215a89611af9565b168152602088013560208201526000604089013561217781612137565b6001600160401b03811660408401525087606083015260e060808301526121a260e08301878961207d565b6001600160a01b03861660a084015282810360c08401526121c481858761207d565b9a9950505050505050505050565b6000602082840312156121e457600080fd5b81516001600160401b038111156121fa57600080fd5b8201601f8101841361220b57600080fd5b8051612219611fe082611eef565b81815285602083850101111561222e57600080fd5b610cbe826020830160208601611b81565b60006020828403121561225157600080fd5b81356115fd81612137565b60018060a01b038516815283602082015261ffff8316604082015260806060820152600061228d6080830184611ba5565b9695505050505050565b6040815260006122aa6040830185611ba5565b8281036020840152610cbe8185611ba5565b6000602082840312156122ce57600080fd5b81516115fd81611d67565b6040815263ffffffff8351166040820152602083015160608201526000604084015160a0608084015261230f60e0840182611ba5565b90506060850151603f198483030160a085015261232c8282611ba5565b60809690960151151560c08501525050506001600160a01b039190911660209091015290565b60006040828403121561236457600080fd5b61236c611e0f565b9050815181526020820151602082015292915050565b60006080828403121561239457600080fd5b61239c611e37565b8251815260208301516123ae81612137565b60208201526123c08460408501612352565b60408201529392505050565b601f821115612418576000816000526020600020601f850160051c810160208610156123f55750805b601f850160051c820191505b8181101561241457828155600101612401565b5050505b505050565b81516001600160401b0381111561243657612436611df9565b61244a816124448454611ebb565b846123cc565b602080601f83116001811461247f57600084156124675750858301515b600019600386901b1c1916600185901b178555612414565b600085815260208120601f198616915b828110156124ae5788860151825594840194600190910190840161248f565b50858210156124cc5787850151600019600388901b60f8161c191681555b5050505050600190811b01905550565b600060208083018184528085518083526040925060408601915060408160051b87010184880160005b8381101561255957888303603f190185528151805163ffffffff1684528781015161ffff1688850152860151606087850181905261254581860183611ba5565b968901969450505090860190600101612505565b509098975050505050505050565b60006040828403121561257957600080fd5b6115fd8383612352565b803560208310156108ac57600019602084900360031b1b1692915050565b60c084901b6001600160c01b031916815260e083901b6001600160e01b031916600882015281516000906125dc81600c850160208701611b81565b91909101600c01949350505050565b8481528360208201528260408201526000825161260f816060850160208701611b81565b9190910160600195945050505050565b60006020828403121561263157600080fd5b81516115fd8161196b56fea2646970667358221220ff714f49c8269a2fd4d58e958a8cb3a04b730b1e77808c23140a04a4df4efcd264736f6c63430008160033",
  "devdoc": {
    "errors": {
      "OwnableInvalidOwner(address)": [
        {
          "details": "The owner is not a valid owner account. (eg. `address(0)`)"
        }
      ],
      "OwnableUnauthorizedAccount(address)": [
        {
          "details": "The caller account is not authorized to perform an operation."
        }
      ],
      "SafeERC20FailedOperation(address)": [
        {
          "details": "An operation with an ERC-20 token failed."
        }
      ]
    },
    "events": {
      "PreCrimeSet(address)": {
        "details": "Emitted when the preCrime contract address is set.",
        "params": {
          "preCrimeAddress": "The address of the preCrime contract."
        }
      }
    },
    "kind": "dev",
    "methods": {
      "allowInitializePath((uint32,bytes32,uint64))": {
        "details": "This indicates to the endpoint that the OApp has enabled msgs for this particular path to be received.This defaults to assuming if a peer has been set, its initialized. Can be overridden by the OApp if there is other logic to determine this.",
        "params": {
          "origin": "The origin information containing the source endpoint and sender address."
        },
        "returns": {
          "_0": "Whether the path has been initialized."
        }
      },
      "approvalRequired()": {
        "details": "In the case of ONFT where the contract IS the token, approval is NOT required.",
        "returns": {
          "_0": "requiresApproval Needs approval of the underlying token implementation."
        }
      },
      "combineOptions(uint32,uint16,bytes)": {
        "details": "If there is an enforced lzReceive option: - {gasLimit: 200k, msg.value: 1 ether} AND a caller supplies a lzReceive option: {gasLimit: 100k, msg.value: 0.5 ether} - The resulting options will be {gasLimit: 300k, msg.value: 1.5 ether} when the message is executed on the remote lzReceive() function.This presence of duplicated options is handled off-chain in the verifier/executor.",
        "params": {
          "_eid": "The endpoint ID.",
          "_extraOptions": "Additional options passed by the caller.",
          "_msgType": "The OAPP message type."
        },
        "returns": {
          "_0": "options The combination of caller specified options AND enforced options."
        }
      },
      "isComposeMsgSender((uint32,bytes32,uint64),bytes,address)": {
        "details": "_origin The origin information containing the source endpoint and sender address.  - srcEid: The source chain endpoint ID.  - sender: The sender address on the src chain.  - nonce: The nonce of the message._message The lzReceive payload.Applications can optionally choose to implement separate composeMsg senders that are NOT the bridging layer.The default sender IS the OAppReceiver implementer.",
        "params": {
          "_sender": "The sender address."
        },
        "returns": {
          "_0": "isSender Is a valid sender."
        }
      },
      "isPeer(uint32,bytes32)": {
        "details": "Check if the peer is considered 'trusted' by the OApp.Enables OAppPreCrimeSimulator to check whether a potential Inbound Packet is from a trusted source.",
        "params": {
          "_eid": "The endpoint ID to check.",
          "_peer": "The peer to check."
        },
        "returns": {
          "_0": "Whether the peer passed is considered 'trusted' by the OApp."
        }
      },
      "lzReceive((uint32,bytes32,uint64),bytes32,bytes,address,bytes)": {
        "details": "Entry point for receiving messages or packets from the endpoint.Entry point for receiving msg/packet from the LayerZero endpoint.",
        "params": {
          "_executor": "The address of the executor for the received message.",
          "_extraData": "Additional arbitrary data provided by the corresponding executor.",
          "_guid": "The unique identifier for the received LayerZero message.",
          "_message": "The payload of the received message.",
          "_origin": "The origin information containing the source endpoint and sender address.  - srcEid: The source chain endpoint ID.  - sender: The sender address on the src chain.  - nonce: The nonce of the message."
        }
      },
      "lzReceiveAndRevert(((uint32,bytes32,uint64),uint32,address,bytes32,uint256,address,bytes,bytes)[])": {
        "details": "Interface for pre-crime simulations. Always reverts at the end with the simulation results.WARNING: MUST revert at the end with the simulation results.Gives the preCrime implementation the ability to mock sending packets to the lzReceive function, WITHOUT actually executing them.",
        "params": {
          "_packets": "An array of InboundPacket objects representing received packets to be delivered."
        }
      },
      "lzReceiveSimulate((uint32,bytes32,uint64),bytes32,bytes,address,bytes)": {
        "details": "Is effectively an internal function because msg.sender must be address(this). Allows resetting the call stack for 'internal' calls.",
        "params": {
          "_executor": "The executor address for the packet.",
          "_extraData": "Additional data for the packet.",
          "_guid": "The unique identifier of the packet.",
          "_message": "The message payload of the packet.",
          "_origin": "The origin information containing the source endpoint and sender address.  - srcEid: The source chain endpoint ID.  - sender: The sender address on the src chain.  - nonce: The nonce of the message."
        }
      },
      "nextNonce(uint32,bytes32)": {
        "details": "_srcEid The source endpoint ID._sender The sender address.The path nonce starts from 1. If 0 is returned it means that there is NO nonce ordered enforcement.Is required by the off-chain executor to determine the OApp expects msg execution is ordered.This is also enforced by the OApp.By default this is NOT enabled. ie. nextNonce is hardcoded to return 0.",
        "returns": {
          "nonce": "The next nonce."
        }
      },
      "oApp()": {
        "details": "Retrieves the address of the OApp contract.The simulator contract is the base contract for the OApp by default.If the simulator is a separate contract, override this function.",
        "returns": {
          "_0": "The address of the OApp contract."
        }
      },
      "oAppVersion()": {
        "returns": {
          "receiverVersion": "The version of the OAppReceiver.sol implementation.",
          "senderVersion": "The version of the OAppSender.sol implementation."
        }
      },
      "onftVersion()": {
        "details": "version: Indicates a cross-chain compatible msg encoding with other ONFTs.If a new feature is added to the ONFT cross-chain msg encoding, the version will be incremented.ie. localONFT version(x,1) CAN send messages to remoteONFT version(x,1)",
        "returns": {
          "interfaceId": "The interface ID (0x23e18da6).",
          "version": "The version."
        }
      },
      "owner()": {
        "details": "Returns the address of the current owner."
      },
      "quoteSend((uint32,bytes32,uint256,bytes,bytes,bytes),bool)": {
        "details": "MessagingFee: LayerZero msg fee  - nativeFee: The native fee.  - lzTokenFee: The lzToken fee.",
        "params": {
          "_payInLzToken": "Flag indicating whether the caller is paying in the LZ token.",
          "_sendParam": "The parameters for the send() operation."
        },
        "returns": {
          "msgFee": "fee The calculated LayerZero messaging fee from the send() operation."
        }
      },
      "renounceOwnership()": {
        "details": "Leaves the contract without owner. It will not be possible to call `onlyOwner` functions. Can only be called by the current owner. NOTE: Renouncing ownership will leave the contract without an owner, thereby disabling any functionality that is only available to the owner."
      },
      "send((uint32,bytes32,uint256,bytes,bytes,bytes),(uint256,uint256),address)": {
        "details": "MessagingReceipt: LayerZero msg receipt  - guid: The unique identifier for the sent message.  - nonce: The nonce of the sent message.  - fee: The LayerZero fee incurred for the message.",
        "params": {
          "_fee": "The fee information supplied by the caller.      - nativeFee: The native fee.      - lzTokenFee: The lzToken fee.",
          "_refundAddress": "The address to receive any excess funds from fees etc. on the src.",
          "_sendParam": "The parameters for the send operation."
        },
        "returns": {
          "msgReceipt": "receipt The LayerZero messaging receipt from the send() operation."
        }
      },
      "setDelegate(address)": {
        "details": "Only the owner/admin of the OApp can call this function.Provides the ability for a delegate to set configs, on behalf of the OApp, directly on the Endpoint contract.",
        "params": {
          "_delegate": "The address of the delegate to be set."
        }
      },
      "setEnforcedOptions((uint32,uint16,bytes)[])": {
        "details": "Sets the enforced options for specific endpoint and message type combinations.Only the owner/admin of the OApp can call this function.Provides a way for the OApp to enforce things like paying for PreCrime, AND/OR minimum dst lzReceive gas amounts etc.These enforced options can vary as the potential options/execution on the remote may differ as per the msgType. eg. Amount of lzReceive() gas necessary to deliver a lzCompose() message adds overhead you dont want to pay if you are only making a standard LayerZero message ie. lzReceive() WITHOUT sendCompose().",
        "params": {
          "_enforcedOptions": "An array of EnforcedOptionParam structures specifying enforced options."
        }
      },
      "setMsgInspector(address)": {
        "details": "This is an optional contract that can be used to inspect both 'message' and 'options'.Set it to address(0) to disable it, or set it to a contract address to enable it.",
        "params": {
          "_msgInspector": "The address of the message inspector."
        }
      },
      "setPeer(uint32,bytes32)": {
        "details": "Only the owner/admin of the OApp can call this function.Indicates that the peer is trusted to send LayerZero messages to this OApp.Set this to bytes32(0) to remove the peer address.Peer is a bytes32 to accommodate non-evm chains.",
        "params": {
          "_eid": "The endpoint ID.",
          "_peer": "The address of the peer to be associated with the corresponding endpoint."
        }
      },
      "setPreCrime(address)": {
        "details": "Sets the preCrime contract address.",
        "params": {
          "_preCrime": "The address of the preCrime contract."
        }
      },
      "transferOwnership(address)": {
        "details": "Transfers ownership of the contract to a new account (`newOwner`). Can only be called by the current owner."
      }
    },
    "version": 1
  },
  "userdoc": {
    "kind": "user",
    "methods": {
      "allowInitializePath((uint32,bytes32,uint64))": {
        "notice": "Checks if the path initialization is allowed based on the provided origin."
      },
      "approvalRequired()": {
        "notice": "Indicates whether the ONFT721 contract requires approval of the 'token()' to send."
      },
      "combineOptions(uint32,uint16,bytes)": {
        "notice": "Combines options for a given endpoint and message type."
      },
      "endpoint()": {
        "notice": "Retrieves the LayerZero endpoint associated with the OApp."
      },
      "isComposeMsgSender((uint32,bytes32,uint64),bytes,address)": {
        "notice": "Indicates whether an address is an approved composeMsg sender to the Endpoint."
      },
      "nextNonce(uint32,bytes32)": {
        "notice": "Retrieves the next nonce for a given source endpoint and sender address."
      },
      "oAppVersion()": {
        "notice": "Retrieves the OApp version information."
      },
      "onftVersion()": {
        "notice": "Retrieves interfaceID and the version of the ONFT."
      },
      "peers(uint32)": {
        "notice": "Retrieves the peer (OApp) associated with a corresponding endpoint."
      },
      "quoteSend((uint32,bytes32,uint256,bytes,bytes,bytes),bool)": {
        "notice": "Provides a quote for the send() operation."
      },
      "send((uint32,bytes32,uint256,bytes,bytes,bytes),(uint256,uint256),address)": {
        "notice": "Executes the send() operation."
      },
      "setDelegate(address)": {
        "notice": "Sets the delegate address for the OApp."
      },
      "setMsgInspector(address)": {
        "notice": "Sets the message inspector address for the OFT."
      },
      "setPeer(uint32,bytes32)": {
        "notice": "Sets the peer address (OApp instance) for a corresponding endpoint."
      },
      "token()": {
        "notice": "Retrieves the address of the underlying ERC721 implementation (ie. external contract)."
      }
    },
    "version": 1
  },
  "storageLayout": {
    "storage": [
      {
        "astId": 3502,
        "contract": "contracts/Collection.sol:Collection",
        "label": "_owner",
        "offset": 0,
        "slot": "0",
        "type": "t_address"
      },
      {
        "astId": 1390,
        "contract": "contracts/Collection.sol:Collection",
        "label": "peers",
        "offset": 0,
        "slot": "1",
        "type": "t_mapping(t_uint32,t_bytes32)"
      },
      {
        "astId": 2166,
        "contract": "contracts/Collection.sol:Collection",
        "label": "preCrime",
        "offset": 0,
        "slot": "2",
        "type": "t_address"
      },
      {
        "astId": 2006,
        "contract": "contracts/Collection.sol:Collection",
        "label": "enforcedOptions",
        "offset": 0,
        "slot": "3",
        "type": "t_mapping(t_uint32,t_mapping(t_uint16,t_bytes_storage))"
      },
      {
        "astId": 2897,
        "contract": "contracts/Collection.sol:Collection",
        "label": "msgInspector",
        "offset": 0,
        "slot": "4",
        "type": "t_address"
      }
    ],
    "types": {
      "t_address": {
        "encoding": "inplace",
        "label": "address",
        "numberOfBytes": "20"
      },
      "t_bytes32": {
        "encoding": "inplace",
        "label": "bytes32",
        "numberOfBytes": "32"
      },
      "t_bytes_storage": {
        "encoding": "bytes",
        "label": "bytes",
        "numberOfBytes": "32"
      },
      "t_mapping(t_uint16,t_bytes_storage)": {
        "encoding": "mapping",
        "key": "t_uint16",
        "label": "mapping(uint16 => bytes)",
        "numberOfBytes": "32",
        "value": "t_bytes_storage"
      },
      "t_mapping(t_uint32,t_bytes32)": {
        "encoding": "mapping",
        "key": "t_uint32",
        "label": "mapping(uint32 => bytes32)",
        "numberOfBytes": "32",
        "value": "t_bytes32"
      },
      "t_mapping(t_uint32,t_mapping(t_uint16,t_bytes_storage))": {
        "encoding": "mapping",
        "key": "t_uint32",
        "label": "mapping(uint32 => mapping(uint16 => bytes))",
        "numberOfBytes": "32",
        "value": "t_mapping(t_uint16,t_bytes_storage)"
      },
      "t_uint16": {
        "encoding": "inplace",
        "label": "uint16",
        "numberOfBytes": "2"
      },
      "t_uint32": {
        "encoding": "inplace",
        "label": "uint32",
        "numberOfBytes": "4"
      }
    }
  }
}