{
  "address": "0x2b3Ae68fbe02a557a43BCfFB85392c925c00F261",
  "abi": [
    {
      "inputs": [
        {
          "internalType": "address",
          "name": "_curator",
          "type": "address"
        },
        {
          "internalType": "address",
          "name": "_token",
          "type": "address"
        },
        {
          "internalType": "address",
          "name": "_lzEndpoint",
          "type": "address"
        },
        {
          "internalType": "address",
          "name": "_delegate",
          "type": "address"
        }
      ],
      "stateMutability": "nonpayable",
      "type": "constructor"
    },
    {
      "inputs": [],
      "name": "InvalidDelegate",
      "type": "error"
    },
    {
      "inputs": [],
      "name": "InvalidEndpointCall",
      "type": "error"
    },
    {
      "inputs": [
        {
          "internalType": "uint16",
          "name": "optionType",
          "type": "uint16"
        }
      ],
      "name": "InvalidOptionType",
      "type": "error"
    },
    {
      "inputs": [
        {
          "internalType": "bytes",
          "name": "options",
          "type": "bytes"
        }
      ],
      "name": "InvalidOptions",
      "type": "error"
    },
    {
      "inputs": [],
      "name": "InvalidReceiver",
      "type": "error"
    },
    {
      "inputs": [],
      "name": "LzTokenUnavailable",
      "type": "error"
    },
    {
      "inputs": [
        {
          "internalType": "uint32",
          "name": "eid",
          "type": "uint32"
        }
      ],
      "name": "NoPeer",
      "type": "error"
    },
    {
      "inputs": [
        {
          "internalType": "uint256",
          "name": "msgValue",
          "type": "uint256"
        }
      ],
      "name": "NotEnoughNative",
      "type": "error"
    },
    {
      "inputs": [
        {
          "internalType": "address",
          "name": "addr",
          "type": "address"
        }
      ],
      "name": "OnlyEndpoint",
      "type": "error"
    },
    {
      "inputs": [
        {
          "internalType": "address",
          "name": "caller",
          "type": "address"
        },
        {
          "internalType": "address",
          "name": "owner",
          "type": "address"
        }
      ],
      "name": "OnlyNFTOwner",
      "type": "error"
    },
    {
      "inputs": [
        {
          "internalType": "uint32",
          "name": "eid",
          "type": "uint32"
        },
        {
          "internalType": "bytes32",
          "name": "sender",
          "type": "bytes32"
        }
      ],
      "name": "OnlyPeer",
      "type": "error"
    },
    {
      "inputs": [],
      "name": "OnlySelf",
      "type": "error"
    },
    {
      "inputs": [
        {
          "internalType": "address",
          "name": "owner",
          "type": "address"
        }
      ],
      "name": "OwnableInvalidOwner",
      "type": "error"
    },
    {
      "inputs": [
        {
          "internalType": "address",
          "name": "account",
          "type": "address"
        }
      ],
      "name": "OwnableUnauthorizedAccount",
      "type": "error"
    },
    {
      "inputs": [
        {
          "internalType": "uint8",
          "name": "bits",
          "type": "uint8"
        },
        {
          "internalType": "uint256",
          "name": "value",
          "type": "uint256"
        }
      ],
      "name": "SafeCastOverflowedUintDowncast",
      "type": "error"
    },
    {
      "inputs": [
        {
          "internalType": "address",
          "name": "token",
          "type": "address"
        }
      ],
      "name": "SafeERC20FailedOperation",
      "type": "error"
    },
    {
      "inputs": [
        {
          "internalType": "bytes",
          "name": "result",
          "type": "bytes"
        }
      ],
      "name": "SimulationResult",
      "type": "error"
    },
    {
      "anonymous": false,
      "inputs": [
        {
          "components": [
            {
              "internalType": "uint32",
              "name": "eid",
              "type": "uint32"
            },
            {
              "internalType": "uint16",
              "name": "msgType",
              "type": "uint16"
            },
            {
              "internalType": "bytes",
              "name": "options",
              "type": "bytes"
            }
          ],
          "indexed": false,
          "internalType": "struct EnforcedOptionParam[]",
          "name": "_enforcedOptions",
          "type": "tuple[]"
        }
      ],
      "name": "EnforcedOptionSet",
      "type": "event"
    },
    {
      "anonymous": false,
      "inputs": [
        {
          "indexed": false,
          "internalType": "address",
          "name": "inspector",
          "type": "address"
        }
      ],
      "name": "MsgInspectorSet",
      "type": "event"
    },
    {
      "anonymous": false,
      "inputs": [
        {
          "indexed": true,
          "internalType": "bytes32",
          "name": "guid",
          "type": "bytes32"
        },
        {
          "indexed": false,
          "internalType": "uint32",
          "name": "srcEid",
          "type": "uint32"
        },
        {
          "indexed": true,
          "internalType": "address",
          "name": "toAddress",
          "type": "address"
        },
        {
          "indexed": false,
          "internalType": "uint256",
          "name": "tokenId",
          "type": "uint256"
        }
      ],
      "name": "ONFTReceived",
      "type": "event"
    },
    {
      "anonymous": false,
      "inputs": [
        {
          "indexed": true,
          "internalType": "bytes32",
          "name": "guid",
          "type": "bytes32"
        },
        {
          "indexed": false,
          "internalType": "uint32",
          "name": "dstEid",
          "type": "uint32"
        },
        {
          "indexed": true,
          "internalType": "address",
          "name": "fromAddress",
          "type": "address"
        },
        {
          "indexed": false,
          "internalType": "uint256",
          "name": "tokenId",
          "type": "uint256"
        }
      ],
      "name": "ONFTSent",
      "type": "event"
    },
    {
      "anonymous": false,
      "inputs": [
        {
          "indexed": true,
          "internalType": "address",
          "name": "previousOwner",
          "type": "address"
        },
        {
          "indexed": true,
          "internalType": "address",
          "name": "newOwner",
          "type": "address"
        }
      ],
      "name": "OwnershipTransferred",
      "type": "event"
    },
    {
      "anonymous": false,
      "inputs": [
        {
          "indexed": false,
          "internalType": "uint32",
          "name": "eid",
          "type": "uint32"
        },
        {
          "indexed": false,
          "internalType": "bytes32",
          "name": "peer",
          "type": "bytes32"
        }
      ],
      "name": "PeerSet",
      "type": "event"
    },
    {
      "anonymous": false,
      "inputs": [
        {
          "indexed": false,
          "internalType": "address",
          "name": "preCrimeAddress",
          "type": "address"
        }
      ],
      "name": "PreCrimeSet",
      "type": "event"
    },
    {
      "inputs": [],
      "name": "SEND",
      "outputs": [
        {
          "internalType": "uint16",
          "name": "",
          "type": "uint16"
        }
      ],
      "stateMutability": "view",
      "type": "function"
    },
    {
      "inputs": [],
      "name": "SEND_AND_COMPOSE",
      "outputs": [
        {
          "internalType": "uint16",
          "name": "",
          "type": "uint16"
        }
      ],
      "stateMutability": "view",
      "type": "function"
    },
    {
      "inputs": [
        {
          "components": [
            {
              "internalType": "uint32",
              "name": "srcEid",
              "type": "uint32"
            },
            {
              "internalType": "bytes32",
              "name": "sender",
              "type": "bytes32"
            },
            {
              "internalType": "uint64",
              "name": "nonce",
              "type": "uint64"
            }
          ],
          "internalType": "struct Origin",
          "name": "origin",
          "type": "tuple"
        }
      ],
      "name": "allowInitializePath",
      "outputs": [
        {
          "internalType": "bool",
          "name": "",
          "type": "bool"
        }
      ],
      "stateMutability": "view",
      "type": "function"
    },
    {
      "inputs": [],
      "name": "approvalRequired",
      "outputs": [
        {
          "internalType": "bool",
          "name": "",
          "type": "bool"
        }
      ],
      "stateMutability": "pure",
      "type": "function"
    },
    {
      "inputs": [
        {
          "internalType": "uint32",
          "name": "eId",
          "type": "uint32"
        }
      ],
      "name": "checkPeer",
      "outputs": [
        {
          "internalType": "bytes32",
          "name": "",
          "type": "bytes32"
        }
      ],
      "stateMutability": "view",
      "type": "function"
    },
    {
      "inputs": [
        {
          "internalType": "uint32",
          "name": "_eid",
          "type": "uint32"
        },
        {
          "internalType": "uint16",
          "name": "_msgType",
          "type": "uint16"
        },
        {
          "internalType": "bytes",
          "name": "_extraOptions",
          "type": "bytes"
        }
      ],
      "name": "combineOptions",
      "outputs": [
        {
          "internalType": "bytes",
          "name": "",
          "type": "bytes"
        }
      ],
      "stateMutability": "view",
      "type": "function"
    },
    {
      "inputs": [],
      "name": "endpoint",
      "outputs": [
        {
          "internalType": "contract ILayerZeroEndpointV2",
          "name": "",
          "type": "address"
        }
      ],
      "stateMutability": "view",
      "type": "function"
    },
    {
      "inputs": [
        {
          "internalType": "uint32",
          "name": "eid",
          "type": "uint32"
        },
        {
          "internalType": "uint16",
          "name": "msgType",
          "type": "uint16"
        }
      ],
      "name": "enforcedOptions",
      "outputs": [
        {
          "internalType": "bytes",
          "name": "enforcedOption",
          "type": "bytes"
        }
      ],
      "stateMutability": "view",
      "type": "function"
    },
    {
      "inputs": [
        {
          "components": [
            {
              "internalType": "uint32",
              "name": "srcEid",
              "type": "uint32"
            },
            {
              "internalType": "bytes32",
              "name": "sender",
              "type": "bytes32"
            },
            {
              "internalType": "uint64",
              "name": "nonce",
              "type": "uint64"
            }
          ],
          "internalType": "struct Origin",
          "name": "",
          "type": "tuple"
        },
        {
          "internalType": "bytes",
          "name": "",
          "type": "bytes"
        },
        {
          "internalType": "address",
          "name": "_sender",
          "type": "address"
        }
      ],
      "name": "isComposeMsgSender",
      "outputs": [
        {
          "internalType": "bool",
          "name": "",
          "type": "bool"
        }
      ],
      "stateMutability": "view",
      "type": "function"
    },
    {
      "inputs": [
        {
          "internalType": "uint32",
          "name": "_eid",
          "type": "uint32"
        },
        {
          "internalType": "bytes32",
          "name": "_peer",
          "type": "bytes32"
        }
      ],
      "name": "isPeer",
      "outputs": [
        {
          "internalType": "bool",
          "name": "",
          "type": "bool"
        }
      ],
      "stateMutability": "view",
      "type": "function"
    },
    {
      "inputs": [
        {
          "components": [
            {
              "internalType": "uint32",
              "name": "srcEid",
              "type": "uint32"
            },
            {
              "internalType": "bytes32",
              "name": "sender",
              "type": "bytes32"
            },
            {
              "internalType": "uint64",
              "name": "nonce",
              "type": "uint64"
            }
          ],
          "internalType": "struct Origin",
          "name": "_origin",
          "type": "tuple"
        },
        {
          "internalType": "bytes32",
          "name": "_guid",
          "type": "bytes32"
        },
        {
          "internalType": "bytes",
          "name": "_message",
          "type": "bytes"
        },
        {
          "internalType": "address",
          "name": "_executor",
          "type": "address"
        },
        {
          "internalType": "bytes",
          "name": "_extraData",
          "type": "bytes"
        }
      ],
      "name": "lzReceive",
      "outputs": [],
      "stateMutability": "payable",
      "type": "function"
    },
    {
      "inputs": [
        {
          "components": [
            {
              "components": [
                {
                  "internalType": "uint32",
                  "name": "srcEid",
                  "type": "uint32"
                },
                {
                  "internalType": "bytes32",
                  "name": "sender",
                  "type": "bytes32"
                },
                {
                  "internalType": "uint64",
                  "name": "nonce",
                  "type": "uint64"
                }
              ],
              "internalType": "struct Origin",
              "name": "origin",
              "type": "tuple"
            },
            {
              "internalType": "uint32",
              "name": "dstEid",
              "type": "uint32"
            },
            {
              "internalType": "address",
              "name": "receiver",
              "type": "address"
            },
            {
              "internalType": "bytes32",
              "name": "guid",
              "type": "bytes32"
            },
            {
              "internalType": "uint256",
              "name": "value",
              "type": "uint256"
            },
            {
              "internalType": "address",
              "name": "executor",
              "type": "address"
            },
            {
              "internalType": "bytes",
              "name": "message",
              "type": "bytes"
            },
            {
              "internalType": "bytes",
              "name": "extraData",
              "type": "bytes"
            }
          ],
          "internalType": "struct InboundPacket[]",
          "name": "_packets",
          "type": "tuple[]"
        }
      ],
      "name": "lzReceiveAndRevert",
      "outputs": [],
      "stateMutability": "payable",
      "type": "function"
    },
    {
      "inputs": [
        {
          "components": [
            {
              "internalType": "uint32",
              "name": "srcEid",
              "type": "uint32"
            },
            {
              "internalType": "bytes32",
              "name": "sender",
              "type": "bytes32"
            },
            {
              "internalType": "uint64",
              "name": "nonce",
              "type": "uint64"
            }
          ],
          "internalType": "struct Origin",
          "name": "_origin",
          "type": "tuple"
        },
        {
          "internalType": "bytes32",
          "name": "_guid",
          "type": "bytes32"
        },
        {
          "internalType": "bytes",
          "name": "_message",
          "type": "bytes"
        },
        {
          "internalType": "address",
          "name": "_executor",
          "type": "address"
        },
        {
          "internalType": "bytes",
          "name": "_extraData",
          "type": "bytes"
        }
      ],
      "name": "lzReceiveSimulate",
      "outputs": [],
      "stateMutability": "payable",
      "type": "function"
    },
    {
      "inputs": [],
      "name": "msgInspector",
      "outputs": [
        {
          "internalType": "address",
          "name": "",
          "type": "address"
        }
      ],
      "stateMutability": "view",
      "type": "function"
    },
    {
      "inputs": [
        {
          "internalType": "uint32",
          "name": "",
          "type": "uint32"
        },
        {
          "internalType": "bytes32",
          "name": "",
          "type": "bytes32"
        }
      ],
      "name": "nextNonce",
      "outputs": [
        {
          "internalType": "uint64",
          "name": "nonce",
          "type": "uint64"
        }
      ],
      "stateMutability": "view",
      "type": "function"
    },
    {
      "inputs": [
        {
          "internalType": "uint32",
          "name": "_eid",
          "type": "uint32"
        },
        {
          "internalType": "uint256",
          "name": "_tokenId",
          "type": "uint256"
        }
      ],
      "name": "notifyEnrolment",
      "outputs": [],
      "stateMutability": "payable",
      "type": "function"
    },
    {
      "inputs": [],
      "name": "oApp",
      "outputs": [
        {
          "internalType": "address",
          "name": "",
          "type": "address"
        }
      ],
      "stateMutability": "view",
      "type": "function"
    },
    {
      "inputs": [],
      "name": "oAppVersion",
      "outputs": [
        {
          "internalType": "uint64",
          "name": "senderVersion",
          "type": "uint64"
        },
        {
          "internalType": "uint64",
          "name": "receiverVersion",
          "type": "uint64"
        }
      ],
      "stateMutability": "pure",
      "type": "function"
    },
    {
      "inputs": [],
      "name": "onftVersion",
      "outputs": [
        {
          "internalType": "bytes4",
          "name": "interfaceId",
          "type": "bytes4"
        },
        {
          "internalType": "uint64",
          "name": "version",
          "type": "uint64"
        }
      ],
      "stateMutability": "pure",
      "type": "function"
    },
    {
      "inputs": [],
      "name": "owner",
      "outputs": [
        {
          "internalType": "address",
          "name": "",
          "type": "address"
        }
      ],
      "stateMutability": "view",
      "type": "function"
    },
    {
      "inputs": [
        {
          "internalType": "uint32",
          "name": "eid",
          "type": "uint32"
        }
      ],
      "name": "peers",
      "outputs": [
        {
          "internalType": "bytes32",
          "name": "peer",
          "type": "bytes32"
        }
      ],
      "stateMutability": "view",
      "type": "function"
    },
    {
      "inputs": [],
      "name": "preCrime",
      "outputs": [
        {
          "internalType": "address",
          "name": "",
          "type": "address"
        }
      ],
      "stateMutability": "view",
      "type": "function"
    },
    {
      "inputs": [
        {
          "internalType": "uint32",
          "name": "_eid",
          "type": "uint32"
        },
        {
          "internalType": "uint256",
          "name": "_tokenId",
          "type": "uint256"
        }
      ],
      "name": "quoteEnrolment",
      "outputs": [
        {
          "components": [
            {
              "internalType": "uint256",
              "name": "nativeFee",
              "type": "uint256"
            },
            {
              "internalType": "uint256",
              "name": "lzTokenFee",
              "type": "uint256"
            }
          ],
          "internalType": "struct MessagingFee",
          "name": "",
          "type": "tuple"
        }
      ],
      "stateMutability": "view",
      "type": "function"
    },
    {
      "inputs": [
        {
          "components": [
            {
              "internalType": "uint32",
              "name": "dstEid",
              "type": "uint32"
            },
            {
              "internalType": "bytes32",
              "name": "to",
              "type": "bytes32"
            },
            {
              "internalType": "uint256",
              "name": "tokenId",
              "type": "uint256"
            },
            {
              "internalType": "bytes",
              "name": "extraOptions",
              "type": "bytes"
            },
            {
              "internalType": "bytes",
              "name": "composeMsg",
              "type": "bytes"
            },
            {
              "internalType": "bytes",
              "name": "onftCmd",
              "type": "bytes"
            }
          ],
          "internalType": "struct SendParam",
          "name": "_sendParam",
          "type": "tuple"
        },
        {
          "internalType": "bool",
          "name": "_payInLzToken",
          "type": "bool"
        }
      ],
      "name": "quoteSend",
      "outputs": [
        {
          "components": [
            {
              "internalType": "uint256",
              "name": "nativeFee",
              "type": "uint256"
            },
            {
              "internalType": "uint256",
              "name": "lzTokenFee",
              "type": "uint256"
            }
          ],
          "internalType": "struct MessagingFee",
          "name": "msgFee",
          "type": "tuple"
        }
      ],
      "stateMutability": "view",
      "type": "function"
    },
    {
      "inputs": [],
      "name": "renounceOwnership",
      "outputs": [],
      "stateMutability": "nonpayable",
      "type": "function"
    },
    {
      "inputs": [
        {
          "internalType": "uint256",
          "name": "tokenId",
          "type": "uint256"
        },
        {
          "internalType": "address",
          "name": "owner",
          "type": "address"
        }
      ],
      "name": "revokeRoyaltyRights",
      "outputs": [],
      "stateMutability": "nonpayable",
      "type": "function"
    },
    {
      "inputs": [
        {
          "internalType": "uint256",
          "name": "tokenId",
          "type": "uint256"
        }
      ],
      "name": "revokeRoyaltyRights",
      "outputs": [],
      "stateMutability": "nonpayable",
      "type": "function"
    },
    {
      "inputs": [
        {
          "internalType": "uint256",
          "name": "",
          "type": "uint256"
        }
      ],
      "name": "rights",
      "outputs": [
        {
          "internalType": "uint256",
          "name": "tokenId",
          "type": "uint256"
        },
        {
          "internalType": "address",
          "name": "owner",
          "type": "address"
        },
        {
          "internalType": "string",
          "name": "signature",
          "type": "string"
        }
      ],
      "stateMutability": "view",
      "type": "function"
    },
    {
      "inputs": [
        {
          "components": [
            {
              "internalType": "uint32",
              "name": "dstEid",
              "type": "uint32"
            },
            {
              "internalType": "bytes32",
              "name": "to",
              "type": "bytes32"
            },
            {
              "internalType": "uint256",
              "name": "tokenId",
              "type": "uint256"
            },
            {
              "internalType": "bytes",
              "name": "extraOptions",
              "type": "bytes"
            },
            {
              "internalType": "bytes",
              "name": "composeMsg",
              "type": "bytes"
            },
            {
              "internalType": "bytes",
              "name": "onftCmd",
              "type": "bytes"
            }
          ],
          "internalType": "struct SendParam",
          "name": "_sendParam",
          "type": "tuple"
        },
        {
          "components": [
            {
              "internalType": "uint256",
              "name": "nativeFee",
              "type": "uint256"
            },
            {
              "internalType": "uint256",
              "name": "lzTokenFee",
              "type": "uint256"
            }
          ],
          "internalType": "struct MessagingFee",
          "name": "_fee",
          "type": "tuple"
        },
        {
          "internalType": "address",
          "name": "_refundAddress",
          "type": "address"
        }
      ],
      "name": "send",
      "outputs": [
        {
          "components": [
            {
              "internalType": "bytes32",
              "name": "guid",
              "type": "bytes32"
            },
            {
              "internalType": "uint64",
              "name": "nonce",
              "type": "uint64"
            },
            {
              "components": [
                {
                  "internalType": "uint256",
                  "name": "nativeFee",
                  "type": "uint256"
                },
                {
                  "internalType": "uint256",
                  "name": "lzTokenFee",
                  "type": "uint256"
                }
              ],
              "internalType": "struct MessagingFee",
              "name": "fee",
              "type": "tuple"
            }
          ],
          "internalType": "struct MessagingReceipt",
          "name": "msgReceipt",
          "type": "tuple"
        }
      ],
      "stateMutability": "payable",
      "type": "function"
    },
    {
      "inputs": [
        {
          "internalType": "address",
          "name": "_delegate",
          "type": "address"
        }
      ],
      "name": "setDelegate",
      "outputs": [],
      "stateMutability": "nonpayable",
      "type": "function"
    },
    {
      "inputs": [
        {
          "components": [
            {
              "internalType": "uint32",
              "name": "eid",
              "type": "uint32"
            },
            {
              "internalType": "uint16",
              "name": "msgType",
              "type": "uint16"
            },
            {
              "internalType": "bytes",
              "name": "options",
              "type": "bytes"
            }
          ],
          "internalType": "struct EnforcedOptionParam[]",
          "name": "_enforcedOptions",
          "type": "tuple[]"
        }
      ],
      "name": "setEnforcedOptions",
      "outputs": [],
      "stateMutability": "nonpayable",
      "type": "function"
    },
    {
      "inputs": [
        {
          "internalType": "address",
          "name": "_msgInspector",
          "type": "address"
        }
      ],
      "name": "setMsgInspector",
      "outputs": [],
      "stateMutability": "nonpayable",
      "type": "function"
    },
    {
      "inputs": [
        {
          "internalType": "uint32",
          "name": "_eid",
          "type": "uint32"
        },
        {
          "internalType": "bytes32",
          "name": "_peer",
          "type": "bytes32"
        }
      ],
      "name": "setPeer",
      "outputs": [],
      "stateMutability": "nonpayable",
      "type": "function"
    },
    {
      "inputs": [
        {
          "internalType": "address",
          "name": "_preCrime",
          "type": "address"
        }
      ],
      "name": "setPreCrime",
      "outputs": [],
      "stateMutability": "nonpayable",
      "type": "function"
    },
    {
      "inputs": [
        {
          "internalType": "uint256",
          "name": "tokenId",
          "type": "uint256"
        },
        {
          "components": [
            {
              "internalType": "uint256",
              "name": "tokenId",
              "type": "uint256"
            },
            {
              "internalType": "address",
              "name": "owner",
              "type": "address"
            },
            {
              "internalType": "string",
              "name": "signature",
              "type": "string"
            }
          ],
          "internalType": "struct Collection.RoyaltyRights",
          "name": "_rights",
          "type": "tuple"
        }
      ],
      "name": "setRoyaltyRights",
      "outputs": [],
      "stateMutability": "nonpayable",
      "type": "function"
    },
    {
      "inputs": [
        {
          "internalType": "uint256",
          "name": "tokenId",
          "type": "uint256"
        },
        {
          "internalType": "address",
          "name": "owner",
          "type": "address"
        },
        {
          "internalType": "string",
          "name": "signature",
          "type": "string"
        }
      ],
      "name": "setRoyaltyRights",
      "outputs": [],
      "stateMutability": "nonpayable",
      "type": "function"
    },
    {
      "inputs": [
        {
          "internalType": "uint256",
          "name": "tokenId",
          "type": "uint256"
        }
      ],
      "name": "stake",
      "outputs": [],
      "stateMutability": "nonpayable",
      "type": "function"
    },
    {
      "inputs": [],
      "name": "token",
      "outputs": [
        {
          "internalType": "address",
          "name": "",
          "type": "address"
        }
      ],
      "stateMutability": "view",
      "type": "function"
    },
    {
      "inputs": [
        {
          "internalType": "address",
          "name": "newOwner",
          "type": "address"
        }
      ],
      "name": "transferOwnership",
      "outputs": [],
      "stateMutability": "nonpayable",
      "type": "function"
    },
    {
      "inputs": [
        {
          "internalType": "uint256",
          "name": "tokenId",
          "type": "uint256"
        }
      ],
      "name": "unstake",
      "outputs": [],
      "stateMutability": "nonpayable",
      "type": "function"
    }
  ],
  "transactionHash": "0x2b71dc21a4de1e4b68d9d30893aa1a39a548466797123b4a68bbb4add1d1214f",
  "args": [
    "0x3c649A7A063c067555a089967FCB16CC1dC44Ad4",
    "0x9e1F2c3432ddCe2AAe0f605f38e3234EE6fbC91a",
    "0x6EDCE65403992e310A62460808c4b910D972f10f",
    "0xaaB63b70Ad1fcFf67EB26963EB352C91945B01e2"
  ],
  "numDeployments": 17,
  "solcInputHash": "f16e11ad9eb5c2bd241d92cc24fdb542",
  "bytecode": "0x60c06040523480156200001157600080fd5b5060405162003473380380620034738339810160408190526200003491620001d8565b828282818181818181806001600160a01b0381166200006d57604051631e4fbdf760e01b81526000600482015260240160405180910390fd5b62000078816200016b565b506001600160a01b038083166080528116620000a757604051632d618d8160e21b815260040160405180910390fd5b60805160405163ca5eb5e160e01b81526001600160a01b0383811660048301529091169063ca5eb5e190602401600060405180830381600087803b158015620000ef57600080fd5b505af115801562000104573d6000803e3d6000fd5b505050506001600160a01b0398891660a0525050600580546001600160a01b03199081169b89169b909b1790555050600680548916998616999099179098555050600780548616948316949094179093556008805490941691161790915550620002359050565b600080546001600160a01b038381166001600160a01b0319831681178455604051919092169283917f8be0079c531659141344cd1fd0a4f28419497f9722a3daafe3b4186f6b6457e09190a35050565b80516001600160a01b0381168114620001d357600080fd5b919050565b60008060008060808587031215620001ef57600080fd5b620001fa85620001bb565b93506200020a60208601620001bb565b92506200021a60408601620001bb565b91506200022a60608601620001bb565b905092959194509250565b60805160a0516131cb620002a86000396000818161075e01528181610b63015281816112b70152818161166e015261193d0152600081816103be015281816107a401528181611119015281816115700152818161183901528181611ab201528181611e4e0152611f0701526131cb6000f3fe60806040526004361061023b5760003560e01c8063a72f5dd81161012e578063c6414e7b116100ab578063ef64ba591161006f578063ef64ba59146106ef578063f2fde38b1461070f578063f58409b91461072f578063fc0c546a1461074f578063ff7bd03d1461078257600080fd5b8063c6414e7b1461064d578063ca5eb5e11461066d578063d045a0dc1461068d578063d4243885146106a0578063e9ef2113146106c057600080fd5b8063b98bd070116100f2578063b98bd0701461059f578063bb0b6a53146105bf578063bb821400146105fa578063bc70b3541461061a578063bd815db01461063a57600080fd5b8063a72f5dd81461050f578063aa245d8e14610537578063b21a33e41461054a578063b50ecb741461055f578063b731ea0a1461057f57600080fd5b80635e280f11116101bc57806382413eac1161018057806382413eac1461047d578063850729601461049d5780638da5cb5b146104bd5780639f68b964146104db578063a694fc3a146104ef57600080fd5b80635e280f11146103ac5780636fc1b31e146103e0578063715018a614610400578063795cb7bb146104155780637d25a05e1461044257600080fd5b80632e17de78116102035780632e17de78146102fc5780633400288b1461031c57806352ae28791461033c5780635535d4611461034f5780635a0dfe4d1461037c57600080fd5b8063111ecdad1461024057806313137d651461027d57806317442b70146102925780631f5e1334146102b457806321eb730b146102dc575b600080fd5b34801561024c57600080fd5b50600454610260906001600160a01b031681565b6040516001600160a01b0390911681526020015b60405180910390f35b61029061028b366004612276565b6107a2565b005b34801561029e57600080fd5b5060408051600181526002602082015201610274565b3480156102c057600080fd5b506102c9600181565b60405161ffff9091168152602001610274565b6102ef6102ea366004612327565b610862565b6040516102749190612394565b34801561030857600080fd5b506102906103173660046123d6565b61091b565b34801561032857600080fd5b50610290610337366004612408565b61092a565b34801561034857600080fd5b5030610260565b34801561035b57600080fd5b5061036f61036a366004612444565b610940565b60405161027491906124c7565b34801561038857600080fd5b5061039c610397366004612408565b6109e5565b6040519015158152602001610274565b3480156103b857600080fd5b506102607f000000000000000000000000000000000000000000000000000000000000000081565b3480156103ec57600080fd5b506102906103fb3660046124da565b610a04565b34801561040c57600080fd5b50610290610a61565b34801561042157600080fd5b50610435610430366004612408565b610a75565b60405161027491906124f7565b34801561044e57600080fd5b5061046561045d366004612408565b600092915050565b6040516001600160401b039091168152602001610274565b34801561048957600080fd5b5061039c61049836600461250e565b610b42565b3480156104a957600080fd5b506102906104b8366004612574565b610b57565b3480156104c957600080fd5b506000546001600160a01b0316610260565b3480156104e757600080fd5b50600161039c565b3480156104fb57600080fd5b5061029061050a3660046123d6565b610c76565b34801561051b57600080fd5b50604080516311f0c6d360e11b81526001602082015201610274565b610290610545366004612408565b610c82565b34801561055657600080fd5b506102c9600281565b34801561056b57600080fd5b5061029061057a3660046126b9565b610d1b565b34801561058b57600080fd5b50600254610260906001600160a01b031681565b3480156105ab57600080fd5b506102906105ba366004612792565b610d6c565b3480156105cb57600080fd5b506105ec6105da3660046127d3565b60016020526000908152604090205481565b604051908152602001610274565b34801561060657600080fd5b506105ec6106153660046127d3565b610d86565b34801561062657600080fd5b5061036f6106353660046127ee565b610d91565b610290610648366004612792565b610f39565b34801561065957600080fd5b5061043561066836600461285c565b6110ac565b34801561067957600080fd5b506102906106883660046124da565b6110f2565b61029061069b366004612276565b611171565b3480156106ac57600080fd5b506102906106bb3660046124da565b6111a0565b3480156106cc57600080fd5b506106e06106db3660046123d6565b6111f6565b604051610274939291906128a2565b3480156106fb57600080fd5b5061029061070a3660046128cc565b6112ab565b34801561071b57600080fd5b5061029061072a3660046124da565b611400565b34801561073b57600080fd5b5061029061074a3660046123d6565b61143b565b34801561075b57600080fd5b507f0000000000000000000000000000000000000000000000000000000000000000610260565b34801561078e57600080fd5b5061039c61079d366004612924565b611471565b7f00000000000000000000000000000000000000000000000000000000000000006001600160a01b031633146107f2576040516391ac5e4f60e01b81523360048201526024015b60405180910390fd5b6020870180359061080c90610807908a6127d3565b6114a7565b1461084a5761081e60208801886127d3565b60405163309afaf360e21b815263ffffffff9091166004820152602088013560248201526044016107e9565b610859878787878787876114e3565b50505050505050565b61086a612170565b61088533604086013561088060208801886127d3565b611642565b600080610891866116c7565b90925090506108bd6108a660208801886127d3565b83836108b7368a90038a018a612940565b88611806565b805190935033907f986156872b2ee0022b9585231dbbfde457f87f8a16b6c45e1a81c54c4ad8351f6108f260208a018a6127d3565b6040805163ffffffff9092168252808b013560208301520160405180910390a350509392505050565b61092733826000611911565b50565b61093261196c565b61093c8282611999565b5050565b60036020908152600092835260408084209091529082529020805461096490612972565b80601f016020809104026020016040519081016040528092919081815260200182805461099090612972565b80156109dd5780601f106109b2576101008083540402835291602001916109dd565b820191906000526020600020905b8154815290600101906020018083116109c057829003601f168201915b505050505081565b63ffffffff821660009081526001602052604090205481145b92915050565b610a0c61196c565b600480546001600160a01b0319166001600160a01b0383169081179091556040519081527ff0be4f1e87349231d80c36b33f9e8639658eeaf474014dee15a3e6a4d4414197906020015b60405180910390a150565b610a6961196c565b610a7360006119ee565b565b60408051808201825260008082526020808301829052835160a0810185526005546001600160a01b031681528082018690528451808601865260048152631d195cdd60e21b8184015281860152336060820152600160808201529351929392610ae0918491016129a6565b60405160208183030381529060405290506000610b2962030d406000610b2260408051600360f01b602082015281516002818303018152602290910190915290565b9190611a3e565b9050610b388683836000611a9c565b9695505050505050565b6001600160a01b03811630145b949350505050565b806001600160a01b03167f00000000000000000000000000000000000000000000000000000000000000006001600160a01b0316636352211e846040518263ffffffff1660e01b8152600401610baf91815260200190565b602060405180830381865afa158015610bcc573d6000803e3d6000fd5b505050506040513d601f19601f82011682018060405250810190610bf09190612a04565b6001600160a01b031614610c3f5760405162461bcd60e51b8152602060048201526016602482015275165bdd48191bdb89dd081bdddb881d1a1a5cc813919560521b60448201526064016107e9565b60008281526009602052604081208181556001810180546001600160a01b031916905590610c7060028301826121b7565b50505050565b61092733826000611642565b6005546040805180820190915260048152631d195cdd60e21b6020820152600091610cbd916001600160a01b03909116908490336001611b74565b90506000610cf062030d406000610b2260408051600360f01b602082015281516002818303018152602290910190915290565b9050610d148483836040518060400160405280348152602001600081525033611806565b5050505050565b60008281526009602090815260409182902083518155908301516001820180546001600160a01b0319166001600160a01b03909216919091179055908201518291906002820190610d149082612a69565b610d7461196c565b61093c610d818284612b28565b611be1565b60006109fe826114a7565b63ffffffff8416600090815260036020908152604080832061ffff87168452909152812080546060929190610dc590612972565b80601f0160208091040260200160405190810160405280929190818152602001828054610df190612972565b8015610e3e5780601f10610e1357610100808354040283529160200191610e3e565b820191906000526020600020905b815481529060010190602001808311610e2157829003601f168201915b505050505090508051600003610e8e5783838080601f016020809104026020016040519081016040528093929190818152602001838380828437600092019190915250929450610b4f9350505050565b6000839003610e9e579050610b4f565b60028310610f1c57610ee584848080601f016020809104026020016040519081016040528093929190818152602001838380828437600092019190915250611ce892505050565b80610ef38460028188612c10565b604051602001610f0593929190612c3a565b604051602081830303815290604052915050610b4f565b8383604051639a6d49cd60e01b81526004016107e9929190612c8b565b60005b8181101561102b5736838383818110610f5757610f57612c9f565b9050602002810190610f699190612cb5565b9050610f85610f7b60208301836127d3565b60208301356109e5565b610f8f5750611023565b3063d045a0dc60c08301358360a0810135610fae610100830183612cd6565b610fbf610100890160e08a016124da565b610fcd6101208a018a612cd6565b6040518963ffffffff1660e01b8152600401610fef9796959493929190612d31565b6000604051808303818588803b15801561100857600080fd5b505af115801561101c573d6000803e3d6000fd5b5050505050505b600101610f3c565b50336001600160a01b0316638e9e70996040518163ffffffff1660e01b8152600401600060405180830381865afa15801561106a573d6000803e3d6000fd5b505050506040513d6000823e601f3d908101601f191682016040526110929190810190612db7565b604051638351eea760e01b81526004016107e991906124c7565b60408051808201909152600080825260208201526000806110cc856116c7565b90925090506110e96110e160208701876127d3565b838387611a9c565b95945050505050565b6110fa61196c565b60405163ca5eb5e160e01b81526001600160a01b0382811660048301527f0000000000000000000000000000000000000000000000000000000000000000169063ca5eb5e190602401600060405180830381600087803b15801561115d57600080fd5b505af1158015610d14573d6000803e3d6000fd5b3330146111915760405163029a949d60e31b815260040160405180910390fd5b6108598787878787878761084a565b6111a861196c565b600280546001600160a01b0319166001600160a01b0383169081179091556040519081527fd48d879cef83a1c0bdda516f27b13ddb1b3f8bbac1c9e1511bb2a659c242776090602001610a56565b60096020526000908152604090208054600182015460028301805492936001600160a01b039092169261122890612972565b80601f016020809104026020016040519081016040528092919081815260200182805461125490612972565b80156112a15780601f10611276576101008083540402835291602001916112a1565b820191906000526020600020905b81548152906001019060200180831161128457829003601f168201915b5050505050905083565b816001600160a01b03167f00000000000000000000000000000000000000000000000000000000000000006001600160a01b0316636352211e856040518263ffffffff1660e01b815260040161130391815260200190565b602060405180830381865afa158015611320573d6000803e3d6000fd5b505050506040513d601f19601f820116820180604052508101906113449190612a04565b6001600160a01b0316146113935760405162461bcd60e51b8152602060048201526016602482015275165bdd48191bdb89dd081bdddb881d1a1a5cc813919560521b60448201526064016107e9565b604080516060810182528481526001600160a01b038481166020808401918252838501868152600089815260099092529490208351815590516001820180546001600160a01b0319169190931617909155915190919060028201906113f89082612a69565b505050505050565b61140861196c565b6001600160a01b03811661143257604051631e4fbdf760e01b8152600060048201526024016107e9565b610927816119ee565b60008181526009602052604081208181556001810180546001600160a01b03191690559061146c60028301826121b7565b505050565b600060208201803590600190839061148990866127d3565b63ffffffff1681526020810191909152604001600020541492915050565b63ffffffff8116600090815260016020526040812054806109fe5760405163f6ff4fb760e01b815263ffffffff841660048201526024016107e9565b60006114f56114f28787611d14565b90565b905060006115038787611d33565b905061151c828261151760208d018d6127d3565b611911565b60408611156115e057600061155661153a60608c0160408d01612e24565b61154760208d018d6127d3565b6115518b8b611d43565b611d8e565b604051633e5ac80960e11b81529091506001600160a01b037f00000000000000000000000000000000000000000000000000000000000000001690637cb59012906115ac9086908d906000908790600401612e41565b600060405180830381600087803b1580156115c657600080fd5b505af11580156115da573d6000803e3d6000fd5b50505050505b6001600160a01b038216887f7883fa30ea56937810e36990b0bbb8d629d0cf59f68baf8431ff657cebe7eef561161960208d018d6127d3565b6040805163ffffffff9092168252602082018690520160405180910390a3505050505050505050565b6040516323b872dd60e01b81526001600160a01b038481166004830152306024830152604482018490527f000000000000000000000000000000000000000000000000000000000000000016906323b872dd906064015b600060405180830381600087803b1580156116b357600080fd5b505af1158015610859573d6000803e3d6000fd5b60608060208301356116ec57604051631e4ec46b60e01b815260040160405180910390fd5b6000611742602085013560408601356117086080880188612cd6565b8080601f016020809104026020016040519081016040528093929190818152602001838380828437600092019190915250611dbd92505050565b9093509050600081611755576001611758565b60025b905061177861176a60208701876127d3565b826106356060890189612cd6565b6004549093506001600160a01b031680156117fe5760405163043a78eb60e01b81526001600160a01b0382169063043a78eb906117bb9088908890600401612e72565b602060405180830381865afa1580156117d8573d6000803e3d6000fd5b505050506040513d601f19601f820116820180604052508101906117fc9190612e97565b505b505050915091565b61180e612170565b600061181d8460000151611e22565b602085015190915015611837576118378460200151611e4a565b7f00000000000000000000000000000000000000000000000000000000000000006001600160a01b0316632637a450826040518060a001604052808b63ffffffff1681526020016118878c6114a7565b81526020018a815260200189815260200160008960200151111515815250866040518463ffffffff1660e01b81526004016118c3929190612eb4565b60806040518083038185885af11580156118e1573d6000803e3d6000fd5b50505050506040513d601f19601f820116820180604052508101906119069190612f5d565b979650505050505050565b6040516323b872dd60e01b81523060048201526001600160a01b038481166024830152604482018490527f000000000000000000000000000000000000000000000000000000000000000016906323b872dd90606401611699565b6000546001600160a01b03163314610a735760405163118cdaa760e01b81523360048201526024016107e9565b63ffffffff8216600081815260016020908152604091829020849055815192835282018390527f238399d427b947898edb290f5ff0f9109849b1c3ba196a42e35f00c50a54b98b910160405180910390a15050565b600080546001600160a01b038381166001600160a01b0319831681178455604051919092169283917f8be0079c531659141344cd1fd0a4f28419497f9722a3daafe3b4186f6b6457e09190a35050565b6060836003611a4e826000611f2c565b61ffff1614611a8257611a62816000611f2c565b604051633a51740d60e01b815261ffff90911660048201526024016107e9565b6000611a8e8585611f89565b9050610b388660018361200b565b60408051808201909152600080825260208201527f00000000000000000000000000000000000000000000000000000000000000006001600160a01b031663ddc28c586040518060a001604052808863ffffffff168152602001611aff896114a7565b8152602001878152602001868152602001851515815250306040518363ffffffff1660e01b8152600401611b34929190612eb4565b6040805180830381865afa158015611b50573d6000803e3d6000fd5b505050506040513d601f19601f820116820180604052508101906110e99190612fa7565b606060006040518060a00160405280886001600160a01b03168152602001878152602001868152602001856001600160a01b03168152602001841515815250905080604051602001611bc691906129a6565b60405160208183030381529060405291505095945050505050565b60005b8151811015611cb857611c13828281518110611c0257611c02612c9f565b602002602001015160400151611ce8565b818181518110611c2557611c25612c9f565b60200260200101516040015160036000848481518110611c4757611c47612c9f565b60200260200101516000015163ffffffff1663ffffffff1681526020019081526020016000206000848481518110611c8157611c81612c9f565b60200260200101516020015161ffff1661ffff1681526020019081526020016000209081611caf9190612a69565b50600101611be4565b507fbe4864a8e820971c0247f5992e2da559595f7bf076a21cb5928d443d2a13b67481604051610a569190612fc3565b600281015161ffff811660031461093c5781604051639a6d49cd60e01b81526004016107e991906124c7565b6000611d236020828486612c10565b611d2c9161304e565b9392505050565b6000611d23604060208486612c10565b6060611d528260408186612c10565b8080601f016020809104026020016040519081016040528093929190818152602001838380828437600092019190915250929695505050505050565b6060838383604051602001611da59392919061306c565b60405160208183030381529060405290509392505050565b8051606090151580611df1576040805160208101879052908101859052606001604051602081830303815290604052611e18565b84843385604051602001611e0894939291906130b6565b6040516020818303038152906040525b9150935093915050565b6000813414611e46576040516304fb820960e51b81523460048201526024016107e9565b5090565b60007f00000000000000000000000000000000000000000000000000000000000000006001600160a01b031663e4fe1d946040518163ffffffff1660e01b8152600401602060405180830381865afa158015611eaa573d6000803e3d6000fd5b505050506040513d601f19601f82011682018060405250810190611ece9190612a04565b90506001600160a01b038116611ef7576040516329b99a9560e11b815260040160405180910390fd5b61093c6001600160a01b038216337f000000000000000000000000000000000000000000000000000000000000000085612076565b6000611f39826002613100565b83511015611f805760405162461bcd60e51b8152602060048201526014602482015273746f55696e7431365f6f75744f66426f756e647360601b60448201526064016107e9565b50016002015190565b60606fffffffffffffffffffffffffffffffff821615611fda57604080516001600160801b0319608086811b8216602084015285901b16603082015201604051602081830303815290604052611d2c565b6040516001600160801b0319608085901b166020820152603001604051602081830303815290604052905092915050565b606083600361201b826000611f2c565b61ffff161461202f57611a62816000611f2c565b84600161203c85516120d0565b612047906001613113565b868660405160200161205d95949392919061312e565b6040516020818303038152906040529150509392505050565b604080516001600160a01b0385811660248301528416604482015260648082018490528251808303909101815260849091019091526020810180516001600160e01b03166323b872dd60e01b179052610c709085906120ff565b600061ffff821115611e46576040516306dfcc6560e41b815260106004820152602481018390526044016107e9565b600080602060008451602086016000885af180612122576040513d6000823e3d81fd5b50506000513d9150811561213a578060011415612147565b6001600160a01b0384163b155b15610c7057604051635274afe760e01b81526001600160a01b03851660048201526024016107e9565b60405180606001604052806000801916815260200160006001600160401b031681526020016121b2604051806040016040528060008152602001600081525090565b905290565b5080546121c390612972565b6000825580601f106121d3575050565b601f01602090049060005260206000209081019061092791905b80821115611e4657600081556001016121ed565b60006060828403121561221357600080fd5b50919050565b60008083601f84011261222b57600080fd5b5081356001600160401b0381111561224257600080fd5b60208301915083602082850101111561225a57600080fd5b9250929050565b6001600160a01b038116811461092757600080fd5b600080600080600080600060e0888a03121561229157600080fd5b61229b8989612201565b96506060880135955060808801356001600160401b03808211156122be57600080fd5b6122ca8b838c01612219565b909750955060a08a013591506122df82612261565b90935060c089013590808211156122f557600080fd5b506123028a828b01612219565b989b979a50959850939692959293505050565b600060c0828403121561221357600080fd5b6000806000838503608081121561233d57600080fd5b84356001600160401b0381111561235357600080fd5b61235f87828801612315565b9450506040601f198201121561237457600080fd5b50602084019150606084013561238981612261565b809150509250925092565b6000608082019050825182526001600160401b03602084015116602083015260408301516123cf604084018280518252602090810151910152565b5092915050565b6000602082840312156123e857600080fd5b5035919050565b803563ffffffff8116811461240357600080fd5b919050565b6000806040838503121561241b57600080fd5b612424836123ef565b946020939093013593505050565b803561ffff8116811461240357600080fd5b6000806040838503121561245757600080fd5b612460836123ef565b915061246e60208401612432565b90509250929050565b60005b8381101561249257818101518382015260200161247a565b50506000910152565b600081518084526124b3816020860160208601612477565b601f01601f19169290920160200192915050565b602081526000611d2c602083018461249b565b6000602082840312156124ec57600080fd5b8135611d2c81612261565b8151815260208083015190820152604081016109fe565b60008060008060a0858703121561252457600080fd5b61252e8686612201565b935060608501356001600160401b0381111561254957600080fd5b61255587828801612219565b909450925050608085013561256981612261565b939692955090935050565b6000806040838503121561258757600080fd5b82359150602083013561259981612261565b809150509250929050565b634e487b7160e01b600052604160045260246000fd5b604051606081016001600160401b03811182821017156125dc576125dc6125a4565b60405290565b604080519081016001600160401b03811182821017156125dc576125dc6125a4565b604051601f8201601f191681016001600160401b038111828210171561262c5761262c6125a4565b604052919050565b60006001600160401b0382111561264d5761264d6125a4565b50601f01601f191660200190565b600061266e61266984612634565b612604565b905082815283838301111561268257600080fd5b828260208301376000602084830101529392505050565b600082601f8301126126aa57600080fd5b611d2c8383356020850161265b565b600080604083850312156126cc57600080fd5b8235915060208301356001600160401b03808211156126ea57600080fd5b90840190606082870312156126fe57600080fd5b6127066125ba565b82358152602083013561271881612261565b602082015260408301358281111561272f57600080fd5b61273b88828601612699565b6040830152508093505050509250929050565b60008083601f84011261276057600080fd5b5081356001600160401b0381111561277757600080fd5b6020830191508360208260051b850101111561225a57600080fd5b600080602083850312156127a557600080fd5b82356001600160401b038111156127bb57600080fd5b6127c78582860161274e565b90969095509350505050565b6000602082840312156127e557600080fd5b611d2c826123ef565b6000806000806060858703121561280457600080fd5b61280d856123ef565b935061281b60208601612432565b925060408501356001600160401b0381111561283657600080fd5b61284287828801612219565b95989497509550505050565b801515811461092757600080fd5b6000806040838503121561286f57600080fd5b82356001600160401b0381111561288557600080fd5b61289185828601612315565b92505060208301356125998161284e565b8381526001600160a01b03831660208201526060604082018190526000906110e99083018461249b565b6000806000606084860312156128e157600080fd5b8335925060208401356128f381612261565b915060408401356001600160401b0381111561290e57600080fd5b61291a86828701612699565b9150509250925092565b60006060828403121561293657600080fd5b611d2c8383612201565b60006040828403121561295257600080fd5b61295a6125e2565b82358152602083013560208201528091505092915050565b600181811c9082168061298657607f821691505b60208210810361221357634e487b7160e01b600052602260045260246000fd5b60208152600060018060a01b0380845116602084015260208401516040840152604084015160a060608501526129df60c085018261249b565b90508160608601511660808501526080850151151560a0850152809250505092915050565b600060208284031215612a1657600080fd5b8151611d2c81612261565b601f82111561146c576000816000526020600020601f850160051c81016020861015612a4a5750805b601f850160051c820191505b818110156113f857828155600101612a56565b81516001600160401b03811115612a8257612a826125a4565b612a9681612a908454612972565b84612a21565b602080601f831160018114612acb5760008415612ab35750858301515b600019600386901b1c1916600185901b1785556113f8565b600085815260208120601f198616915b82811015612afa57888601518255948401946001909101908401612adb565b5085821015612b185787850151600019600388901b60f8161c191681555b5050505050600190811b01905550565b60006001600160401b0380841115612b4257612b426125a4565b8360051b6020612b53818301612604565b868152918501918181019036841115612b6b57600080fd5b865b84811015612c0457803586811115612b855760008081fd5b88016060368290031215612b995760008081fd5b612ba16125ba565b612baa826123ef565b8152612bb7868301612432565b8682015260408083013589811115612bcf5760008081fd5b929092019136601f840112612be45760008081fd5b612bf236843589860161265b565b90820152845250918301918301612b6d565b50979650505050505050565b60008085851115612c2057600080fd5b83861115612c2d57600080fd5b5050820193919092039150565b60008451612c4c818460208901612477565b8201838582376000930192835250909392505050565b81835281816020850137506000828201602090810191909152601f909101601f19169091010190565b602081526000610b4f602083018486612c62565b634e487b7160e01b600052603260045260246000fd5b6000823561013e19833603018112612ccc57600080fd5b9190910192915050565b6000808335601e19843603018112612ced57600080fd5b8301803591506001600160401b03821115612d0757600080fd5b60200191503681900382131561225a57600080fd5b6001600160401b038116811461092757600080fd5b63ffffffff612d3f896123ef565b1681526020880135602082015260006040890135612d5c81612d1c565b6001600160401b03811660408401525087606083015260e06080830152612d8760e083018789612c62565b6001600160a01b03861660a084015282810360c0840152612da9818587612c62565b9a9950505050505050505050565b600060208284031215612dc957600080fd5b81516001600160401b03811115612ddf57600080fd5b8201601f81018413612df057600080fd5b8051612dfe61266982612634565b818152856020838501011115612e1357600080fd5b6110e9826020830160208601612477565b600060208284031215612e3657600080fd5b8135611d2c81612d1c565b60018060a01b038516815283602082015261ffff83166040820152608060608201526000610b38608083018461249b565b604081526000612e85604083018561249b565b82810360208401526110e9818561249b565b600060208284031215612ea957600080fd5b8151611d2c8161284e565b6040815263ffffffff8351166040820152602083015160608201526000604084015160a06080840152612eea60e084018261249b565b90506060850151603f198483030160a0850152612f07828261249b565b60809690960151151560c08501525050506001600160a01b039190911660209091015290565b600060408284031215612f3f57600080fd5b612f476125e2565b9050815181526020820151602082015292915050565b600060808284031215612f6f57600080fd5b612f776125ba565b825181526020830151612f8981612d1c565b6020820152612f9b8460408501612f2d565b60408201529392505050565b600060408284031215612fb957600080fd5b611d2c8383612f2d565b600060208083018184528085518083526040925060408601915060408160051b87010184880160005b8381101561304057888303603f190185528151805163ffffffff1684528781015161ffff1688850152860151606087850181905261302c8186018361249b565b968901969450505090860190600101612fec565b509098975050505050505050565b803560208310156109fe57600019602084900360031b1b1692915050565b60c084901b6001600160c01b031916815260e083901b6001600160e01b031916600882015281516000906130a781600c850160208701612477565b91909101600c01949350505050565b848152836020820152826040820152600082516130da816060850160208701612477565b9190910160600195945050505050565b634e487b7160e01b600052601160045260246000fd5b808201808211156109fe576109fe6130ea565b61ffff8181168382160190808211156123cf576123cf6130ea565b60008651613140818460208b01612477565b6001600160f81b031960f888811b82169285019283526001600160f01b031960f089901b16600184015286901b1660038201528351613186816004840160208801612477565b0160040197965050505050505056fea2646970667358221220520fe1e2ecc2e871f81915f8d3f7f7db6491a22adedd620421aa39865e52df1764736f6c63430008160033",
  "devdoc": {
    "errors": {
      "OwnableInvalidOwner(address)": [
        {
          "details": "The owner is not a valid owner account. (eg. `address(0)`)"
        }
      ],
      "OwnableUnauthorizedAccount(address)": [
        {
          "details": "The caller account is not authorized to perform an operation."
        }
      ],
      "SafeCastOverflowedUintDowncast(uint8,uint256)": [
        {
          "details": "Value doesn't fit in an uint of `bits` size."
        }
      ],
      "SafeERC20FailedOperation(address)": [
        {
          "details": "An operation with an ERC-20 token failed."
        }
      ]
    },
    "events": {
      "PreCrimeSet(address)": {
        "details": "Emitted when the preCrime contract address is set.",
        "params": {
          "preCrimeAddress": "The address of the preCrime contract."
        }
      }
    },
    "kind": "dev",
    "methods": {
      "allowInitializePath((uint32,bytes32,uint64))": {
        "details": "This indicates to the endpoint that the OApp has enabled msgs for this particular path to be received.This defaults to assuming if a peer has been set, its initialized. Can be overridden by the OApp if there is other logic to determine this.",
        "params": {
          "origin": "The origin information containing the source endpoint and sender address."
        },
        "returns": {
          "_0": "Whether the path has been initialized."
        }
      },
      "approvalRequired()": {
        "details": "In the case of ONFT where the contract IS the token, approval is NOT required.",
        "returns": {
          "_0": "requiresApproval Needs approval of the underlying token implementation."
        }
      },
      "combineOptions(uint32,uint16,bytes)": {
        "details": "If there is an enforced lzReceive option: - {gasLimit: 200k, msg.value: 1 ether} AND a caller supplies a lzReceive option: {gasLimit: 100k, msg.value: 0.5 ether} - The resulting options will be {gasLimit: 300k, msg.value: 1.5 ether} when the message is executed on the remote lzReceive() function.This presence of duplicated options is handled off-chain in the verifier/executor.",
        "params": {
          "_eid": "The endpoint ID.",
          "_extraOptions": "Additional options passed by the caller.",
          "_msgType": "The OAPP message type."
        },
        "returns": {
          "_0": "options The combination of caller specified options AND enforced options."
        }
      },
      "isComposeMsgSender((uint32,bytes32,uint64),bytes,address)": {
        "details": "_origin The origin information containing the source endpoint and sender address.  - srcEid: The source chain endpoint ID.  - sender: The sender address on the src chain.  - nonce: The nonce of the message._message The lzReceive payload.Applications can optionally choose to implement separate composeMsg senders that are NOT the bridging layer.The default sender IS the OAppReceiver implementer.",
        "params": {
          "_sender": "The sender address."
        },
        "returns": {
          "_0": "isSender Is a valid sender."
        }
      },
      "isPeer(uint32,bytes32)": {
        "details": "Check if the peer is considered 'trusted' by the OApp.Enables OAppPreCrimeSimulator to check whether a potential Inbound Packet is from a trusted source.",
        "params": {
          "_eid": "The endpoint ID to check.",
          "_peer": "The peer to check."
        },
        "returns": {
          "_0": "Whether the peer passed is considered 'trusted' by the OApp."
        }
      },
      "lzReceive((uint32,bytes32,uint64),bytes32,bytes,address,bytes)": {
        "details": "Entry point for receiving messages or packets from the endpoint.Entry point for receiving msg/packet from the LayerZero endpoint.",
        "params": {
          "_executor": "The address of the executor for the received message.",
          "_extraData": "Additional arbitrary data provided by the corresponding executor.",
          "_guid": "The unique identifier for the received LayerZero message.",
          "_message": "The payload of the received message.",
          "_origin": "The origin information containing the source endpoint and sender address.  - srcEid: The source chain endpoint ID.  - sender: The sender address on the src chain.  - nonce: The nonce of the message."
        }
      },
      "lzReceiveAndRevert(((uint32,bytes32,uint64),uint32,address,bytes32,uint256,address,bytes,bytes)[])": {
        "details": "Interface for pre-crime simulations. Always reverts at the end with the simulation results.WARNING: MUST revert at the end with the simulation results.Gives the preCrime implementation the ability to mock sending packets to the lzReceive function, WITHOUT actually executing them.",
        "params": {
          "_packets": "An array of InboundPacket objects representing received packets to be delivered."
        }
      },
      "lzReceiveSimulate((uint32,bytes32,uint64),bytes32,bytes,address,bytes)": {
        "details": "Is effectively an internal function because msg.sender must be address(this). Allows resetting the call stack for 'internal' calls.",
        "params": {
          "_executor": "The executor address for the packet.",
          "_extraData": "Additional data for the packet.",
          "_guid": "The unique identifier of the packet.",
          "_message": "The message payload of the packet.",
          "_origin": "The origin information containing the source endpoint and sender address.  - srcEid: The source chain endpoint ID.  - sender: The sender address on the src chain.  - nonce: The nonce of the message."
        }
      },
      "nextNonce(uint32,bytes32)": {
        "details": "_srcEid The source endpoint ID._sender The sender address.The path nonce starts from 1. If 0 is returned it means that there is NO nonce ordered enforcement.Is required by the off-chain executor to determine the OApp expects msg execution is ordered.This is also enforced by the OApp.By default this is NOT enabled. ie. nextNonce is hardcoded to return 0.",
        "returns": {
          "nonce": "The next nonce."
        }
      },
      "oApp()": {
        "details": "Retrieves the address of the OApp contract.The simulator contract is the base contract for the OApp by default.If the simulator is a separate contract, override this function.",
        "returns": {
          "_0": "The address of the OApp contract."
        }
      },
      "oAppVersion()": {
        "returns": {
          "receiverVersion": "The version of the OAppReceiver.sol implementation.",
          "senderVersion": "The version of the OAppSender.sol implementation."
        }
      },
      "onftVersion()": {
        "details": "version: Indicates a cross-chain compatible msg encoding with other ONFTs.If a new feature is added to the ONFT cross-chain msg encoding, the version will be incremented.ie. localONFT version(x,1) CAN send messages to remoteONFT version(x,1)",
        "returns": {
          "interfaceId": "The interface ID (0x23e18da6).",
          "version": "The version."
        }
      },
      "owner()": {
        "details": "Returns the address of the current owner."
      },
      "quoteSend((uint32,bytes32,uint256,bytes,bytes,bytes),bool)": {
        "details": "MessagingFee: LayerZero msg fee  - nativeFee: The native fee.  - lzTokenFee: The lzToken fee.",
        "params": {
          "_payInLzToken": "Flag indicating whether the caller is paying in the LZ token.",
          "_sendParam": "The parameters for the send() operation."
        },
        "returns": {
          "msgFee": "fee The calculated LayerZero messaging fee from the send() operation."
        }
      },
      "renounceOwnership()": {
        "details": "Leaves the contract without owner. It will not be possible to call `onlyOwner` functions. Can only be called by the current owner. NOTE: Renouncing ownership will leave the contract without an owner, thereby disabling any functionality that is only available to the owner."
      },
      "send((uint32,bytes32,uint256,bytes,bytes,bytes),(uint256,uint256),address)": {
        "details": "MessagingReceipt: LayerZero msg receipt  - guid: The unique identifier for the sent message.  - nonce: The nonce of the sent message.  - fee: The LayerZero fee incurred for the message.",
        "params": {
          "_fee": "The fee information supplied by the caller.      - nativeFee: The native fee.      - lzTokenFee: The lzToken fee.",
          "_refundAddress": "The address to receive any excess funds from fees etc. on the src.",
          "_sendParam": "The parameters for the send operation."
        },
        "returns": {
          "msgReceipt": "receipt The LayerZero messaging receipt from the send() operation."
        }
      },
      "setDelegate(address)": {
        "details": "Only the owner/admin of the OApp can call this function.Provides the ability for a delegate to set configs, on behalf of the OApp, directly on the Endpoint contract.",
        "params": {
          "_delegate": "The address of the delegate to be set."
        }
      },
      "setEnforcedOptions((uint32,uint16,bytes)[])": {
        "details": "Sets the enforced options for specific endpoint and message type combinations.Only the owner/admin of the OApp can call this function.Provides a way for the OApp to enforce things like paying for PreCrime, AND/OR minimum dst lzReceive gas amounts etc.These enforced options can vary as the potential options/execution on the remote may differ as per the msgType. eg. Amount of lzReceive() gas necessary to deliver a lzCompose() message adds overhead you dont want to pay if you are only making a standard LayerZero message ie. lzReceive() WITHOUT sendCompose().",
        "params": {
          "_enforcedOptions": "An array of EnforcedOptionParam structures specifying enforced options."
        }
      },
      "setMsgInspector(address)": {
        "details": "This is an optional contract that can be used to inspect both 'message' and 'options'.Set it to address(0) to disable it, or set it to a contract address to enable it.",
        "params": {
          "_msgInspector": "The address of the message inspector."
        }
      },
      "setPeer(uint32,bytes32)": {
        "details": "Only the owner/admin of the OApp can call this function.Indicates that the peer is trusted to send LayerZero messages to this OApp.Set this to bytes32(0) to remove the peer address.Peer is a bytes32 to accommodate non-evm chains.",
        "params": {
          "_eid": "The endpoint ID.",
          "_peer": "The address of the peer to be associated with the corresponding endpoint."
        }
      },
      "setPreCrime(address)": {
        "details": "Sets the preCrime contract address.",
        "params": {
          "_preCrime": "The address of the preCrime contract."
        }
      },
      "transferOwnership(address)": {
        "details": "Transfers ownership of the contract to a new account (`newOwner`). Can only be called by the current owner."
      }
    },
    "version": 1
  },
  "userdoc": {
    "kind": "user",
    "methods": {
      "allowInitializePath((uint32,bytes32,uint64))": {
        "notice": "Checks if the path initialization is allowed based on the provided origin."
      },
      "approvalRequired()": {
        "notice": "Indicates whether the ONFT721 contract requires approval of the 'token()' to send."
      },
      "combineOptions(uint32,uint16,bytes)": {
        "notice": "Combines options for a given endpoint and message type."
      },
      "endpoint()": {
        "notice": "Retrieves the LayerZero endpoint associated with the OApp."
      },
      "isComposeMsgSender((uint32,bytes32,uint64),bytes,address)": {
        "notice": "Indicates whether an address is an approved composeMsg sender to the Endpoint."
      },
      "nextNonce(uint32,bytes32)": {
        "notice": "Retrieves the next nonce for a given source endpoint and sender address."
      },
      "oAppVersion()": {
        "notice": "Retrieves the OApp version information."
      },
      "onftVersion()": {
        "notice": "Retrieves interfaceID and the version of the ONFT."
      },
      "peers(uint32)": {
        "notice": "Retrieves the peer (OApp) associated with a corresponding endpoint."
      },
      "quoteSend((uint32,bytes32,uint256,bytes,bytes,bytes),bool)": {
        "notice": "Provides a quote for the send() operation."
      },
      "send((uint32,bytes32,uint256,bytes,bytes,bytes),(uint256,uint256),address)": {
        "notice": "Executes the send() operation."
      },
      "setDelegate(address)": {
        "notice": "Sets the delegate address for the OApp."
      },
      "setMsgInspector(address)": {
        "notice": "Sets the message inspector address for the OFT."
      },
      "setPeer(uint32,bytes32)": {
        "notice": "Sets the peer address (OApp instance) for a corresponding endpoint."
      },
      "token()": {
        "notice": "Retrieves the address of the underlying ERC721 implementation (ie. external contract)."
      }
    },
    "version": 1
  },
  "storageLayout": {
    "storage": [
      {
        "astId": 6757,
        "contract": "contracts/Collection.sol:Collection",
        "label": "_owner",
        "offset": 0,
        "slot": "0",
        "type": "t_address"
      },
      {
        "astId": 3145,
        "contract": "contracts/Collection.sol:Collection",
        "label": "peers",
        "offset": 0,
        "slot": "1",
        "type": "t_mapping(t_uint32,t_bytes32)"
      },
      {
        "astId": 4329,
        "contract": "contracts/Collection.sol:Collection",
        "label": "preCrime",
        "offset": 0,
        "slot": "2",
        "type": "t_address"
      },
      {
        "astId": 3761,
        "contract": "contracts/Collection.sol:Collection",
        "label": "enforcedOptions",
        "offset": 0,
        "slot": "3",
        "type": "t_mapping(t_uint32,t_mapping(t_uint16,t_bytes_storage))"
      },
      {
        "astId": 6152,
        "contract": "contracts/Collection.sol:Collection",
        "label": "msgInspector",
        "offset": 0,
        "slot": "4",
        "type": "t_address"
      },
      {
        "astId": 9698,
        "contract": "contracts/Collection.sol:Collection",
        "label": "tokenAddress",
        "offset": 0,
        "slot": "5",
        "type": "t_address"
      },
      {
        "astId": 9700,
        "contract": "contracts/Collection.sol:Collection",
        "label": "curator",
        "offset": 0,
        "slot": "6",
        "type": "t_address"
      },
      {
        "astId": 9702,
        "contract": "contracts/Collection.sol:Collection",
        "label": "lzEndpoint",
        "offset": 0,
        "slot": "7",
        "type": "t_address"
      },
      {
        "astId": 9704,
        "contract": "contracts/Collection.sol:Collection",
        "label": "delegate",
        "offset": 0,
        "slot": "8",
        "type": "t_address"
      },
      {
        "astId": 9706,
        "contract": "contracts/Collection.sol:Collection",
        "label": "galleryEid",
        "offset": 20,
        "slot": "8",
        "type": "t_uint32"
      },
      {
        "astId": 9718,
        "contract": "contracts/Collection.sol:Collection",
        "label": "rights",
        "offset": 0,
        "slot": "9",
        "type": "t_mapping(t_uint256,t_struct(RoyaltyRights)9713_storage)"
      }
    ],
    "types": {
      "t_address": {
        "encoding": "inplace",
        "label": "address",
        "numberOfBytes": "20"
      },
      "t_bytes32": {
        "encoding": "inplace",
        "label": "bytes32",
        "numberOfBytes": "32"
      },
      "t_bytes_storage": {
        "encoding": "bytes",
        "label": "bytes",
        "numberOfBytes": "32"
      },
      "t_mapping(t_uint16,t_bytes_storage)": {
        "encoding": "mapping",
        "key": "t_uint16",
        "label": "mapping(uint16 => bytes)",
        "numberOfBytes": "32",
        "value": "t_bytes_storage"
      },
      "t_mapping(t_uint256,t_struct(RoyaltyRights)9713_storage)": {
        "encoding": "mapping",
        "key": "t_uint256",
        "label": "mapping(uint256 => struct Collection.RoyaltyRights)",
        "numberOfBytes": "32",
        "value": "t_struct(RoyaltyRights)9713_storage"
      },
      "t_mapping(t_uint32,t_bytes32)": {
        "encoding": "mapping",
        "key": "t_uint32",
        "label": "mapping(uint32 => bytes32)",
        "numberOfBytes": "32",
        "value": "t_bytes32"
      },
      "t_mapping(t_uint32,t_mapping(t_uint16,t_bytes_storage))": {
        "encoding": "mapping",
        "key": "t_uint32",
        "label": "mapping(uint32 => mapping(uint16 => bytes))",
        "numberOfBytes": "32",
        "value": "t_mapping(t_uint16,t_bytes_storage)"
      },
      "t_string_storage": {
        "encoding": "bytes",
        "label": "string",
        "numberOfBytes": "32"
      },
      "t_struct(RoyaltyRights)9713_storage": {
        "encoding": "inplace",
        "label": "struct Collection.RoyaltyRights",
        "members": [
          {
            "astId": 9708,
            "contract": "contracts/Collection.sol:Collection",
            "label": "tokenId",
            "offset": 0,
            "slot": "0",
            "type": "t_uint256"
          },
          {
            "astId": 9710,
            "contract": "contracts/Collection.sol:Collection",
            "label": "owner",
            "offset": 0,
            "slot": "1",
            "type": "t_address"
          },
          {
            "astId": 9712,
            "contract": "contracts/Collection.sol:Collection",
            "label": "signature",
            "offset": 0,
            "slot": "2",
            "type": "t_string_storage"
          }
        ],
        "numberOfBytes": "96"
      },
      "t_uint16": {
        "encoding": "inplace",
        "label": "uint16",
        "numberOfBytes": "2"
      },
      "t_uint256": {
        "encoding": "inplace",
        "label": "uint256",
        "numberOfBytes": "32"
      },
      "t_uint32": {
        "encoding": "inplace",
        "label": "uint32",
        "numberOfBytes": "4"
      }
    }
  }
}