{
  "address": "0xE631e5ed117B634954f2f5FDeEF95849B9f2DbC8",
  "abi": [
    {
      "inputs": [
        {
          "internalType": "address",
          "name": "_endpoint",
          "type": "address"
        },
        {
          "internalType": "address",
          "name": "_delegate",
          "type": "address"
        }
      ],
      "stateMutability": "nonpayable",
      "type": "constructor"
    },
    {
      "inputs": [],
      "name": "InvalidDelegate",
      "type": "error"
    },
    {
      "inputs": [],
      "name": "InvalidEndpointCall",
      "type": "error"
    },
    {
      "inputs": [],
      "name": "LzTokenUnavailable",
      "type": "error"
    },
    {
      "inputs": [
        {
          "internalType": "uint32",
          "name": "eid",
          "type": "uint32"
        }
      ],
      "name": "NoPeer",
      "type": "error"
    },
    {
      "inputs": [
        {
          "internalType": "uint256",
          "name": "msgValue",
          "type": "uint256"
        }
      ],
      "name": "NotEnoughNative",
      "type": "error"
    },
    {
      "inputs": [
        {
          "internalType": "address",
          "name": "addr",
          "type": "address"
        }
      ],
      "name": "OnlyEndpoint",
      "type": "error"
    },
    {
      "inputs": [
        {
          "internalType": "uint32",
          "name": "eid",
          "type": "uint32"
        },
        {
          "internalType": "bytes32",
          "name": "sender",
          "type": "bytes32"
        }
      ],
      "name": "OnlyPeer",
      "type": "error"
    },
    {
      "inputs": [
        {
          "internalType": "address",
          "name": "owner",
          "type": "address"
        }
      ],
      "name": "OwnableInvalidOwner",
      "type": "error"
    },
    {
      "inputs": [
        {
          "internalType": "address",
          "name": "account",
          "type": "address"
        }
      ],
      "name": "OwnableUnauthorizedAccount",
      "type": "error"
    },
    {
      "inputs": [
        {
          "internalType": "address",
          "name": "token",
          "type": "address"
        }
      ],
      "name": "SafeERC20FailedOperation",
      "type": "error"
    },
    {
      "anonymous": false,
      "inputs": [
        {
          "indexed": true,
          "internalType": "address",
          "name": "previousOwner",
          "type": "address"
        },
        {
          "indexed": true,
          "internalType": "address",
          "name": "newOwner",
          "type": "address"
        }
      ],
      "name": "OwnershipTransferred",
      "type": "event"
    },
    {
      "anonymous": false,
      "inputs": [
        {
          "indexed": false,
          "internalType": "uint32",
          "name": "eid",
          "type": "uint32"
        },
        {
          "indexed": false,
          "internalType": "bytes32",
          "name": "peer",
          "type": "bytes32"
        }
      ],
      "name": "PeerSet",
      "type": "event"
    },
    {
      "inputs": [
        {
          "components": [
            {
              "internalType": "uint32",
              "name": "srcEid",
              "type": "uint32"
            },
            {
              "internalType": "bytes32",
              "name": "sender",
              "type": "bytes32"
            },
            {
              "internalType": "uint64",
              "name": "nonce",
              "type": "uint64"
            }
          ],
          "internalType": "struct Origin",
          "name": "origin",
          "type": "tuple"
        }
      ],
      "name": "allowInitializePath",
      "outputs": [
        {
          "internalType": "bool",
          "name": "",
          "type": "bool"
        }
      ],
      "stateMutability": "view",
      "type": "function"
    },
    {
      "inputs": [
        {
          "internalType": "address",
          "name": "",
          "type": "address"
        }
      ],
      "name": "collections",
      "outputs": [
        {
          "internalType": "address",
          "name": "",
          "type": "address"
        }
      ],
      "stateMutability": "view",
      "type": "function"
    },
    {
      "inputs": [],
      "name": "curatorDelegate",
      "outputs": [
        {
          "internalType": "address",
          "name": "",
          "type": "address"
        }
      ],
      "stateMutability": "view",
      "type": "function"
    },
    {
      "inputs": [
        {
          "internalType": "address",
          "name": "attester",
          "type": "address"
        },
        {
          "internalType": "uint64",
          "name": "schemaId",
          "type": "uint64"
        },
        {
          "internalType": "uint64",
          "name": "attestationId",
          "type": "uint64"
        },
        {
          "internalType": "bytes",
          "name": "extraData",
          "type": "bytes"
        }
      ],
      "name": "didReceiveAttestation",
      "outputs": [],
      "stateMutability": "payable",
      "type": "function"
    },
    {
      "inputs": [
        {
          "internalType": "address",
          "name": "attester",
          "type": "address"
        },
        {
          "internalType": "uint64",
          "name": "",
          "type": "uint64"
        },
        {
          "internalType": "uint64",
          "name": "attestationId",
          "type": "uint64"
        },
        {
          "internalType": "contract IERC20",
          "name": "resolverFeeERC20Token",
          "type": "address"
        },
        {
          "internalType": "uint256",
          "name": "resolverFeeERC20Amount",
          "type": "uint256"
        },
        {
          "internalType": "bytes",
          "name": "extraData",
          "type": "bytes"
        }
      ],
      "name": "didReceiveAttestation",
      "outputs": [],
      "stateMutability": "nonpayable",
      "type": "function"
    },
    {
      "inputs": [
        {
          "internalType": "address",
          "name": "attester",
          "type": "address"
        },
        {
          "internalType": "uint64",
          "name": "",
          "type": "uint64"
        },
        {
          "internalType": "uint64",
          "name": "attestationId",
          "type": "uint64"
        },
        {
          "internalType": "bytes",
          "name": "extraData",
          "type": "bytes"
        }
      ],
      "name": "didReceiveRevocation",
      "outputs": [],
      "stateMutability": "payable",
      "type": "function"
    },
    {
      "inputs": [
        {
          "internalType": "address",
          "name": "attester",
          "type": "address"
        },
        {
          "internalType": "uint64",
          "name": "",
          "type": "uint64"
        },
        {
          "internalType": "uint64",
          "name": "attestationId",
          "type": "uint64"
        },
        {
          "internalType": "contract IERC20",
          "name": "resolverFeeERC20Token",
          "type": "address"
        },
        {
          "internalType": "uint256",
          "name": "resolverFeeERC20Amount",
          "type": "uint256"
        },
        {
          "internalType": "bytes",
          "name": "extraData",
          "type": "bytes"
        }
      ],
      "name": "didReceiveRevocation",
      "outputs": [],
      "stateMutability": "nonpayable",
      "type": "function"
    },
    {
      "inputs": [],
      "name": "endpoint",
      "outputs": [
        {
          "internalType": "contract ILayerZeroEndpointV2",
          "name": "",
          "type": "address"
        }
      ],
      "stateMutability": "view",
      "type": "function"
    },
    {
      "inputs": [],
      "name": "galleryAddress",
      "outputs": [
        {
          "internalType": "address",
          "name": "",
          "type": "address"
        }
      ],
      "stateMutability": "view",
      "type": "function"
    },
    {
      "inputs": [
        {
          "components": [
            {
              "internalType": "uint32",
              "name": "srcEid",
              "type": "uint32"
            },
            {
              "internalType": "bytes32",
              "name": "sender",
              "type": "bytes32"
            },
            {
              "internalType": "uint64",
              "name": "nonce",
              "type": "uint64"
            }
          ],
          "internalType": "struct Origin",
          "name": "",
          "type": "tuple"
        },
        {
          "internalType": "bytes",
          "name": "",
          "type": "bytes"
        },
        {
          "internalType": "address",
          "name": "_sender",
          "type": "address"
        }
      ],
      "name": "isComposeMsgSender",
      "outputs": [
        {
          "internalType": "bool",
          "name": "",
          "type": "bool"
        }
      ],
      "stateMutability": "view",
      "type": "function"
    },
    {
      "inputs": [],
      "name": "lzEndpoint",
      "outputs": [
        {
          "internalType": "address",
          "name": "",
          "type": "address"
        }
      ],
      "stateMutability": "view",
      "type": "function"
    },
    {
      "inputs": [
        {
          "components": [
            {
              "internalType": "uint32",
              "name": "srcEid",
              "type": "uint32"
            },
            {
              "internalType": "bytes32",
              "name": "sender",
              "type": "bytes32"
            },
            {
              "internalType": "uint64",
              "name": "nonce",
              "type": "uint64"
            }
          ],
          "internalType": "struct Origin",
          "name": "_origin",
          "type": "tuple"
        },
        {
          "internalType": "bytes32",
          "name": "_guid",
          "type": "bytes32"
        },
        {
          "internalType": "bytes",
          "name": "_message",
          "type": "bytes"
        },
        {
          "internalType": "address",
          "name": "_executor",
          "type": "address"
        },
        {
          "internalType": "bytes",
          "name": "_extraData",
          "type": "bytes"
        }
      ],
      "name": "lzReceive",
      "outputs": [],
      "stateMutability": "payable",
      "type": "function"
    },
    {
      "inputs": [
        {
          "internalType": "uint32",
          "name": "",
          "type": "uint32"
        },
        {
          "internalType": "bytes32",
          "name": "",
          "type": "bytes32"
        }
      ],
      "name": "nextNonce",
      "outputs": [
        {
          "internalType": "uint64",
          "name": "nonce",
          "type": "uint64"
        }
      ],
      "stateMutability": "view",
      "type": "function"
    },
    {
      "inputs": [],
      "name": "oAppVersion",
      "outputs": [
        {
          "internalType": "uint64",
          "name": "senderVersion",
          "type": "uint64"
        },
        {
          "internalType": "uint64",
          "name": "receiverVersion",
          "type": "uint64"
        }
      ],
      "stateMutability": "pure",
      "type": "function"
    },
    {
      "inputs": [],
      "name": "owner",
      "outputs": [
        {
          "internalType": "address",
          "name": "",
          "type": "address"
        }
      ],
      "stateMutability": "view",
      "type": "function"
    },
    {
      "inputs": [
        {
          "internalType": "uint32",
          "name": "eid",
          "type": "uint32"
        }
      ],
      "name": "peers",
      "outputs": [
        {
          "internalType": "bytes32",
          "name": "peer",
          "type": "bytes32"
        }
      ],
      "stateMutability": "view",
      "type": "function"
    },
    {
      "inputs": [
        {
          "internalType": "uint32",
          "name": "_dstEid",
          "type": "uint32"
        },
        {
          "internalType": "string",
          "name": "_message",
          "type": "string"
        },
        {
          "internalType": "bytes",
          "name": "_options",
          "type": "bytes"
        },
        {
          "internalType": "bool",
          "name": "_payInLzToken",
          "type": "bool"
        }
      ],
      "name": "quote",
      "outputs": [
        {
          "components": [
            {
              "internalType": "uint256",
              "name": "nativeFee",
              "type": "uint256"
            },
            {
              "internalType": "uint256",
              "name": "lzTokenFee",
              "type": "uint256"
            }
          ],
          "internalType": "struct MessagingFee",
          "name": "fee",
          "type": "tuple"
        }
      ],
      "stateMutability": "view",
      "type": "function"
    },
    {
      "inputs": [],
      "name": "renounceOwnership",
      "outputs": [],
      "stateMutability": "nonpayable",
      "type": "function"
    },
    {
      "inputs": [
        {
          "internalType": "uint32",
          "name": "_dstEid",
          "type": "uint32"
        },
        {
          "internalType": "string",
          "name": "_message",
          "type": "string"
        },
        {
          "internalType": "bytes",
          "name": "_options",
          "type": "bytes"
        }
      ],
      "name": "send",
      "outputs": [
        {
          "components": [
            {
              "internalType": "bytes32",
              "name": "guid",
              "type": "bytes32"
            },
            {
              "internalType": "uint64",
              "name": "nonce",
              "type": "uint64"
            },
            {
              "components": [
                {
                  "internalType": "uint256",
                  "name": "nativeFee",
                  "type": "uint256"
                },
                {
                  "internalType": "uint256",
                  "name": "lzTokenFee",
                  "type": "uint256"
                }
              ],
              "internalType": "struct MessagingFee",
              "name": "fee",
              "type": "tuple"
            }
          ],
          "internalType": "struct MessagingReceipt",
          "name": "receipt",
          "type": "tuple"
        }
      ],
      "stateMutability": "payable",
      "type": "function"
    },
    {
      "inputs": [
        {
          "internalType": "address",
          "name": "_delegate",
          "type": "address"
        }
      ],
      "name": "setDelegate",
      "outputs": [],
      "stateMutability": "nonpayable",
      "type": "function"
    },
    {
      "inputs": [
        {
          "internalType": "uint32",
          "name": "_eid",
          "type": "uint32"
        },
        {
          "internalType": "bytes32",
          "name": "_peer",
          "type": "bytes32"
        }
      ],
      "name": "setPeer",
      "outputs": [],
      "stateMutability": "nonpayable",
      "type": "function"
    },
    {
      "inputs": [
        {
          "internalType": "address",
          "name": "tokenAddress",
          "type": "address"
        },
        {
          "internalType": "address",
          "name": "collectionAddress",
          "type": "address"
        }
      ],
      "name": "supportToken",
      "outputs": [],
      "stateMutability": "nonpayable",
      "type": "function"
    },
    {
      "inputs": [
        {
          "internalType": "address",
          "name": "newOwner",
          "type": "address"
        }
      ],
      "name": "transferOwnership",
      "outputs": [],
      "stateMutability": "nonpayable",
      "type": "function"
    }
  ],
  "transactionHash": "0xbd330225eb0f18494710885300e3e5755d9786fed16eaeecd81097f2949d24b6",
  "args": [
    "0x6EDCE65403992e310A62460808c4b910D972f10f",
    "0xaaB63b70Ad1fcFf67EB26963EB352C91945B01e2"
  ],
  "numDeployments": 7,
  "solcInputHash": "3274f4b0f89d7f4e50c0fd54db4cfc9b",
  "bytecode": "0x60a06040523480156200001157600080fd5b50604051620017973803806200179783398101604081905262000034916200017c565b81818181806001600160a01b0381166200006857604051631e4fbdf760e01b81526000600482015260240160405180910390fd5b62000073816200010f565b506001600160a01b038083166080528116620000a257604051632d618d8160e21b815260040160405180910390fd5b60805160405163ca5eb5e160e01b81526001600160a01b0383811660048301529091169063ca5eb5e190602401600060405180830381600087803b158015620000ea57600080fd5b505af1158015620000ff573d6000803e3d6000fd5b50505050505050505050620001b4565b600080546001600160a01b038381166001600160a01b0319831681178455604051919092169283917f8be0079c531659141344cd1fd0a4f28419497f9722a3daafe3b4186f6b6457e09190a35050565b80516001600160a01b03811681146200017757600080fd5b919050565b600080604083850312156200019057600080fd5b6200019b836200015f565b9150620001ab602084016200015f565b90509250929050565b60805161159d620001fa60003960008181610258015281816104aa0152818161064a0152818161098701528181610a7501528181610b6c0152610c23015261159d6000f3fe6080604052600436106101405760003560e01c806382413eac116100b6578063e0539e581161006f578063e0539e5814610408578063e33361f414610428578063e830b5c714610222578063f2fde38b1461043b578063f77e5dd31461045b578063ff7bd03d1461048857600080fd5b806382413eac146102e75780638da5cb5b1461032657806392b9f8f514610344578063b353aaa71461038d578063bb0b6a53146103ad578063ca5eb5e1146103e857600080fd5b806343add2e61161010857806343add2e6146101ec5780634466507a146102225780635e280f1114610246578063715018a61461027a578063774d67f91461028f5780637d25a05e146102af57600080fd5b806313137d651461014557806317442b701461015a5780633398b4ed146101815780633400288b14610194578063372d6ea0146101b4575b600080fd5b610158610153366004610dcd565b6104a8565b005b34801561016657600080fd5b50604080516001815260026020820152015b60405180910390f35b61015861018f366004610e81565b610550565b3480156101a057600080fd5b506101586101af366004610f15565b6105f0565b3480156101c057600080fd5b506004546101d4906001600160a01b031681565b6040516001600160a01b039091168152602001610178565b3480156101f857600080fd5b506101d4610207366004610f3f565b6005602052600090815260409020546001600160a01b031681565b34801561022e57600080fd5b5061015861023d366004610f63565b50505050505050565b34801561025257600080fd5b506101d47f000000000000000000000000000000000000000000000000000000000000000081565b34801561028657600080fd5b50610158610606565b34801561029b57600080fd5b506002546101d4906001600160a01b031681565b3480156102bb57600080fd5b506102cf6102ca366004610f15565b61061a565b6040516001600160401b039091168152602001610178565b3480156102f357600080fd5b50610316610302366004610fe7565b6001600160a01b0381163014949350505050565b6040519015158152602001610178565b34801561033257600080fd5b506000546001600160a01b03166101d4565b34801561035057600080fd5b5061015861035f36600461104d565b6001600160a01b03918216600090815260056020526040902080546001600160a01b03191691909216179055565b34801561039957600080fd5b506003546101d4906001600160a01b031681565b3480156103b957600080fd5b506103da6103c8366004611086565b60016020526000908152604090205481565b604051908152602001610178565b3480156103f457600080fd5b50610158610403366004610f3f565b610623565b61041b61041636600461114c565b6106a9565b60405161017891906111c2565b610158610436366004610e81565b610732565b34801561044757600080fd5b50610158610456366004610f3f565b61078e565b34801561046757600080fd5b5061047b610476366004611204565b6107cc565b6040516101789190611298565b34801561049457600080fd5b506103166104a33660046112af565b610810565b7f00000000000000000000000000000000000000000000000000000000000000006001600160a01b031633146104f8576040516391ac5e4f60e01b81523360048201526024015b60405180910390fd5b602087018035906105129061050d908a611086565b610846565b1461023d576105246020880188611086565b60405163309afaf360e21b815263ffffffff9091166004820152602088013560248201526044016104ef565b600061055e828401846112cb565b80516001600160a01b039081166000908152600560209081526040918290205490840151828501516060860151935163ef64ba5960e01b81529596509190931693849363ef64ba59936105b59391926004016113c3565b600060405180830381600087803b1580156105cf57600080fd5b505af11580156105e3573d6000803e3d6000fd5b5050505050505050505050565b6105f8610882565b61060282826108af565b5050565b61060e610882565b6106186000610904565b565b60005b92915050565b61062b610882565b60405163ca5eb5e160e01b81526001600160a01b0382811660048301527f0000000000000000000000000000000000000000000000000000000000000000169063ca5eb5e190602401600060405180830381600087803b15801561068e57600080fd5b505af11580156106a2573d6000803e3d6000fd5b5050505050565b6106b1610d11565b6000846040516020016106c491906113ed565b60408051601f198184030181526020601f870181900481028401810190925285835292506107289188918491908890889081908401838280828437600092018290525060408051808201909152348152602081019190915292503391506109549050565b9695505050505050565b6000610740828401846112cb565b80516001600160a01b039081166000908152600560209081526040918290205490840151915163f58409b960e01b81526004810192909252929350911690819063f58409b9906024016105b5565b610796610882565b6001600160a01b0381166107c057604051631e4fbdf760e01b8152600060048201526024016104ef565b6107c981610904565b50565b60408051808201909152600080825260208201526000846040516020016107f391906113ed565b604051602081830303815290604052905061072886828686610a5f565b60006020820180359060019083906108289086611086565b63ffffffff1681526020810191909152604001600020541492915050565b63ffffffff81166000908152600160205260408120548061061d5760405163f6ff4fb760e01b815263ffffffff841660048201526024016104ef565b6000546001600160a01b031633146106185760405163118cdaa760e01b81523360048201526024016104ef565b63ffffffff8216600081815260016020908152604091829020849055815192835282018390527f238399d427b947898edb290f5ff0f9109849b1c3ba196a42e35f00c50a54b98b910160405180910390a15050565b600080546001600160a01b038381166001600160a01b0319831681178455604051919092169283917f8be0079c531659141344cd1fd0a4f28419497f9722a3daafe3b4186f6b6457e09190a35050565b61095c610d11565b600061096b8460000151610b40565b602085015190915015610985576109858460200151610b68565b7f00000000000000000000000000000000000000000000000000000000000000006001600160a01b0316632637a450826040518060a001604052808b63ffffffff1681526020016109d58c610846565b81526020018a815260200189815260200160008960200151111515815250866040518463ffffffff1660e01b8152600401610a11929190611400565b60806040518083038185885af1158015610a2f573d6000803e3d6000fd5b50505050506040513d601f19601f82011682018060405250810190610a5491906114c7565b979650505050505050565b60408051808201909152600080825260208201527f00000000000000000000000000000000000000000000000000000000000000006001600160a01b031663ddc28c586040518060a001604052808863ffffffff168152602001610ac289610846565b8152602001878152602001868152602001851515815250306040518363ffffffff1660e01b8152600401610af7929190611400565b6040805180830381865afa158015610b13573d6000803e3d6000fd5b505050506040513d601f19601f82011682018060405250810190610b37919061152e565b95945050505050565b6000813414610b64576040516304fb820960e51b81523460048201526024016104ef565b5090565b60007f00000000000000000000000000000000000000000000000000000000000000006001600160a01b031663e4fe1d946040518163ffffffff1660e01b8152600401602060405180830381865afa158015610bc8573d6000803e3d6000fd5b505050506040513d601f19601f82011682018060405250810190610bec919061154a565b90506001600160a01b038116610c15576040516329b99a9560e11b815260040160405180910390fd5b6040805133602482018190527f00000000000000000000000000000000000000000000000000000000000000006001600160a01b03818116604485015260648085018890528551808603909101815260849094019094526020830180516001600160e01b03166323b872dd60e01b179052610602938516928690610c9a908590610ca0565b50505050565b600080602060008451602086016000885af180610cc3576040513d6000823e3d81fd5b50506000513d91508115610cdb578060011415610ce8565b6001600160a01b0384163b155b15610c9a57604051635274afe760e01b81526001600160a01b03851660048201526024016104ef565b60405180606001604052806000801916815260200160006001600160401b03168152602001610d53604051806040016040528060008152602001600081525090565b905290565b600060608284031215610d6a57600080fd5b50919050565b60008083601f840112610d8257600080fd5b5081356001600160401b03811115610d9957600080fd5b602083019150836020828501011115610db157600080fd5b9250929050565b6001600160a01b03811681146107c957600080fd5b600080600080600080600060e0888a031215610de857600080fd5b610df28989610d58565b96506060880135955060808801356001600160401b0380821115610e1557600080fd5b610e218b838c01610d70565b909750955060a08a01359150610e3682610db8565b90935060c08901359080821115610e4c57600080fd5b50610e598a828b01610d70565b989b979a50959850939692959293505050565b6001600160401b03811681146107c957600080fd5b600080600080600060808688031215610e9957600080fd5b8535610ea481610db8565b94506020860135610eb481610e6c565b93506040860135610ec481610e6c565b925060608601356001600160401b03811115610edf57600080fd5b610eeb88828901610d70565b969995985093965092949392505050565b803563ffffffff81168114610f1057600080fd5b919050565b60008060408385031215610f2857600080fd5b610f3183610efc565b946020939093013593505050565b600060208284031215610f5157600080fd5b8135610f5c81610db8565b9392505050565b600080600080600080600060c0888a031215610f7e57600080fd5b8735610f8981610db8565b96506020880135610f9981610e6c565b95506040880135610fa981610e6c565b94506060880135610fb981610db8565b93506080880135925060a08801356001600160401b03811115610fdb57600080fd5b610e598a828b01610d70565b60008060008060a08587031215610ffd57600080fd5b6110078686610d58565b935060608501356001600160401b0381111561102257600080fd5b61102e87828801610d70565b909450925050608085013561104281610db8565b939692955090935050565b6000806040838503121561106057600080fd5b823561106b81610db8565b9150602083013561107b81610db8565b809150509250929050565b60006020828403121561109857600080fd5b610f5c82610efc565b634e487b7160e01b600052604160045260246000fd5b60006001600160401b03808411156110d1576110d16110a1565b604051601f8501601f19908116603f011681019082821181831017156110f9576110f96110a1565b8160405280935085815286868601111561111257600080fd5b858560208301376000602087830101525050509392505050565b600082601f83011261113d57600080fd5b610f5c838335602085016110b7565b6000806000806060858703121561116257600080fd5b61116b85610efc565b935060208501356001600160401b038082111561118757600080fd5b6111938883890161112c565b945060408701359150808211156111a957600080fd5b506111b687828801610d70565b95989497509550505050565b6000608082019050825182526001600160401b03602084015116602083015260408301516111fd604084018280518252602090810151910152565b5092915050565b6000806000806080858703121561121a57600080fd5b61122385610efc565b935060208501356001600160401b038082111561123f57600080fd5b61124b8883890161112c565b9450604087013591508082111561126157600080fd5b508501601f8101871361127357600080fd5b611282878235602084016110b7565b9250506060850135801515811461104257600080fd5b81518152602080830151908201526040810161061d565b6000606082840312156112c157600080fd5b610f5c8383610d58565b6000602082840312156112dd57600080fd5b81356001600160401b03808211156112f457600080fd5b908301906080828603121561130857600080fd5b604051608081018181108382111715611323576113236110a1565b604052823561133181610db8565b815260208381013590820152604083013561134b81610db8565b604082015260608301358281111561136257600080fd5b61136e8782860161112c565b60608301525095945050505050565b6000815180845260005b818110156113a357602081850181015186830182015201611387565b506000602082860101526020601f19601f83011685010191505092915050565b8381526001600160a01b0383166020820152606060408201819052600090610b379083018461137d565b602081526000610f5c602083018461137d565b6040815263ffffffff8351166040820152602083015160608201526000604084015160a0608084015261143660e084018261137d565b90506060850151603f198483030160a0850152611453828261137d565b60809690960151151560c08501525050506001600160a01b039190911660209091015290565b60006040828403121561148b57600080fd5b604051604081018181106001600160401b03821117156114ad576114ad6110a1565b604052825181526020928301519281019290925250919050565b6000608082840312156114d957600080fd5b604051606081018181106001600160401b03821117156114fb576114fb6110a1565b60405282518152602083015161151081610e6c565b60208201526115228460408501611479565b60408201529392505050565b60006040828403121561154057600080fd5b610f5c8383611479565b60006020828403121561155c57600080fd5b8151610f5c81610db856fea26469706673582212200a7871483f02c20f1e1872efffb48406f9f261bf1c6483404ceddc20c52f1d2464736f6c63430008160033",
  "devdoc": {
    "errors": {
      "OwnableInvalidOwner(address)": [
        {
          "details": "The owner is not a valid owner account. (eg. `address(0)`)"
        }
      ],
      "OwnableUnauthorizedAccount(address)": [
        {
          "details": "The caller account is not authorized to perform an operation."
        }
      ],
      "SafeERC20FailedOperation(address)": [
        {
          "details": "An operation with an ERC-20 token failed."
        }
      ]
    },
    "kind": "dev",
    "methods": {
      "allowInitializePath((uint32,bytes32,uint64))": {
        "details": "This indicates to the endpoint that the OApp has enabled msgs for this particular path to be received.This defaults to assuming if a peer has been set, its initialized. Can be overridden by the OApp if there is other logic to determine this.",
        "params": {
          "origin": "The origin information containing the source endpoint and sender address."
        },
        "returns": {
          "_0": "Whether the path has been initialized."
        }
      },
      "isComposeMsgSender((uint32,bytes32,uint64),bytes,address)": {
        "details": "_origin The origin information containing the source endpoint and sender address.  - srcEid: The source chain endpoint ID.  - sender: The sender address on the src chain.  - nonce: The nonce of the message._message The lzReceive payload.Applications can optionally choose to implement separate composeMsg senders that are NOT the bridging layer.The default sender IS the OAppReceiver implementer.",
        "params": {
          "_sender": "The sender address."
        },
        "returns": {
          "_0": "isSender Is a valid sender."
        }
      },
      "lzReceive((uint32,bytes32,uint64),bytes32,bytes,address,bytes)": {
        "details": "Entry point for receiving messages or packets from the endpoint.Entry point for receiving msg/packet from the LayerZero endpoint.",
        "params": {
          "_executor": "The address of the executor for the received message.",
          "_extraData": "Additional arbitrary data provided by the corresponding executor.",
          "_guid": "The unique identifier for the received LayerZero message.",
          "_message": "The payload of the received message.",
          "_origin": "The origin information containing the source endpoint and sender address.  - srcEid: The source chain endpoint ID.  - sender: The sender address on the src chain.  - nonce: The nonce of the message."
        }
      },
      "nextNonce(uint32,bytes32)": {
        "details": "_srcEid The source endpoint ID._sender The sender address.The path nonce starts from 1. If 0 is returned it means that there is NO nonce ordered enforcement.Is required by the off-chain executor to determine the OApp expects msg execution is ordered.This is also enforced by the OApp.By default this is NOT enabled. ie. nextNonce is hardcoded to return 0.",
        "returns": {
          "nonce": "The next nonce."
        }
      },
      "oAppVersion()": {
        "returns": {
          "receiverVersion": "The version of the OAppReceiver.sol implementation.",
          "senderVersion": "The version of the OAppSender.sol implementation."
        }
      },
      "owner()": {
        "details": "Returns the address of the current owner."
      },
      "renounceOwnership()": {
        "details": "Leaves the contract without owner. It will not be possible to call `onlyOwner` functions. Can only be called by the current owner. NOTE: Renouncing ownership will leave the contract without an owner, thereby disabling any functionality that is only available to the owner."
      },
      "setDelegate(address)": {
        "details": "Only the owner/admin of the OApp can call this function.Provides the ability for a delegate to set configs, on behalf of the OApp, directly on the Endpoint contract.",
        "params": {
          "_delegate": "The address of the delegate to be set."
        }
      },
      "setPeer(uint32,bytes32)": {
        "details": "Only the owner/admin of the OApp can call this function.Indicates that the peer is trusted to send LayerZero messages to this OApp.Set this to bytes32(0) to remove the peer address.Peer is a bytes32 to accommodate non-evm chains.",
        "params": {
          "_eid": "The endpoint ID.",
          "_peer": "The address of the peer to be associated with the corresponding endpoint."
        }
      },
      "transferOwnership(address)": {
        "details": "Transfers ownership of the contract to a new account (`newOwner`). Can only be called by the current owner."
      }
    },
    "version": 1
  },
  "userdoc": {
    "kind": "user",
    "methods": {
      "allowInitializePath((uint32,bytes32,uint64))": {
        "notice": "Checks if the path initialization is allowed based on the provided origin."
      },
      "endpoint()": {
        "notice": "Retrieves the LayerZero endpoint associated with the OApp."
      },
      "isComposeMsgSender((uint32,bytes32,uint64),bytes,address)": {
        "notice": "Indicates whether an address is an approved composeMsg sender to the Endpoint."
      },
      "nextNonce(uint32,bytes32)": {
        "notice": "Retrieves the next nonce for a given source endpoint and sender address."
      },
      "oAppVersion()": {
        "notice": "Retrieves the OApp version information."
      },
      "peers(uint32)": {
        "notice": "Retrieves the peer (OApp) associated with a corresponding endpoint."
      },
      "setDelegate(address)": {
        "notice": "Sets the delegate address for the OApp."
      },
      "setPeer(uint32,bytes32)": {
        "notice": "Sets the peer address (OApp instance) for a corresponding endpoint."
      }
    },
    "version": 1
  },
  "storageLayout": {
    "storage": [
      {
        "astId": 6888,
        "contract": "contracts/Curator.sol:Curator",
        "label": "_owner",
        "offset": 0,
        "slot": "0",
        "type": "t_address"
      },
      {
        "astId": 3145,
        "contract": "contracts/Curator.sol:Curator",
        "label": "peers",
        "offset": 0,
        "slot": "1",
        "type": "t_mapping(t_uint32,t_bytes32)"
      },
      {
        "astId": 13555,
        "contract": "contracts/Curator.sol:Curator",
        "label": "galleryAddress",
        "offset": 0,
        "slot": "2",
        "type": "t_address"
      },
      {
        "astId": 13557,
        "contract": "contracts/Curator.sol:Curator",
        "label": "lzEndpoint",
        "offset": 0,
        "slot": "3",
        "type": "t_address"
      },
      {
        "astId": 13559,
        "contract": "contracts/Curator.sol:Curator",
        "label": "curatorDelegate",
        "offset": 0,
        "slot": "4",
        "type": "t_address"
      },
      {
        "astId": 13563,
        "contract": "contracts/Curator.sol:Curator",
        "label": "collections",
        "offset": 0,
        "slot": "5",
        "type": "t_mapping(t_address,t_address)"
      }
    ],
    "types": {
      "t_address": {
        "encoding": "inplace",
        "label": "address",
        "numberOfBytes": "20"
      },
      "t_bytes32": {
        "encoding": "inplace",
        "label": "bytes32",
        "numberOfBytes": "32"
      },
      "t_mapping(t_address,t_address)": {
        "encoding": "mapping",
        "key": "t_address",
        "label": "mapping(address => address)",
        "numberOfBytes": "32",
        "value": "t_address"
      },
      "t_mapping(t_uint32,t_bytes32)": {
        "encoding": "mapping",
        "key": "t_uint32",
        "label": "mapping(uint32 => bytes32)",
        "numberOfBytes": "32",
        "value": "t_bytes32"
      },
      "t_uint32": {
        "encoding": "inplace",
        "label": "uint32",
        "numberOfBytes": "4"
      }
    }
  }
}